:020000040800F2
:10000000080E01206D0300084D4E00083937000826
:100010004D4D0008C90B0008DD6800080000000015
:10002000000000000000000000000000AD02000819
:10003000CB0B00080000000009030008A5530008CE
:100040008703000887030008870300088703000868
:100050008703000887030008CD0B0008870300080A
:100060008703000887030008870300088703000848
:100070008703000887030008870300088703000838
:100080008703000887030008870300088703000828
:10009000870300088703000887030008E50B0008B2
:1000A00087030008395500082D5500082155000820
:1000B00087030008870300084555000887030008E8
:1000C00087030008870300088703000887030008E8
:1000D000870300088703000887030008D168000829
:1000E000CF0B00088703000800000000870300080A
:1000F000515500088703000887030008870300089C
:1001000087030008870300088703000887030008A7
:100110008703000887030008870300088703000897
:100120008703000887030008870300088703000887
:100130008703000887030008870300088703000877
:1001400000000000000000000000000000000000AF
:100150008703000887030008870300088703000857
:100160008703000887030008870300088703000847
:1001700087030008870300088703000800000000C9
:100180008703000887030008870300088703000827
:100190008703000887030008870300088703000817
:1001A0008703000887030008870300088703000807
:1001B00087030008870300088703000887030008F7
:1001C00087030008870300088703000887030008E7
:1001D00087030008870300088703000887030008D7
:1001E00087030008870300088703000887030008C7
:1001F00087030008870300088703000887030008B7
:1002000087030008870300088703000887030008A6
:100210008703000887030008870300088703000896
:100220008703000887030008870300080000000018
:100230008703000887030008000000008703000808
:100240008703000887030008870300088703000866
:100250008703000887030008870300088703000856
:100260008703000887030008870300088703000846
:1002700087030008870300088703000800000000C8
:1002800087030008870300088703000800000000B8
:100290000000000087030008DFF80CD000F0C2FA6D
:1002A00000480047F9720008080E01202C4B19681D
:1002B0000868B0E8F04F80F30988BFF36F8F4FF004
:1002C000000080F3118870470000000008480068B3
:1002D000006880F308884FF0000080F3148862B64D
:1002E00061B6BFF34F8FBFF36F8F00DF00BF00BF5A
:1002F00008ED00E0DFF80C00016841F470010160D6
:10030000704700BF88ED00E0EFF30980BFF36F8F07
:10031000134B1A681EF0100F08BF20ED108A20E959
:10032000F04F106009B44FF0500080F31188BFF314
:100330004F8FBFF36F8F07F0D9FC4FF0000080F3B1
:10034000118809BC19680868B0E8F04F1EF0100F5A
:1003500008BFB0EC108A80F30988BFF36F8F704735
:10036000F4010020EFF30580704700000648804745
:1003700006480047FEE7FEE7FEE7FEE7FEE7FEE78A
:10038000FEE7FEE7FEE7FEE7855400089902000855
:100390002DE9F05F0546002092469B4688460646BA
:1003A000814640241BE0284641464746224600F04D
:1003B00070F853465A46C01A914110D31146184658
:1003C000224600F057F82D1A67EB01084F462246E7
:1003D0000120002100F04EF817EB00094E41201ECD
:1003E000A4F10104DFDC484631462A464346BDE815
:1003F000F09F40EA01039B0703D009E008C9121FE0
:1004000008C0042AFAD203E011F8013B00F8013BCE
:10041000521EF9D27047D2B201E000F8012B491EFA
:10042000FBD270470022F6E710B513460A46044691
:100430001946FFF7F0FF204610BD421C10F8011BC3
:100440000029FBD1801A704730B50B4601460020C9
:100450002022012409E021FA02F59D4205D303FA86
:1004600002F5491B04FA02F52844151EA2F1010207
:10047000F1DC30BD202A04DB203A00FA02F1002032
:1004800070479140C2F1200320FA03F319439040D2
:100490007047202A04DB203A21FA02F0002170473D
:1004A00021FA02F3D040C2F12002914008431946DC
:1004B00070472DE9FE4F804681EA0300C00F0C46CD
:1004C000009021F0004123F00045B8EB0200A94163
:1004D00005D24046214690461C460B46024623F074
:1004E0000040104347D0270DC7F30A00C3F30A5159
:1004F0000290401A019040286BDAC3F3130040F4D5
:10050000801B0098924620B10023D2EB030A63EBD4
:100510000B0B01985946C0F140025046FFF7AAFF65
:1005200006460D4650465946019A00F08DF910EBEB
:1005300008006141002487EA115284EAE7731A43F4
:1005400040D0009A62B3019A012A4FEA075215DCA3
:10055000001B61EB02014FF0004202EA0752CDE9B5
:100560000042001C41F5801132462B4600F08DF907
:1005700003B0BDE8F08F40462146F9E7001B61EB70
:100580000201001C41F5801300185B412018A2F500
:10059000001747EB030140EAD570B6196D4111E031
:1005A0006D084FEA360645EAC0754FEA0752001B50
:1005B00061EB0201001C41F5801149084FEA30004F
:1005C0000019514132462B4603B0BDE8F04F00F010
:1005D0004DB90098012240000023D0EB020263EBEA
:1005E000E073009821464FEAE074B8EB000061EB3D
:1005F0000401E9E783F000435BE781F0004158E73D
:100600002DE9FE4F81EA030404F0004421F000418B
:1006100000944FF0000B23F0004350EA01045ED039
:1006200052EA03045BD0C3F30A54C1F30A552C44C5
:10063000A4F2F3340194A0FB0254C1F3130141F47A
:100640008011C3F3130343F4801301FB024400FB46
:10065000034E840A970A44EA815447EA8357A4FB6D
:10066000076802958D0A05FB07854FEA932C04FB6A
:100670000C542705029D4FEA065847EA1637B5EB9A
:1006800008056EEB070C870E920E47EA811742EAC7
:100690008312A7FB0201B6EB0B0164EB00042B0DE8
:1006A00043EA0C335E1844EB1C50DA465146E7FB34
:1006B0000201C5F313044FEA0B3343EA14534FEA24
:1006C0000432019C43EA0603A4F10C040294009C4A
:1006D000CDE900B400F0D9F803B0BDE8F08F0020F8
:1006E0000146F9E72DE9F04D81EA030404F0004BDF
:1006F00021F0004514464FF0000A23F0004150EA73
:10070000050220D054EA01021DD0C5F30A57024663
:10071000C5F31303C1F31300C1F30A5640F4801567
:1007200043F48013A7EB0608101BD64608F2FD38E9
:1007300073EB050002D308F1010801E092185B4158
:10074000B8F1000F03DA00200146BDE8F08D00206B
:100750004FF48011064684460EE0171B73EB050725
:1007600005D3121B63EB050306434CEA010C490851
:100770004FEA300092185B4150EA0107EDD152EA8E
:10078000030012D082EA040083EA0501084305D081
:10079000101BAB4106D20122002306E000224FF0DD
:1007A000004302E06FF0010253101AEB06004CEB1D
:1007B000085110EB0A0041EB0B01BDE8F04D00F0D1
:1007C00055B8C1F30A52C1F3130140F2FF3341F4AB
:1007D00080119A4202DA00200146704740F233430A
:1007E0009A42A2F2334202DC5242FFF752BEFFF7B6
:1007F00041BE000030B5041E71F1000404DB4FF06F
:100800000044404264EB0101141E73F1000405DB57
:100810001C464FF00043524263EB0403994208BF69
:10082000904230BD064C074D06E0E06840F0010301
:1008300094E8070098471034AC42F6D3FFF730FD38
:100840005085000870850008202A06DBCB17203A67
:1008500041FA02F043EAE07306E041FA02F3D040C5
:10086000C2F12002914008431946704710B5141E8A
:1008700073F1000408DA401C41F1000192185B4159
:100880001A4301D120F0010010BD2DE9F04D924630
:100890009B4611B1B1FA81F202E0B0FA80F2203247
:1008A0009046FFF7E7FD04460F4640EA0A0041EA9A
:1008B0000B0153465A46084313D0114653EA010030
:1008C00019D0C8F140025046FFF7E3FD05460E4639
:1008D000504659464246FFF7CDFD084305D001205A
:1008E00004E020463946BDE8F08D0020054346EA85
:1008F000E0762C4337430A986305E40AA0EB08002E
:100900000022FD0A44EA47540A3002D5002001467D
:10091000E9E7010510196941DDE908450019694158
:10092000BDE8F04DA2E770B58C1810F8015B15F02A
:10093000070301D110F8013B2A1106D110F8012B51
:1009400003E010F8016B01F8016B5B1EF9D12B0776
:1009500005D40023521E0DD401F8013BFAE710F82C
:10096000013BCB1A921C03E013F8015B01F8015B19
:10097000521EF9D5A142D8D3002070BD0449496860
:1009800011B1896801B1084740F6020000F024B8AF
:10099000CC0100200449496811B1C96801B1084778
:1009A00040F6030000F018B8CC01002002460948C8
:1009B00010B50024406830B1D0F8881019B1104645
:1009C0008847044603E040F6220000F005F8204680
:1009D00010BD0000CC0100200349496819B1D1F8CD
:1009E000F01001B10847FEE7CC0100200448406840
:1009F00010B1406900B1004740F60500FFF7ECBFB9
:100A0000CC0100200246084810B50024406828B1F7
:100A1000816B19B110468847044603E040F60E008A
:100A2000FFF7DAFF204610BDCC010020084605493B
:100A3000496811B10A6802B110474FF40060FFF72E
:100A4000CBBF0000CC010020044B5B6813B1DB6C12
:100A500003B1184740F61300FFF7BEBFCC010020DA
:100A60000549496819B1D1F8981001B1084740F615
:100A70002600FFF7B1BF0000CC01002005494968FE
:100A800019B1D1F89C1001B1084740F62700FFF7D3
:100A9000A3BF0000CC0100200346084810B5002485
:100AA000406828B1826D1AB118469047044603E0A9
:100AB00040F61600FFF790FF204610BDCC01002045
:100AC0000346084810B50024406828B1826E1AB168
:100AD00018469047044603E040F61A00FFF77CFFF3
:100AE000204610BDCC0100200346084810B5002464
:100AF000406828B1C26E1AB118469047044603E018
:100B000040F61B00FFF768FF204610BDCC01002017
:100B100070B5264C0E46A0F5C8514FF000054A3975
:100B2000208021D0012825D0A0F5C0513E391ED00B
:100B3000B0F5C25F24D0DC2825D0A0F5C8514639D5
:100B40001BD0A0F5C851483917D0A0F5C85150396D
:100B50001CD0A0F5C851523918D0F02819D0FA2865
:100B600017D0002060601FE003F080F913E002F06E
:100B7000E4FD10E004F06BF90DE006F064FB0AE020
:100B800002F0DDFD07E004F009FC04E006F05DFB87
:100B900001E004F005FC606030B1D0F8441119B1F7
:100BA00016B1304688470546284670BDCC01002066
:100BB0000449496811B1496F01B1084740F61D0069
:100BC000FFF70ABFCC010020FEE77047FEE74FF4B5
:100BD000005010B500F0FEF8BDE810404FF4804022
:100BE00000F0F8B8802000F0F5B800002DE9F05FC3
:100BF00028B190F83510022904D0802141650120E8
:100C0000BDE8F09F634A634B624F1832016830338E
:100C1000614C624DB942DFF888A1DFF88891DFF8B6
:100C200088B1DFF88881DFF888E1624E32D09142E6
:100C300030D099422ED0A1422CD0A9422AD0514581
:100C400028D0494526D0594524D0C446614521D0F5
:100C5000DFF858C10CF1180C61451BD0DFF84CC10E
:100C60000CF1300C614515D0DFF844C1ACF1300C0B
:100C700061450FD0DFF838C1ACF1180C614509D0DF
:100C8000714507D0DFF828C10CF1180C614501D07F
:100C9000B1422ED14FF0040C80F835C0B94223D0B8
:100CA000914221D099421FD0A1421DD0A9421BD010
:100CB000514519D0494517D0594515D0414513D054
:100CC0003A48183081420FD03848303081420BD03A
:100CD00037483038814207D035481838814203D030
:100CE000714501D032481830086820F001000860D2
:100CF0004DE0D1F8008028F00E08C1F800800168AE
:100D0000B9421ED091421CD099421AD0A14218D0AB
:100D1000A94216D0514514D0494512D0594510D09A
:100D2000224A91420DD0214A1832914209D01F4ADD
:100D30003032914205D01E4A303A914201D01C4ACD
:100D4000183A0A6822F001020A60026E0121136853
:100D500023F48073136090F85C30826D03F01F03FE
:100D600001FA03F35360D0E919235360C26E32B124
:100D7000136823F480731360D0E91C2353600023AD
:100D8000026D80F8343080F8351002B190470020B1
:100D900036E7000010000240580002407000024098
:100DA00088000240A0000240B80002401004024047
:100DB00088040240B8040240B0F5005F04D0B0F5EA
:100DC000804F04D1FFF712BE01490120086070472F
:100DD000200000204FF0B04110B5D1F88820024229
:100DE00003D0C1F88800FFF7E7FF10BD2DE9F84FE9
:100DF000714C00234FF0B04E4FF001094FF0030B40
:100E00004FF00F0AD0E000BF09FA03F812EA080217
:100E100074D04D68022D01D0122D0FD1DD085F076F
:100E200000EB850500950E692D6AFF0E0AFA07FC96
:100E3000BE4025EA0C052E43009D2E625D000F7911
:100E400006680BFA05FC07F0030726EA0C06AF401C
:100E5000374307604E68012E05D0022E03D0112EB5
:100E600001D0122E0FD18668CF6826EA0C06AF405B
:100E70003743876046680F7926EA0806C7F30017EC
:100E80009F4037434760C6688F6826EA0C06AF402C
:100E90003743C7604D68ED0030D5484D2E6846F0A9
:100EA00002062E602D6823F0030606F1B04605F019
:100EB000020500959D072F0FD6F80854DFF8008132
:100EC0000AFA07FC404525EA0C0502D14FF0000C58
:100ED00041E0DFF8F0C0604502D14FF0010C3AE08C
:100EE000DFF8E4C0604502D14FF0020C33E0DFF8D8
:100EF000DCC0604503D14FF0030C2CE053E0DFF879
:100F0000D0C0604502D14FF0040C24E0DFF8C4C02B
:100F1000604502D14FF0050C1DE0DFF8BCC0604514
:100F200002D14FF0060C16E0DFF8B0C0604502D1E8
:100F30004FF0070C0FE0DFF8A8C0604502D14FF07A
:100F4000080C08E0DFF89CC0604502D14FF0090CA6
:100F500001E04FF00A0C0CFA07FC4CEA050CC6F84D
:100F600008C425684E6825EA0205F60300D5154336
:100F7000256065684E6825EA0205B60300D515436D
:100F800065604F687546DEF80060FF0226EA0206DB
:100F900000D516432E604F686E68BF0226EA02062F
:100FA00000D516436E605B1C0A6832FA03F57FF4C5
:100FB0002BAFBDE8F88F000080000058F4440258C1
:100FC000000002580004025800080258000C0258A1
:100FD000001002580014025800180258001C025851
:100FE0000020025800240258426931EA020200D16E
:100FF0000904816170470AB1816170470904FBE708
:1010000001480068000C70470010005C01488068CF
:1010100070470000E0010020024881680278114416
:1010200081607047E0010020032010B500F0A2F8B5
:1010300001F02CF80E490F4A0F4B0C68C4F303243F
:10104000145D04F01F04E0401860096801F00F010E
:10105000515C01F01F01C84008490860002000F001
:101060000FF808B1012010BD00F044F8002010BDB9
:101070001844025810850008EC010020F0010020FF
:1010800010B5002201462C208AB000F053F82C2025
:1010900000F042F81348016841F002010160006865
:1010A00008A900F002000990684600F087FF00F0F0
:1010B000DBFF0D49400000220C4CB0FBF1F10C4865
:1010C00040F2E7330460C0E90332491EC0E901126F
:1010D00001F080FD10B101200AB010BD044801F0FC
:1010E000E5FDF9E7F044025840420F0000040140DA
:1010F00000070020074882B0016841F0020101604A
:10110000006800220F2100F002000090901E02B043
:1011100000F010B8F4440258002809DB410900F03F
:101120001F028900012001F1E0219040C1F8000177
:10113000704700000E4BF0B41B680D46C3F302234A
:10114000C3F10706042E00D90426191D072901D270
:10115000002300E0DB1E012404FA06F19C40491E36
:101160002940641E994014402143F0BC05F0E2BBC5
:101170000CED00E0064900F0070210B54FF6FF0441
:101180000868044B204040EA02201843086010BD64
:101190000CED00E00000FA05124970B50A6852072C
:1011A00006D40A6802F00702824201D0012070BD15
:1011B0000A6822F0070202430A60FFF727FF094D81
:1011C0004FF47A760446083D07E000BFFFF71EFFA4
:1011D000001BB04201D9032070BD28688004F5D5FA
:1011E000002070BD0C48025810B500F04FFF064AB1
:1011F00006491268064BC2F303229A5C02F01F02F2
:10120000D040086010BD000018440258EC010020D6
:101210001085000810B500F0FFFE05490968054A71
:10122000C1F30211515C01F01F01C84010BD000064
:101230002044025810850008494930B5484C0B1D20
:101240000A68143409681D68246802F0030305F075
:101250001002C1F30531C4F3CC04002914FB02F2DF
:1012600000EE102AF8EE400A75D03F4A9FED3D1A75
:10127000B7EE000A6BB1DFED3D1A012B01D0022B56
:1012800064D002EE101A1168F8EE422A81EEA22A0A
:1012900021E0334C283C23689B0612D5344B24684C
:1012A00001EE901A1168C4F3C104F8EE612AE3401C
:1012B00001EE903AC1F30801F8EE611A81EEA22A1C
:1012C0000BE001EE901ADFED2B2A00BFF8EE611A59
:1012D000116882EEA12AC1F3080101EE901A11688B
:1012E000F8EE611A40EE811A71EE800A62EE200A71
:1012F000C1F3462101EE101AB8EE411A31EE001A80
:10130000C0EE811ABCEEE11A80ED001A1168C1F33B
:10131000064101EE101AB8EE411A31EE001AC0EE85
:10132000811ABCEEE11A80ED011A1168C1F3066161
:1013300001EE101AB8EE411A31EE000A80EE801A62
:10134000BCEEC10A80ED020A30BD04E001EE901A45
:10135000DFED092ABAE70021016041608160F3E70F
:101360002844025800000039384402580024744AC6
:101370000090D0030024744C20BCBE4B494930B5CA
:10138000484C0B1D0A681C3409681D68246802F06B
:10139000030305F48072C1F30551C4F3CC040029A2
:1013A00014FB02F200EE102AF8EE400A75D03F4A14
:1013B0009FED3D1AB7EE000A6BB1DFED3D1A012B30
:1013C00001D0022B64D002EE101A1168F8EE422A06
:1013D00081EEA22A21E0334C283C23689B0612D5DB
:1013E000344B246801EE901A1168C4F3C104F8EE7E
:1013F000612AE34001EE903AC1F30801F8EE611A68
:1014000081EEA22A0BE001EE901ADFED2B2A00BF3D
:10141000F8EE611A116882EEA12AC1F3080101EE0B
:10142000901A1168F8EE611A40EE811A71EE800A86
:1014300062EE200AC1F3462101EE101AB8EE411AFD
:1014400031EE001AC0EE811ABCEEE11A80ED001AEE
:101450001168C1F3064101EE101AB8EE411A31EEDF
:10146000001AC0EE811ABCEEE11A80ED011A116873
:10147000C1F3066101EE101AB8EE411A31EE000A0E
:1014800080EE801ABCEEC10A80ED020A30BD04E095
:1014900001EE901ADFED092ABAE7002101604160F0
:1014A0008160F3E7284402580000003940440258A4
:1014B0000024744A0090D0030024744C20BCBE4B1E
:1014C0002DE9FC5F044650F8241B002500902E46B1
:1014D0000801FE4FDFF8F8931DD5606E50B1B0F5EE
:1014E000801F0CD0B0F5001F0ED0B0F5401F1DD0EE
:1014F00001250FE0386840F40030386016E0022122
:10150000201D03F0A7FC03E00098022103F032FD48
:1015100005000BD02E462088C00523D5606D052818
:101520001ED2DFE800F00C11161B1B00626ED9F80A
:10153000001021F440111143C9F80010EBE738689E
:1015400040F40030386009E00021201D03F082FCE7
:1015500003E00098002103F00DFD05466DB100E0A9
:1015600001252E462088800528D5A06D80281ED014
:101570000CDC90B140280ED114E0626DD9F8001057
:1015800021F007011143C9F80010EBE7C02813D080
:10159000B0F5807F10D001250FE0386840F40030AE
:1015A000386009E00021201D03F054FC03E000989E
:1015B000002103F0DFFC054695B12E462088DFF8B8
:1015C0001083400508F108082CD5D4F8A400B0F524
:1015D000800F20D00DDCA0B1B0F5001F0FD115E0B9
:1015E000A26DD9F8001021F4E0711143C9F8001080
:1015F000E4E7B0F5C00F13D0B0F5000F10D001250F
:101600000FE0386840F40030386009E00021201D08
:1016100003F020FC03E00098002103F0ABFC05463A
:1016200075B12E46208800052DD5D4F8A800B0F15C
:10163000007F21D00EDCA8B1B0F1807F10D116E080
:10164000D4F8A420D8F8001021F460011143C8F8A0
:101650000010E7E7B0F1407F13D0B0F1806F10D0F9
:1016600001250FE0386840F40030386009E00021BF
:10167000201D03F0EFFB03E00098002103F07AFC4B
:1016800005466DB12E46206880011FD5A06CD8B1EB
:1016900010280FD0202812D0302815D0012514E0B2
:1016A000D4F8A820D8F8001021F0E0611143C8F860
:1016B0000010E8E7386840F40030386004E00221A8
:1016C000201D03F0C7FB05466DB12E462088C004DF
:1016D0002BD5E06DB0F5005F20D00DDCA0B1B0F5EA
:1016E000805F0FD115E07A48A26C001F016821F0DD
:1016F000300111430160E9E7B0F5405F13D0B0F568
:10170000804F10D001250FE0386840F40030386079
:1017100009E00021201D03F09DFB03E0009800215B
:1017200003F028FC054685B12E462088800429D583
:10173000206EB0F5403F23D010DC08B3B0F5803FF9
:1017400014D0B0F5003F0FD115E0E26DD9F80010CC
:1017500021F4E0411143C9F80010E6E7B0F5802F0D
:101760000ED0B0F5A02F0BD001250AE00121201DDD
:1017700003F070FB03E00098012103F0FBFB05463A
:101780008DB12E46208840042AD5D4F8AC00B0F1A3
:10179000405F23D010DC08B3B0F1805F14D0B0F10B
:1017A000005F0FD115E0226ED9F8001021F4E0217E
:1017B0001143C9F80010E5E7B0F1804F0ED0B0F149
:1017C000A04F0BD001250AE00121201D03F042FBB0
:1017D00003E00098012103F0CDFB05466DB12E46D4
:1017E000208800041FD5E06ED8B1B0F1805F0ED024
:1017F000B0F1005F10D0012514E0D4F8AC20D8F887
:10180000001021F0E0411143C8F80010E8E7386803
:1018100040F40030386004E00121201D03F01AFB81
:1018200005466DB12E462068C0011ED5606CD0B152
:1018300001280ED0022811D0032814D0012513E06E
:10184000E26ED9F8001021F040511143C9F80010A0
:10185000E9E7386840F40030386004E00221201DD8
:1018600003F0F8FA054685B12E462068DFF85CB033
:101870004002ABF11C0B57D51648016841F480714A
:101880000160FFF7C3FB82460EE01148626C001F47
:10189000016821F0030111430160E6E7FFF7B6FBA1
:1018A000A0EB0A0064283DD80A480068C005F5D5B9
:1018B0007DBBDFF81CA0B4F8B0100AF1200ADAF8FA
:1018C000000001F4407100F4407005E02C4402581F
:1018D0005044025800480258884211D0DAF80010EB
:1018E000DAF8002021F4407142F48032CAF8002076
:1018F000DAF8002022F48032CAF80020CAF800107A
:10190000D4F8B000B0F5807F21D1FFF77FFB0190C4
:1019100019E008E0FFF77AFB0199411A41F288309B
:10192000814210D903252E462078DFF82CA4C00769
:101930003DD0A06F182838D026DC80B3082829D0E5
:10194000102825D12CE0DAF800008007E2D5D4F881
:10195000B010C1F30120032858460DD0016821F4CE
:101960007C510160B4F8B020DAF80010C2F30B0229
:101970001143CAF80010D7E7F84A036802EA1112C7
:1019800023F47C511143ECE720280ED028280CD0FA
:1019900001250BE00121201D03F05CFA04E004E0C6
:1019A0000098012103F0E6FA05465DB12E46207845
:1019B00080071ED5606F062819D2DFE800F0160CEC
:1019C00011161616A26FDAF8001021F03801114333
:1019D000CAF80010EBE70121201D03F03BFA03E0F9
:1019E0000098012103F0C6FA054675B100E0012513
:1019F0002E46207840071FD5D4F89000062819D22B
:101A0000DFE800F0160C11161616626FDAF80010F7
:101A100021F007011143CAF80010EAE70121201D57
:101A200003F018FA03E00098012103F0A3FA054639
:101A30009DB100E001252E46207880062BD5D4F8F4
:101A40008C00B0F1405F24D011DC10B3B0F1805FA6
:101A500015D0B0F1005F10D116E0D4F89020D8F87E
:101A6000001021F007011143C8F80010E4E7B0F1BD
:101A7000804F0ED0B0F1A04F0BD001250AE000211D
:101A8000201D03F0E7F903E00098022103F072FA49
:101A900005468DB12E46207840062BD5D4F8980007
:101AA000B0F5406F24D011DC10B3B0F5806F15D0C5
:101AB000B0F5006F10D116E0D4F88C20DAF80010E1
:101AC00021F0E0411143CAF80010E4E7B0F5805F6F
:101AD0000ED0B0F5A05F0BD001250AE00021201D3B
:101AE00003F0B8F903E00098022103F043FA054639
:101AF0008DB12E46207800062BD5D4F89C00B0F589
:101B0000C04F24D011DC10B3B0F5005F15D0B0F594
:101B1000804F10D116E0D4F89820D8F8001021F4A6
:101B2000E0511143C8F80010E4E7B0F5004F0ED0C3
:101B3000B0F5204F0BD001250AE00021201D03F055
:101B400089F903E00098022103F014FA054665B311
:101B50002E46207800070BD5D4F88010B1F5805FB1
:101B60002DD0DAF8002022F440520A43CAF80020AF
:101B70002078C0060BD5D4F89410B1F5807F26D01C
:101B8000D8F8002022F440720A43C8F800202068E8
:101B9000000330D5D4F8A00008B3B0F5803F23D0BF
:101BA000B0F5003F25D0012524E0D4F89C20D8F8DA
:101BB000001021F460411143C8F80010C9E70098F3
:101BC000022103F0D7F90028D2D00126D0E70098EF
:101BD000022103F0CFF90028D9D00126D7E7002150
:101BE000201D03F037F903E00098022103F0C2F949
:101BF000054685B12E462068400322D5D4F88400DE
:101C0000B0F5801F11D0B0F5001F13D0B0F5401F04
:101C100015D0012514E0D4F8A020D8F8001021F444
:101C200040311143C8F80010E5E7386840F400304F
:101C3000386004E00098012103F09CF9054655B195
:101C40002E462068C0031CD5E06C70B1B0F5803F13
:101C500010D0012514E0D4F88420DAF8001021F423
:101C600040111143CAF80010EBE7386840F4003027
:101C7000386004E00221201D03F0ECF80546CDB1E8
:101C80002E462068800005D50098022103F072F9E5
:101C900000B10126206880031BD5E06FB8B1B0F514
:101CA000807F10D0B0F5007F11D0B0F5407F0ED00E
:101CB00001250DE02848E26C0838016821F48031E4
:101CC00011430160DDE7386840F400303860EDB35F
:101CD0002E462068C00207D5226FD9F8001021F0E7
:101CE00000411143C9F800102068C00008D5D4F89D
:101CF000B420DBF8001021F480411143CBF8001030
:101D00002068800207D5A26ED9F8001021F08071FA
:101D10001143C9F80010206840000CD5DBF8001012
:101D200021F40041CBF80010DBF80010D4F8B82003
:101D30001143CBF800102068002809DA0648226D0C
:101D40000838016821F04051114300E008E00160CB
:101D50007EB10120BDE8FC9F54440258CFFFFF0034
:101D6000E26FDAF8001021F440711143CAF8001054
:101D7000AFE70020EEE700002DE9F05F04000F461A
:101D80007ED0DFF82482D8F8000000F00F00B842BF
:101D90000CD2D8F8001021F00F013943C8F8001018
:101DA000D8F8000000F00F00B84269D120787F4DCC
:101DB00040070AD52069296801F07001884204D9DA
:101DC000296821F07001014329602078774E361D83
:101DD00000070AD56069316801F07001884204D9B2
:101DE000316821F07001014331602078C0060AD5C6
:101DF000A069316801F4E061884204D9316821F4B6
:101E0000E061014331602078DFF8A0B180060BF17A
:101E1000080B0CD5E1695846DBF8002002F070028F
:101E2000914204D9026822F070020A4302602078CD
:101E300080070AD5E068296801F00F01884204D9BB
:101E4000296821F00F01014329602078C0073ED0A6
:101E50005649A2682868183920F470601043286039
:101E60006068022818D0032819D00968012819D001
:101E7000490700294ADADFF834A1AAF1080A00E08C
:101E800044E0DAF8002022F007020243CAF80020FA
:101E9000FFF7BCF8814612E009688903E9E70968A1
:101EA0008901E6E7C905E4E7FFF7B0F8A0EB09010F
:101EB00041F28830814202D90320BDE8F09F616879
:101EC000DAF8000000F03800B0EBC10FECD1207858
:101ED00080070AD5E068296801F00F01884204D222
:101EE000296821F00F0101432960D8F8001040460D
:101EF00001F00F01B9420BD9016821F00F013943FC
:101F00000160006800F00F00B84201D00120D4E762
:101F1000207840070AD52069296801F070018842BD
:101F200004D2296821F0700101432960207800075C
:101F30000AD56069316801F07001884204D23168C5
:101F400021F07001014331602078C0060AD5A069F4
:101F5000316801F4E061884204D2316821F4E06123
:101F600001433160207880060CD5E1695846DBF8E2
:101F7000002002F07002914204D2026822F0700246
:101F80000A43026000F082F82968094AC1F303217C
:101F9000515C01F01F01C84006490860064800680E
:101FA000BDE8F05FFFF76CB80020005218440258FB
:101FB00010850008EC010020E401002070B5144CED
:101FC0003F220260124A24680832131D114D04F0AA
:101FD0000704446016681C1D06F470668660166867
:101FE00006F00F06C660126802F0700202611A68FD
:101FF00002F0700242611A6802F4E06282612268B3
:1020000002F07002C261286800F00F00086070BD25
:10201000104402580020005210B5FFF7E5F8064AB8
:1020200006491268064B02F00F029A5C02F01F028A
:10203000D040086010BD000018440258F001002094
:102040001085000810B5FFF7E7FF05490968054A44
:10205000C1F30211515C01F01F01C84010BD000026
:102060001C4402581085000810B5FFF7D5FF05493C
:102070000968054AC1F30221515C01F01F01C84003
:1020800010BD00001C44025810850008454970B579
:1020900045480968434B103B11F0380208D0011144
:1020A000082A03D0102A0BD0182A0BD0084670BD7E
:1020B00019688906FBD51968C1F3C101C84070BD14
:1020C0003A4870BD3749374D18310C1D24350A6820
:1020D000096826682D6802F0030406F00102C1F3C6
:1020E0000511C5F3CC0515FB02F200EE102AB8EE7F
:1020F000400AE9B32F4ADFED2E0AB7EE001A6CB1A1
:10210000DFED2D1A012C01D0022C43D002EE101A63
:102110001068F8EE422A81EEA22A1EE01C68A4068E
:1021200011D51B6801EE901A1168C3F3C103F8EED4
:10213000612AD84001EE900AC1F30800F8EE611A56
:1021400081EEA22A0BE001EE901ADFED1C2A00BFFF
:10215000F8EE611A106882EEA12AC0F3080001EEC1
:10216000900AF8EE611A40EE201A31EE810A00E082
:1021700015E022EE000A1068C0F34620401C00EE75
:10218000900AF8EE600A80EE201ABCEEC10A10EE4A
:10219000100A70BD01EE901ADFED092AD8E7002081
:1021A00070BD0000104402580090D00340787D01BB
:1021B00000000039304402580024744A0024744C52
:1021C00020BCBE4B2DE9F05F04007DD0FF4F20788E
:1021D000FE4D1837DFF8F493103DC00748D0D9F80A
:1021E0000000396800F03800102815D0182803D1F5
:1021F00001F0030002280FD06068B0F5803F12D0D4
:1022000010B1B0F5A02F18D0286820F480302860D5
:10221000286820F4802009E02868800328D56068B9
:102220000028D2D024E0286840F48030286060681C
:1022300088B1FEF7EBFE064609E0286840F48020EE
:102240002860F0E7FEF7E2FE801B64286FD828685C
:102250008003F7D50CE0FEF7D9FE064605E000BF87
:10226000FEF7D4FE801B6428F0D828688003F7D4DA
:10227000207841F20308D54E0C3E800761D5D9F88D
:102280000000396810F038000ED0182801D18807F6
:102290000AD0E06880B3296821F019010143296060
:1022A000FEF7B4FE82462FE02868400702D5E068BA
:1022B00000288AD0E168286820F0190008432860C7
:1022C000FEF7A4FE824607E0D1E000BFFEF79EFEC7
:1022D000A0EB0A000228B9D828684007F6D500BF4D
:1022E000FEF78EFE404513D82069316821F47C3119
:1022F00041EA0030306024E011E000BFFEF786FEC6
:10230000A0EB0A000228A1D828684007F6D5E7E725
:10231000207C316821F0FE4141EA0060EAE728684C
:1023200020F001002860FEF771FE824606E0FFE023
:10233000FEF76CFEA0EB0A00022887D82868400749
:10234000F6D42078C00657D5D9F80000DFF87CB263
:10235000396800F03800ABF1040B082810D01828B9
:1023600003D101F0030001280AD0E06900282868A1
:1023700032D040F080002860FEF748FE824623E01D
:102380002868C00523D5E069802870D11FE000BF10
:1023900094F82000316821F0F84141EA8060306013
:1023A0002AE000BF94F82010DBF8002022F07C52D5
:1023B00042EA0161CBF800101EE000BFFEF726FEE6
:1023C000A0EB0A00022886D82868C005F6D5FEF7DB
:1023D00017FE4045E6D8DBE720F080002860FEF7D6
:1023E00015FE064605E000BFFEF710FE801B022822
:1023F00089D82868C005F7D42078000729D5734804
:102400006169643000298046016811D041F0010102
:102410000160FEF7FBFD064605E000BFFEF7F6FD96
:10242000801B022889D8D8F800008007F6D510E074
:1024300021F001010160FEF7E9FD064605E000BF5D
:10244000FEF7E4FD801B022872D8D8F80000800750
:10245000F6D42078800623D5A0690028286810D0FB
:1024600040F480502860FEF7D1FD064605E0E6E026
:10247000FEF7CCFD801B02285AD828688004F7D5C7
:102480000EE020F480502860FEF7C0FD064604E010
:10249000FEF7BCFD801B02284AD828688004F7D4C8
:1024A000207840074FD5DFF82881D8F8001041F494
:1024B0008071C8F80010FEF7A9FD064605E000BFD0
:1024C000FEF7A4FD801B642832D8D8F80000C005B0
:1024D000F6D53E4EA068603601280AD008B105281E
:1024E00013D0306820F001003060306820F0040024
:1024F00002E0306840F001003060A06841F2883AA4
:1025000090B1FEF783FD80460AE0306840F0040099
:102510003060EEE7FEF77AFDA0EB0801514507D8E1
:1025200030688007F6D50EE0FEF770FD804607E0C4
:1025300084E000BFFEF76AFDA0EB080151457DD89D
:1025400030688007F6D4606AF0B3D9F80010C1F3A0
:10255000C201032973D00228286820F08070286007
:1025600003D0FEF753FD044680E0FEF74FFD06461C
:1025700005E000BFFEF74AFD801B022873D82868DB
:102580008001F7D4E26A40F2F331386854F8283F0A
:10259000884340EA021018433860217B4FF4FE0C58
:1025A00022894FF0FE47208A4902084B521E267DA1
:1025B000A1F5007189B2401EC2F308022033114315
:1025C000761E0CEA004005E053E00000104402587B
:1025D00000480258014307EA0662181F11431960B8
:1025E0001A1D016821F00101016011684FF6F876AB
:1025F000236AB14341EAC30111600168A26921F075
:102600000C01114301600168E26921F002011143EC
:102610000160016841F480310160016841F40031DA
:102620000160016841F480210160016841F001010D
:102630000160286840F08070286001E013E01AE033
:10264000FEF7E4FC044604E0FEF7E0FC001B022871
:1026500009D828688001F7D50BE000BFFEF7D6FC4B
:10266000001B022802D90320BDE8F09F28688001E2
:10267000F4D40020F8E70120F6E700002DE9F04748
:10268000040029D04A4A4FF000092068494B4A4DBE
:102690009042C4F8289006D0984204D0A84202D0B4
:1026A000E1680F2918D8E1684FF0010AE76B08319B
:1026B000C9080AEB57167143904205D0984203D0DF
:1026C000A84201D0082907D8904203D0984201D0EF
:1026D000A84204D1102902D90120BDE8F08794F85E
:1026E000810020B9204684F8809000F067F802202D
:1026F00084F881002068016821F001010160A0696F
:10270000B0F1806F0AD16068B0F5800F06D1A06B80
:1027100020B92068016841F480510160A56AE06930
:102720002368E16B2843E268084310439860D4E9CA
:102730000D02D4E905C1636A25691843D4F82080E5
:102740000A43266810432843A56DD4E90172D4E9F1
:10275000123140EA0C0040EA0800384308431043B5
:1027600018432843F060606868B92068816821F4E4
:10277000C05141F4006181602068816821F4C0612A
:1027800041F4806181602068016D21F001010165E3
:102790006068400206D52068626DC16821F0004182
:1027A0001143C160C4F8849084F881A0002094E7AC
:1027B0000030014000380040003C004070B586B059
:1027C000044614216846FDF72DFE1C492068884206
:1027D00031D11B48016841F480510160006800F468
:1027E0008050059016481038016841F001010160E1
:1027F000016801F001010591016841F002010160E9
:10280000006800240526694600F00200059060205B
:10281000009002250B48CDE90154CDE90346FEF7AF
:10282000E5FA20200090CDE9015407486946CDE93A
:102830000346FEF7DBFA06B070BD00000030014031
:10284000F044025800000258000402582DE9FF4FDE
:1028500083B090F8801004461D4600209346109FD8
:102860000129019014D04FF0010A84F880A0FEF7EE
:10287000CDFB804694F881006368002101282E4634
:102880004FF480020CD0934208D1A36833B903E01F
:10289000022007B0BDE8F08F042801D0022037E005
:1028A000049898B3BBF1000F31D07DB394F8810048
:1028B000042802D0052084F8810089460846C4F81F
:1028C0008410C4F864B0A4F86A50A4F8685004995D
:1028D000E165A4F86250A4F8605020676067206842
:1028E00041686FF30F01294341602068016841F09E
:1028F000010101606068904204D12068016841F4E0
:1029000000710160E0680F282BD846E0FFE7012046
:1029100084F88010BDE72068416989070DD565B14D
:10292000E16D09680162E06D001DE065B4F86200C8
:10293000401EA4F86200B4F8625048F20802206811
:10294000416911420DD066B1006B616E0860606E26
:10295000001D6066B4F86A00401EA4F86A00B4F86E
:102960006A6055EA0600D6D1FEF750FBA0EB0800DE
:10297000B84202D3781C02D1DDE0002F5DD12046A1
:1029800002F088FBD4F8842084F8809042F48070B0
:10299000C4F8840084F881A0E5E007284AD8C7E09D
:1029A0002068416989071BD5D5B1012D0BD9E16B91
:1029B00049B1E16D09680162E06D001DE065B4F8A0
:1029C0006200801E08E0E16D09880184E06D801CD2
:1029D000E065B4F86200401EA4F86200B4F86250EA
:1029E0002068416911F4604F1AD0CEB141690904E1
:1029F00009D5006B616E0860606E001D6066B4F8FA
:102A00006A00801E08E0008E616E0880606E801C87
:102A10006066B4F86A00401EA4F86A00B4F86A6000
:102A2000FEF7F4FAA0EB0800B84202D3781C01D0FC
:102A300004E01FB155EA0600B2D17CE0204602F066
:102A400029FBD4F8842084F8809042F48071C4F883
:102A5000841084F881A086E02068416989072BD51D
:102A600055B3032D0CD9E16B40290BD9E16D0968F1
:102A70000162E06D001DE065B4F86200001F17E020
:102A8000012D0BD9E16B49B1E16D09880184E06D3D
:102A9000801CE065B4F86200801E09E0E16D0978F1
:102AA00080F82010E06D401CE065B4F86200401E24
:102AB000A4F86200B4F862502068416911F4604FD4
:102AC0002BD056B34169090409D5006B616E0860CB
:102AD000606E001D6066B4F86A00001F19E041696D
:102AE00001F4C041B1F5005F09D9008E616E088024
:102AF000606E801C6066B4F86A00801E09E090F881
:102B00003000616E0870606E401C6066B4F86A0048
:102B1000401EA4F86A00B4F86A60FEF777FAA0EBEA
:102B20000800B84202D3781C02D028E7002FFCD05E
:102B300055EA060090D1002243460821204600971E
:102B400002F006FB28B1D4F8840040F02000C4F85D
:102B50008400204602F09EFA84F881A0D4F8840014
:102B600084F8809008B1012093E6019891E67047BF
:102B70007047704770B590F83C20012A24D0134C60
:102B8000012580F83C50022280F83D2002685368FD
:102B9000A242966802D00E4CA24203D14C6823F4A4
:102BA000700323430C6823F0700389681C4354604E
:102BB000002326F0800602683143916080F83D5082
:102BC00080F83C30184670BD022070BD0000014006
:102BD0000004014010B5040003D094F83D0010B18A
:102BE00007E0012010BD002084F83C00204600F0E2
:102BF0000DF8022084F83D002068211D02F0AEFC93
:102C0000012084F83D00002010BD000008B50168D7
:102C1000224881421FD12248016841F00101016030
:102C200000680022052100F0010000901920FEF745
:102C300081FA1920FEF770FA002205211A20FEF70A
:102C400079FA1A20FEF768FA002205211B20FEF708
:102C500071FA1B2014E01348B1F1804F14D0124ACE
:102C6000914219D1016841F004010160006800221D
:102C7000052100F0040000901E20FEF75BFA1E20E4
:102C8000BDE80840FEF748BA016841F00101016063
:102C9000006800F00100009008BD00000000014045
:102CA000F0440258E8440258000800400168094A0C
:102CB000CB6843F00103CB600168886810400628A8
:102CC00006D0B0F5803F03D0086840F001000860EE
:102CD000002070470700010070B5044690F83C00E2
:102CE000012814D0394B012584F83C50022084F887
:102CF0003D0022689068184020F47F40906008688A
:102D0000702828D010DC10F00F0F03D04BE04FF0EC
:102D1000020070BD4FEA2012072A44D2DFE802F019
:102D20005151515149323A00B0F1101F49D009DCDC
:102D3000B0F5805F37D0B0F5005F17D0B0F5801FD9
:102D400031D13EE0A0F5801120393AD0102938D099
:102D5000202928D135E04A682068D1E9021302F021
:102D60006CFC2068816841F0770109E04A682068BE
:102D7000D1E9021302F061FC2068816841F48041CE
:102D8000816010E0CA684968206802F03FFE206850
:102D9000502106E0CA684968206802F048FE2068B1
:102DA000602102F053FC002084F83D5084F83C0080
:102DB00070BDCA684968206802F028FE206840217A
:102DC000EFE7226801461046EBE7000088FFCEFFE0
:102DD000704770B50446006800250169C94389073A
:102DE00015D4C168C943890711D4EA1E02610121C3
:102DF0002177206880698007204602D0FFF7E8FF2E
:102E000004E000F0CFF8204600F07EF92577206836
:102E10000169C943490717D4C168C943490713D495
:102E200002216FF00402026121772068806910F4AA
:102E3000407F204602D0FFF7CBFF04E000F0B2F85D
:102E4000204600F061F9257720680169C943090728
:102E500016D4C168C943090712D404216FF00802CF
:102E6000026121772068C0698007204602D0FFF701
:102E7000AFFF04E000F096F8204600F045F9257712
:102E800020680169C943C90617D4C168C943C90686
:102E900013D408216FF01002026121772068C06905
:102EA00010F4407F204602D0FFF792FF04E000F0CC
:102EB00079F8204600F028F9257720680169C94390
:102EC000C90708D1C168C943C90704D1891E016176
:102ED000204600F0DBF920680169C943090609D4DE
:102EE000C168C943090605D46FF08001016120461D
:102EF000FFF73EFE20680169C943C90509D4C168CE
:102F0000C943090605D46FF4807101612046FFF7BB
:102F10002EFE20680169C943490609D4C168C94326
:102F2000490605D46FF040010161204600F0E3F945
:102F300020680169C94389060BD4C168C943890661
:102F400007D46FF0200101612046BDE87040FFF713
:102F500010BE70BD10B586B0044614216846FDF75A
:102F600061FA0D492068884214D10C48016841F08B
:102F7000080101600068002100F0080005900220AF
:102F800082030092CDE90101CDE9031004486946AE
:102F9000FDF72CFF06B010BD00080040E0440258C9
:102FA000000C0258704770B5044690F83C000D467E
:102FB00001280ED0012684F83C60022084F83D00F0
:102FC0000C2A45D007DC5AB1042A1BD0082A78D134
:102FD0002CE0022070BD102A4ED0142A71D15DE081
:102FE000206802F03DFB2068816941F008018161A1
:102FF0002068816921F00401816120682A69816962
:10300000114311E0206802F07FFB2068816941F4E0
:10301000006181612068816921F48061816120689B
:103020002969826942EA012181614AE0206802F04F
:10303000B7FB2068C16941F00801C1612068C1691E
:1030400021F00401C16120682A69C169114311E0BE
:10305000206802F0EBFB2068C16941F40061C161A6
:103060002068C16921F48061C16120682969C26951
:1030700042EA0121C16124E0206802F00DFC2068D1
:10308000416D41F0080141652068416D21F0040166
:10309000416520682A69416D114311E0206802F002
:1030A00031FC2068416D41F4006141652068416D4B
:1030B00021F48061416520682969426D42EA01215D
:1030C0004165002084F83D6084F83C0070BD10B577
:1030D000040003D094F83D0010B107E0012010BDBA
:1030E000002084F83C00204600F00CF8022084F810
:1030F0003D002068211D02F031FA012084F83D00D6
:10310000002010BD7047000070B5154905460068E5
:10311000884214D10020FDF74BFD124CA068401CE2
:10312000A0602069E0600020FDF76CFC2061024691
:10313000E168814203D1A1680BA001F0F3FB0C4CC4
:103140002868A04202D10120FDF732FD2868A04284
:1031500004D1BDE870400220FDF72ABD70BD00001B
:1031600000080040CC01002025642025640D0A00E1
:103170000000014010B50268044631B1042908D0AE
:10318000082931D00C2908D132E0D06840F0020083
:1031900002E0D06840F00400D0602068012202F014
:1031A0003FFA1548216881420BD01448814208D06B
:1031B0001348814205D01348814202D0124881420F
:1031C00003D1486C40F40040486420680F4A81688D
:1031D0001140062906D0B1F5803F03D0016841F0C7
:1031E00001010160002010BDD06840F00800D3E765
:1031F000D06840F01000CFE700000140000401401B
:103200000040014000440140004801400700010027
:1032100010B500220446006802F002FA41F21112D1
:1032200015482168931081420BD01448814208D080
:103230001348814205D01348814202D0124881428E
:1032400009D1086A104206D1086A184203D1486CB5
:1032500020F4004048642068016A114206D1016AE6
:10326000194203D1016821F001010160012084F8B5
:103270003D00002010BD000000000140000401409E
:1032800000400140004401400048014000680349FB
:10329000884201D1FDF7C0BE704700000004014024
:1032A00070B5044690F83C00012812D0012584F83E
:1032B0003C50022084F83D00204602F059FB0028D3
:1032C0004FF0000007D084F83D5084F83C00012006
:1032D00070BD022070BD2168CA6822F04002CA6039
:1032E0002168CA6822F48042CA6084F83D5084F89C
:1032F0003C00002070BD704730B590F87C1001296B
:1033000018D0012280F87C202421C0F880100022EF
:10331000202450F8601B0B680D6823F0005325F043
:1033200001050D60426050F8601C0B60046202777A
:10333000104630BD022030BD704770B5044690F88D
:103340007C0001281DD0012284F87C202420C4F8B0
:10335000800020680568026822F00102026020688F
:10336000826822F060620A438260204602F072FBAB
:103370002268202100201560C4F8801084F87C00A9
:1033800070BD022070BD70B5044690F87C00012825
:103390001DD0012284F87C202420C4F880002068FD
:1033A0000568026822F0010202602068826822F04B
:1033B00060420A438260204602F04CFB22682021D2
:1033C00000201560C4F8801084F87C0070BD0220D5
:1033D00070BD7047704770472DE9F041036804469F
:1033E000002540F60F06D86919689A68304209D15D
:1033F00086067DD501F0200602F080573E4377D047
:10340000E16E9EE0614E624F16400F4037436FD031
:10341000C70709D0CF0507D501271F62D4F8883028
:1034200043F00103C4F8883083070AD5D30708D0D6
:10343000276802233B62D4F8883043F00403C4F8C1
:10344000883043070AD5D30708D0276804233B6296
:10345000D4F8883043F00203C4F8883003070CD551
:1034600001F02003334308D0266808233362D4F8E0
:10347000883043F00803C4F8883003050BD54B01AE
:1034800009D526684FF400633362D4F8883043F0DE
:103490002003C4F88830D4F88830002B34D080065C
:1034A00009D501F0200002F08051084303D0E16EFD
:1034B00009B1204688472168D4F888008968490600
:1034C00002D410F0280F21D0204602F093FB206890
:1034D0008168490615D5816821F040018160A06F9F
:1034E00078B12C490165A06FFDF780FB002800E052
:1034F00012E009D0A06F016D00E02046BDE8F04168
:1035000008472046FFF767FFBDE8F0812046FFF738
:1035100062FFC4F88850F7E7C60209D5560207D5FE
:103520004FF4801018622046BDE8F041FFF752BF0B
:10353000060609D501F0800602F40002164303D006
:10354000216F0029D9D1DFE742060DD54A060BD5F8
:103550001A682021204622F040021A60C4F8801028
:10356000256700F0E8F8CFE7020206D54A0004D547
:103570002046BDE8F041FFF72CBFC001C4D50029AB
:10358000C2DA2046BDE8F041FFF7D6BE01000010C8
:1035900020010004DF5B000810B5040003D0D4F85C
:1035A000800010B107E0012010BD002084F87C00ED
:1035B000204600F027F82420C4F880002068016825
:1035C00021F001010160204602F028FB0128EBD028
:1035D000A06A10B1204602F06FFA2068416821F419
:1035E000904141602068816821F02A018160206853
:1035F000016841F0010101602046BDE8104002F081
:10360000BFBA000010B586B0044614216846FCF726
:1036100009FF16492068884226D11548016841F4FF
:1036200080210160006800F480200590104808386F
:10363000016841F00801016000680221002200F0E9
:1036400008000590032307244FF440708DE81F0005
:1036500008486946FDF7CAFB002205212720FDF72F
:1036600069FD2720FDF758FD06B010BD0048004059
:10367000E8440258000C02582DE9F8430446D0F8FB
:1036800080001F4616460D46202852D1DDB1D6B126
:1036900094F87C0001284CD0012284F87C20212160
:1036A0004FF00008C4F88880C4F880101834FDF783
:1036B000ADFC814654F8100CA687E687183CB0F59F
:1036C000805F03D004E00120BDE8F883206910B1D9
:1036D0002E46002510E000260EE08021204603F053
:1036E000A5F8B8B9C6B116F8010B21688862B4F81C
:1036F0005600401EA4F85600B4F856004B464FF052
:10370000000200970028E8D14FF04001204603F066
:103710008DF838B10320D7E735F8020B2168C0F3E4
:103720000800E3E72021C4F88010002084F87C80A2
:10373000CAE70220C8E77047FEE700207047002074
:1037400070470000022942F2107201D2022102E009
:10375000914200D911460A4B00EB800203EBC202F2
:10376000118430B1012807D0022808D1084600F0A2
:10377000C3B8084600F090B8084600F0A5B87047F6
:10378000580700200149C860704700005800002019
:1037900001498860704700005800002004F01CBAFE
:1037A00072B6704762B670472DE9F04186B04FF0AF
:1037B00000054FF480464FF0010480B1304A0128E3
:1037C0005AD0022808D180028DE83100694610469F
:1037D000CDF80C40FDF70AFB06B0BDE8F0812948A2
:1037E000016841F004010160016801F004010591E4
:1037F000016841F001010160016801F001010591DA
:10380000016841F00201016000686946DFF87C80D0
:1038100000F0020005901C480096CDE901044046E6
:103820000394FDF7E3FA002205210820FDF782FC4E
:103830000820FDF771FC164F69460096CDE9014559
:1038400038460394FDF7D2FA012231463846FDF797
:10385000D2FB082069468DE831000E480394FDF73D
:10386000C5FA002000F0B4F84FF4805069468DE8A6
:10387000310040460394ADE70096CDE90145A5E748
:1038800000100258E04402580000211100180258AC
:10389000000C02580014025810B50446FEF7F6FB5F
:1038A000A2020849B0FBF2F00A68401ED062C8606C
:1038B0000968400808640C21BDE810400148FFF782
:1038C00059BC00005808002010B50446FEF7DEFB86
:1038D000A2020849B0FBF2F00A68401ED062C8603C
:1038E0000968400848630021BDE810400148FFF71F
:1038F00041BC00009808002010B50446FEF7C6FB46
:10390000A2020849B0FBF2F00A68401ED062C8600B
:1039100009684008C8630821BDE810400148FFF766
:1039200029BC0000D808002070B5174901288AB0CA
:1039300006D0022808D0154C0C261548206007E058
:10394000124C4034002602E0104C803408262160DE
:10395000002540F2FF30C4E90105E56020462561FD
:10396000FFF7B5FB60203246CDE9000569462046E9
:1039700002950495FFF717FB07A9204607950995BF
:10398000FFF7F8F80AB070BD0000014058080020A9
:103990000008004040B101280AD002280CD1074895
:1039A000082100BFFFF734BC04480C218038F9E738
:1039B000024800214038F5E770470000D808002091
:1039C000012202480821FDF716BB0000001402582E
:1039D000002202480821FDF70EBB00000014025827
:1039E00060B10A4B012804D002280DD10A46810299
:1039F00002E00A464FF48041184603E004480A46B4
:103A00004FF48051FDF7F7BA7047000000100258DC
:103A1000001802580D480722F0B40B4E4FF0807387
:103A2000066000215C007504C56181609D00C0E9ED
:103A30000A1201629E1046604162C0E90324C0E997
:103A40000535F0BCFEF71ABE00300140D00700205B
:103A50002DE9F84FDFF84CB04FF4804A16468846FF
:103A60000022814651465846FDF7C5FA00244FF41E
:103A700080570DE00C480123424649460097FEF767
:103A8000E5FE050006D1641C09F1010908F10108F1
:103A9000B442EFD3012251465846FDF7ACFA28460E
:103AA000BDE8F88F000C0258D0070020A82100F0D4
:103AB0007DBBB82100F07ABB2DE9F05F324D8A461C
:103AC000324E4FF0000B06F10C07AB78CAB242F051
:103AD00020095946181A401E00F0FF085C4685F878
:103AE00000B009B1FFF75EFE002009E0321834543F
:103AF0003918D470401C94715472CC708C714C7213
:103B0000A9788842F2D3BAF1030F504619D005DCE8
:103B1000012816D0BAF1020F05D116E0182814D0EA
:103B2000BAF1190F11D006EB0801012481F80690B3
:103B3000FFF736FE287801210028CFD1C4F1030415
:103B400011E0032406F80890F2E706EB08010224CE
:103B500081F80390ECE700BF04EB4400C119304446
:103B600000F0CEFE641C042CF6D307EB0800C178ED
:103B70008279407A090441EA02240443FFF712FEE5
:103B80002046BDE8F09F00005800002040070020BC
:103B90002DE9F0411C4E00241C4D05F10C08B278B3
:103BA0002146101A401EC7B2347009B1FFF7FAFD62
:103BB000002008E02A1808EB00012C54D470401CA7
:103BC0009471CC708C71B1788842F3D3D020E855D1
:103BD000FFF7E6FD307801210028E5D100244646B4
:103BE00004EB44008119284400F08AFE641C032C75
:103BF000F6D3F0198179C07841EA0024FFF7D2FDAD
:103C00002046BDE8F0810000580000204007002059
:103C1000002100F0CBBA00002DE9F05F2B4E90465A
:103C20002B4C8A46B27801F0FF090021101A401E81
:103C3000C8F3072BC7B20025357009B1FFF7B2FDF5
:103C4000002005E021182554401CCD708D714D7267
:103C5000B1788842F6D3BAF1010F504618D0022845
:103C60001ED0032814D0BAF1180F19D0E11901257C
:103C700081F80690E11981F80980FFF791FD30780D
:103C800001210028D7D1124EC5F103050C3616E0EC
:103C90000325E01904F807904FEA1842C27003E0C8
:103CA0000225E01980F8039080F806B0E2E700BF33
:103CB00005EB45008119204400F022FE6D1C042D07
:103CC000F6D3BDE8F05FFFF76DBD0000580000209F
:103CD00040070020154A00EB800030B502EBC00021
:103CE000C28B838B848B058B9B1A2244448B5A4353
:103CF000B2FBF5F3B2FBF4F45A086308D4188C4213
:103D00000FD9428B038B51431A44B1FBF2F2012AC3
:103D100003D9511E02D1012100E00021816002611E
:103D200030BDC91A8260491E016130BD58070020AC
:103D3000810204D5C043401CC0F3150040427047C7
:103D40000249C96801B10847FEE700005800002099
:103D500010B5054CA068002804D00121617080478F
:103D60000020607010BD000058000020034900EBE7
:103D7000800001EBC000008B704700005807002056
:103D800010B50C46FFF798FE0F2C21D006DC012C55
:103D90000DD0032C0BD0092C04D10FE0102C17D020
:103DA000132C10D000EE100AB8EE400A10BDFFF739
:103DB000BFFF00EE100AB8EEC00A10BDBDE810400B
:103DC000C0B200F085BDBDE81040C0B200F05EB9E1
:103DD000BDE81040C0B200F04FBD0000034900EB49
:103DE000800001EBC000008C7047000058070020E5
:103DF000034900EB800001EBC000408B70470000DE
:103E000058070020034900EB800001EBC00090F848
:103E10002400704758070020034900EB800001EBA5
:103E2000C00090F823007047580700204FF48530F9
:103E30007047032110B5FFF73FFEBDE81040FFF7C4
:103E400077BF0000034900EB800001EBC000808BCE
:103E50007047000058070020034900EB800001EB89
:103E6000C000C08B70470000580700200048704712
:103E7000680000200148807870470000580000204A
:103E8000012110B5FFF718FEBDE81040FFF750BF45
:103E9000162110B5FFF710FE00F0070040F00800F3
:103EA000083805280ED2DFE800F0030507090B00EB
:103EB000002010BD012010BD022010BD032010BD48
:103EC000042010BDFE2010BD034900EB800001EB73
:103ED000C00090F82500704758070020002100F02E
:103EE0000DB810B503210446FFF7E6FDFFF720FFEC
:103EF00001462046BDE81040AFF3008070B505468E
:103F00000E4600EB8501174800EBC10494F824002D
:103F1000082802D0284600F027F801212846FFF79C
:103F2000CBFDFFF705FF60606068311A002904DBF4
:103F300061614FF0010105D170BDC1F100004FF08A
:103F4000000160614FF0010084F82200284600F073
:103F50006FFA61692846FFF7BDFE2846BDE870404C
:103F600000F0A0BB580700200D4900EB800210B5FF
:103F700001EBC20494F8251019B1BDE8104000F01F
:103F800011B8FFF707FD082384F82430032200202E
:103F90006FF0004184F822206161208410BD000090
:103FA0005807002010B50446FFF7F4FC2046FFF741
:103FB0007DFD084804EB8401082200EBC1000324C6
:103FC00000216FF0004380F8242080F822404361F4
:103FD000018410BD5807002070B5134C05462079A8
:103FE000FFF7E2FBFFF716FD18B14FF40040FFF7B3
:103FF000A7FE2079FFF798FC2079FFF7E1FC01206C
:10400000FFF7CCFB207965B1294600F0C5F920798E
:10401000FFF74CFD2079FFF7BBFDA088401CA08076
:1040200070BD00F0DFF9F2E7580000202DE9F04103
:1040300006460F46154600EB8601134800EBC10407
:1040400094F82400082802D03046FFF78DFF002D99
:1040500017D00120656184F8220001463046FFF741
:104060002BFDFFF765FE60603946304600F0E0F951
:1040700029463046FFF72EFE3046BDE8F04100F0FD
:1040800011BBBDE8F081000058070020401C00EE85
:10409000100ADFED030AB8EE400A20EE200A70474E
:1040A0000080BB43DFED071A9FED071AF6EE000A0A
:1040B00030EE610A40EE010ABCEEE00A10EE100A92
:1040C000C0B270470080BB430FB82E3B01488088C8
:1040D0007047000058000020192110B5FFF7ECFCD4
:1040E00080B210BDFFF76CBCFFF772BC70B50C4D11
:1040F000002410E02046FFF755FF2046FFF768FC3C
:104100000120FFF74BFB2046FFF75AFC0120FFF789
:1041100045FB641CE4B2A8788442EBD370BD000078
:104120005800002070B504460E4600EB84010B4891
:1041300000EBC10595F82400082802D02046FFF7BF
:1041400013FF3146204600F073F9002085F8220065
:104150002046BDE8704000F0A5BA000058070020D6
:1041600070B50546D1B101291AD002291AD0032908
:104170001AD00C24FFF716FF16212846FFF79CFCE7
:1041800000F0F802284622431621FFF745FD0022E1
:1041900028460121FFF740FD012070BD0824E9E712
:1041A0000924E7E70A24E5E70B24E3E72DE9F041DA
:1041B000134C0025134E8846A2782570121A521E01
:1041C000D0B2371802E00D70FFF7ECFA002002E0E1
:1041D0003118401C4D72A1788842F9D387F80980C4
:1041E000FFF7DEFA207821460028ECD10549153189
:1041F000A1F10C0000F084FBBDE8F041FFF7D2BA5A
:104200005800002040070020002902464FF000001F
:104210000ED002EB8203074A02EBC30292F824306D
:10422000082B03D092F82230002B01D111830120FA
:10423000704700005807002070B50D4606464FF045
:1042400001042DED028BB0EE408AB5EEC08AF1EE8E
:1042500010FA03D2012D01D0032D7AD1092D51D0AE
:1042600008DCFCEEC88A012D2DD0022D09D0032DCB
:104270006FD128E00F2D59D0102D57D0132D68D1B4
:104280004AE0B5EEC08AF1EE10FA17D018EE100A27
:10429000314988425DDC16210020FFF70DFC00F05B
:1042A00007010120C1F10701884000EE100AB8EEB5
:1042B000C00AB4EEC80AF1EE10FA4ADC18EE900A11
:1042C000C0F308023CE018EE100AB0F14A4F40D8A3
:1042D00018EE100A214988423BDCB5EEC08AF1EEA7
:1042E00010FA04DB18EE900AC0F3150228E0B1EED4
:1042F000480ABCEEC00A10EE100AC0F31500C0F563
:1043000080021DE018EE100A1549884221DCB0EE4B
:10431000480A00F0C9FA12E018EE100A1149884262
:1043200017DCB0EE480AFFF7BDFE08E018EE100AF1
:10433000B0F1854F0DDCB0EE480A00F0A7FA024656
:1043400029463046FFF768FCBDEC028B204670BD65
:10435000FFE70024F8E700000080FF43F8FFFF4973
:1043600000007A450080BB45002902464FF000005E
:104370000ED002EB8203074A02EBC30292F824300C
:10438000082B03D092F82230002B01D15183012059
:104390007047000058070020F0B4114F00EB800474
:1043A0000E88002307EBC402032516834E8856832C
:1043B0008E889683CE88D68347F8343053600124A4
:1043C00093600826D36013615361138482F82250EE
:1043D00082F8234082F82460F0BC00F0A7B8000007
:1043E00058070020F0B4114D00EB80034FF4C8666D
:1043F00005EBC301A024002277100C834C838E832D
:10440000CF8345F8332003234A6001248A600825BE
:10441000CA600A614A610A8481F8223081F8234027
:1044200081F82450F0BC00F0CDB8000058070020FF
:10443000064A00EB800302EBC30292F82430082BFB
:1044400003D182F82310FFF7CBBA7047580700203A
:1044500070B50C4605460121FFF72EFBFFF768FCFF
:10446000011B02D4C1F3150204E04842C0F3150059
:10447000C0F580022846BDE870400121FFF7CCBBA3
:10448000002902DBC1F3150204E04942C1F3150122
:10449000C1F580020321FFF7BFBB000010B58B1EE2
:1044A0000246002042F20E74A34211D802EB8203AE
:1044B000084A02EBC302D38B8B4209D892F824300E
:1044C000082B03D092F82230002B01D191830120D8
:1044D00010BD00005807002010B58B1E02460020BA
:1044E00042F20E74A34211D802EB8203084A02EB97
:1044F000C302938B8B4209D392F82430082B03D04C
:1045000092F82230002B01D1D183012010BD000090
:1045100058070020032805D8034900228A808870A4
:1045200001207047002070475800002070B500221D
:104530000C4601210546FFF76FFB002228460221A9
:10454000FFF76AFB002228460321FFF765FB0921DC
:10455000284694ED020AFFF76FFE627D0E21207D52
:1045600002432846FFF758FB0F21284694ED060A20
:10457000FFF762FE1021284694ED070AFFF75CFE64
:104580001321284694ED030AFFF756FEA27C16215C
:10459000E07C02432846FFF73FFBA26A172128462A
:1045A000FFF73AFB94F82420617C207C638C0A435B
:1045B000248C1843024328462243BDE8704018214A
:1045C000FFF72ABB70B5002204460121FFF724FB48
:1045D000002220460221FFF71FFB00222046032174
:1045E000FFF71AFB9FED200A4FF432551CB1012C46
:1045F00001D0022C37D100F057F90921024620469C
:10460000FFF70AFB352220460E21FFF705FBB0EE2F
:10461000080A00F03BF90F2102462046FFF7FCFA9A
:10462000B3EE050A00F032F9102102462046FFF7EA
:10463000F3FA012220461321FFF7EEFA8C222046DE
:104640001621FFF7E9FACF2220461721FFF7E4FAF7
:1046500018212A462046FFF7DFFA2046BDE87040C1
:10466000002100F003B870BD00007A43034A00EB5C
:10467000800002EBC00080F825107047580700202A
:1046800000EB8001064800EBC101002091F82420D6
:10469000082A03D0022281F822200120704700005E
:1046A0005807002070B50446FFF703FA0B4B04EBE4
:1046B0008400002203EBC0018D6815B181F824202D
:1046C00002E0022581F8245043F83020CA60C98BEB
:1046D0002046BDE87040FFF735B8000058070020BD
:1046E0002DE9F05F634B00EB8002614D01244FF038
:1046F00002094FF0030A05EBC2015C700024CB688D
:104700004FF4803B5B1CCB6091F8243023B1022B2B
:104710005FD0032B5CD13FE0CE68D1F808C00B8C92
:104720000F8B91F822803F04B8F1020F08D091F866
:104730002280B8F1000F06D0D1F81080B04502D128
:1047400081F8249042E0B1F81C80984560D991F836
:104750002280B8F1000F01D0664559D04FF0000615
:1047600003B9012355F83280B7FBF3FC5F46C4441C
:1047700006E055F832C001265B1C9BB2ACF5803CCC
:1047800045F832C055F832C0BC45F2D206B38A8B28
:104790009A4264D28B8B62E0888BCB6891F822605E
:1047A000022ECDD091F8226016B10E699E42C7D973
:1047B00091F8223013B90B8C8342C1D891F8223082
:1047C00033B90B8C83424ED281F8244045F83240F5
:1047D00049E0CE680B8C4F8B91F822C03F04BCF1AE
:1047E000020F03D1B1F81EC09C4508D291F822C037
:1047F000BCF1000F06D0D1F814C0B44502D8FFF7C1
:10480000B3FB30E091F822602EB98E8B9E4202D32A
:1048100081F824A027E0CE8B9E4224D24FF00006E0
:1048200003B9012355F83280B7FBF3FC5F46C4445B
:1048300045F832C00AE055F83260012BA6F5803603
:1048400045F8326001D95B1E9BB2012655F832C093
:10485000BC45F0D23EB1CA8B9A4200D9CB8B0B84B7
:10486000098CFEF76FFF03484470BDE8F09F00001D
:104870005807002058000020401C00EE100AF6EEF9
:10488000000AB8EE400A20EE200A7047F6EE000A51
:10489000B0EE001A30EE600A40EE010ABCEEE00A0B
:1048A00010EE100AC0B27047DFED071A9FED071A2D
:1048B000F6EE000A30EE610A40EE010ABCEEE00AB4
:1048C00010EE100AC0B270470000FA416F12033DAB
:1048D000401C00EE100ADFED030AB8EE400A20EE9D
:1048E000200A70470000FA4110B5044602E001209A
:1048F00003F072F92046FFF785FA0828F7D110BDBA
:1049000010B5074CA278FFF7A3F818B148F20100E0
:10491000FFF716FA6078002801D00120207010BD42
:10492000580000200FB45A2100B597B019AB684663
:10493000189A01F0E9FF054800231A4669464068C5
:1049400003F0EAFA17B05DF814FB00000C00002039
:104950002DE9F04F87B014216846FBF763FD7C48D2
:10496000016841F004010160016801F00401059152
:10497000016841F020010160016801F0200105910A
:10498000016841F001010160016801F00101059138
:10499000016841F002010160016801F00201059126
:1049A000016841F040010160016801F0400105919A
:1049B000016841F010010160016801F010010591EA
:1049C000016841F00801016000680122614E082180
:1049D00000F0080005903046FCF70DFB44F2010A98
:1049E0005D4801225146FCF706FB5C4800224FF46B
:1049F0009041FCF700FB4FF4884B59480022594680
:104A0000FCF7F9FA574800224FF48051FCF7F3FA0B
:104A1000524801220221FCF7EEFA0024DFF8489107
:104A20004FF40058CDF8008050486946CDE9019414
:104A3000FCF7DCF90820009001256946CDE9015416
:104A400030460394FCF7D2F9322000900B274748F8
:104A500002266946CDE90164CDE90347FCF7C6F9B2
:104A600086200090CDE9016441486946CDE90347BD
:104A7000FCF7BCF9CDF800A06946CDE901543648F1
:104A80000394FCF7B3F981206946CDE90009354864
:104A90000294FCF7ABF94FF408506946CDE90004E5
:104AA0002E480294FCF7A2F944F602000090CDE9EA
:104AB00001542A4869460394FCF798F9CDF8008020
:104AC0006946CDE901642448CDE90347FCF78EF936
:104AD000CDF800B06946CDE9015421480394FCF7B4
:104AE00085F94FF420500090CDE901641D486946D6
:104AF000CDE90347FCF77AF928030090CDE901548A
:104B0000184869460394FCF771F91A49A8038DE81F
:104B1000130014486946FCF769F9002205210620B4
:104B2000FCF708FB0620FCF7F7FA00220521172006
:104B3000FCF700FB1720FCF7EFFA002205212820E4
:104B4000FCF7F8FA2820FCF7E7FA07B0BDE8F08F89
:104B5000E0440258001402580004025800100258A1
:104B6000000C0258001802580000111100080258E9
:104B70000000025800002111F0B4124807224FF43F
:104B800080050F4E00212C01C0E90212016173045F
:104B9000C0E90514C0E90731416222018162C162A6
:104BA000C0E90D21C163016441648164C164016590
:104BB00041658165C0E90065F0BCFDF75FBD00009F
:104BC00000300140D802002010B588B013480024FE
:104BD000114940F2FF3240F2D31305940694039436
:104BE000049400940194029480E81600C0E9033410
:104BF00044618461FDF7EEFF4FF480500390074855
:104C000003A9FEF769F805486946009401940294E7
:104C1000FDF7B0FF08B010BD0000014060030020A8
:104C200010B58CB0002468461421059406940794AE
:104C30000894FBF7F7FB13484FF0804109940A945E
:104C40000B94C0E900148460C46004618461FDF7C2
:104C5000C1FF4FF4805005900A4805A9FEF73CF8C3
:104C60004FF480110620CDE9000106486946FEF7A1
:104C700017FB044809A909940B94FDF77BFF0CB0BE
:104C800010BD0000A003002010B58EB000241C2130
:104C9000009407A801940294039404940594069444
:104CA000FBF7C0FB15481449C0E900148460C460D8
:104CB00004618461FDF78EFF4FF4805000900F482F
:104CC0006946FEF709F80D48FEF701FA0B4804A9FA
:104CD00004940694FDF74EFF6020CDE907040748D1
:104CE0000C2207A909940B94FEF75DF90348FEF71F
:104CF00031F90EB010BD000000080040E0030020B4
:104D00001148002110B50F4C0C224FF4E133046020
:104D1000C0E90131C160C0E904128161C161016271
:104D200041628162FEF738FC07480021FEF72BFB49
:104D300005480021FEF701FBBDE810400248FEF7E0
:104D4000DBBA00000048004020040020FEE700001D
:104D50000A4C98B000226946606803F03BF948B1FC
:104D60006846FBF76AFB82B2054850236946FEF7A6
:104D700083FCEFE7142002F02FFFEBE70C0000208C
:104D8000200400201CB500225021642003F056F8B6
:104D9000054B06221946486004A1CDE900230748C7
:104DA000802203F0F1F91CBD0C0000204D657373E7
:104DB00061676554785461736B000000514D0008C1
:104DC000002010B5FBF7F2FD0446C00702D00FA08B
:104DD000FFF7A8FD200602D50FA0FFF7A3FDE00511
:104DE00002D510A0FFF79EFDA00502D410A0FFF78A
:104DF00099FD600502D410A0FFF794FDE00404D4EF
:104E0000BDE810400FA0FFF78DBD10BD48692D5AB9
:104E1000204D6F64650D0A0042616420434D440DCE
:104E20000A000000434D4420444E450D0A00000096
:104E300055564C4F0D0A000054485F57524E0D0A0C
:104E4000000000004F43440D0A000000704700209E
:104E5000704700002DE9F047454D044689464FF064
:104E6000000A2868C04380070AD0414E283E3068B7
:104E700020F080603060FCF7C9F80746B04608E0D3
:104E80000120BDE8F08700BFFCF7C0F8C01B022876
:104E900067D8D8F800000001F6D4206829684FF4DC
:104EA000FE0721F47C313E0241EA00302860207A7E
:104EB000A389B4F804C040022D4D2D495B1E227C0D
:104EC000ACF1010C1035091DA0F5007080B2521E26
:104ED000CCF3080C07EA034340EA0C00184306EA47
:104EE0000262104328600868626920F0C000104325
:104EF00008600A68A06922F0200202430A60281DA7
:104F00000A6822F010020A6002684FF6F873E4693A
:104F10009A4342EAC40202600868B9F1000F40F007
:104F200010020A6011D00868B9F1010F11D040F4E5
:104F300000100860D8F80000444640F08060C8F8CF
:104F40000000FCF763F805460DE0086840F4002017
:104F5000EFE740F48010ECE7FCF758F8401B02281C
:104F600001D903208DE720680001F5D5504688E778
:104F7000284402582DE9F047454D044689464FF034
:104F8000000A2868C04380070AD0414E283E306896
:104F900020F080503060FCF739F80746B04608E052
:104FA0000120BDE8F08700BFFCF730F8C01B0228E5
:104FB00067D8D8F800008000F6D4208829684FF41C
:104FC000FE0721F07C713E0241EA00502860207A01
:104FD000A389B4F804C040022D4D2D495B1E227CEC
:104FE000ACF1010C1835091DA0F5007080B2521EFD
:104FF000CCF3080C07EA034340EA0C00184306EA26
:105000000262104328600868626920F4406010431F
:1050100008600A68A06922F4007202430A60281D31
:105020000A6822F480720A6002684FF6F873E46935
:105030009A4342EAC40202600868B9F1000F40F4E2
:1050400080720A6011D00868B9F1010F11D040F0E8
:1050500080700860D8F80000444640F08050C8F8DE
:105060000000FBF7D3FF05460DE0086840F4800020
:10507000EFE740F40000ECE7FBF7C8FF401B022815
:1050800001D903208DE720688000F5D5504688E7D8
:105090002844025810B5026840F26F335169946990
:1050A00044F0080494610268946944F01004946127
:1050B0000268146824F001041460026814699C43B7
:1050C00014610268936823F44043936090F8812050
:1050D000042A0CD08A060AD5D0F8842042F0800237
:1050E000C0F884200268936943F02003936190F82C
:1050F0008120032A0CD04A060AD5D0F8842042F039
:105100000402C0F884200268936943F0400393616D
:105110008A050AD5D0F8842042F00102C0F8842024
:105120000268936943F400739361C9050AD5D0F806
:10513000841041F00801C0F8841001688A6942F4C3
:1051400080728A610021A0F86210A0F86A1010BD78
:105150002DE9F041984616460D460746069C09E0A3
:10516000FBF754FFA0EB0800A04202D3601C01D063
:105170000BE054B13868406935EA000007D00020E0
:10518000B042EDD00020BDE8F0810320FBE7012014
:10519000F6E7012002F03BF9FBE7000048A008B564
:1051A000FFF7C0FB41F64A1403212046FBF7B0FC91
:1051B00049480821FEF72CF8012002F00DFD0020DF
:1051C000FBF75CFC0120FBF759FC0220FBF756FCC7
:1051D000012002F001FD0020FBF742FC0120FBF75B
:1051E0003FFC0220FBF73CFC012002F0F5FC002014
:1051F000FBF744FC0120FBF741FC0220FBF73EFCDF
:10520000012002F0E9FC0020FBF72AFC0120FBF75B
:1052100027FC0220FBF724FC012002F0DDFC2FA07C
:10522000FFF780FB32492046FBF700FC304920465F
:10523000FBF7FCFB2E492046FBF7F8FB2DA0FFF700
:1052400071FB3248FBF7A6FB31A0FFF76BFB36483A
:10525000FBF794FB35A0FFF765FB0A20ADF80000D3
:1052600005210020FBF740FC00204FF4FA61FBF71A
:1052700027FC00204FF47A61FBF70EFC3248002532
:105280001B4C4FF4C876143C0560E06888B1E560BB
:10529000206990B100203246002120610846FBF7CA
:1052A000D3FB012132460846FBF7CEFB012002F07A
:1052B00093FC642002F090FCE7E70120EBE700009C
:1052C0005374617274206F662053746570706572D8
:1052D000205461736B000000600300204E756D2048
:1052E00044657669636573205365740D0A00000098
:1052F000280000204D6F746F7220436F6E74726FC0
:105300006C20496E697427640D0A0000C14D0008C5
:10531000466C61672048616E646C657220417474EC
:1053200061636865640D0A00915300084572726FED
:10533000722048616E646C657220417474616368A8
:1053400065640D0A00000000DC01002010B50D4A64
:1053500000EB400186B002EBC104024620600A481F
:10536000816802A801F0BCFA211D234606204FF4F3
:105370008062CDE90001054802A902F005FF06B0F0
:1053800010BD000090020020140000209D51000874
:1053900001490880FEE7000014000020002070474B
:1053A00000207047502010B580F31188BFF34F8F55
:1053B000BFF36F8F02F04EFF18B104494FF08050D9
:1053C0000860002080F3118810BD000004ED00E0AB
:1053D00030B5CBB04C212FA8FBF724F8202142A8F0
:1053E000FBF720F8BC216846FBF71CF80220FBF70E
:1053F000D3FE224800242249026842F4404202605F
:1054000002680A6842F001020A60096801F00101BD
:105410004A9101688904FCD502202F902021339104
:105420000125329504223A923C23CDE93804CDE996
:105430003B300C253D903E902FA8CDE93F54419440
:10544000FCF7C0FE402008230501CDE9453042AB02
:10545000CDE9470549903F21032283E81600042146
:1054600042A8FCF789FC41F2020017941D940090B9
:105470006846FCF725F84BB030BD000018480258CC
:105480002C040058214A30B5214914680020204BD3
:1054900044F47004146010330A681E4D42F0010297
:1054A0000A6018600A681A4B2A400A6018331C1DEB
:1054B000251D174A186028322060131D28601C1D06
:1054C000251D10602A1D1860131D20601C1D2860FA
:1054D000251D10601860206028600A680C4B0E4C77
:1054E00022F4802260330A60186020686FF30F0096
:1054F000B0F1005F03D209490120C1F808014FF063
:10550000006002498039086030BD000088ED00E08D
:10551000004402587FEDF6EA0010005C0080005164
:105520000148FDF756BC0000600300200148FDF76C
:1055300050BC0000600300200148FDF74ABC000099
:10554000600300200148FDF744BC0000E003002098
:105550000148FDF73EBC0000000700202DE9F047A0
:10556000274B4FF0804A274D02689842264E274F1E
:10557000274C09D0504507D0A84205D0B04203D0EF
:10558000B84201D0A04205D1D1F804C022F0700287
:105590004CEA0202DFF87CC0DFF87C809842DFF83A
:1055A0007C900FD050450DD0A8420BD0B04209D00E
:1055B000B84207D0A04205D0604503D0404501D095
:1055C000484503D1CD6822F440722A434D6922F048
:1055D00080022A43026098428A68C2620A68826234
:1055E00007D0A04205D0604503D0404501D04845D2
:1055F00001D10969016301214161BDE8F087000023
:10560000000001400004004000080040000C004081
:1056100000040140004001400044014000480140B6
:1056200010B5046A012301F01F018B409C43046202
:105630008A40016A1143016210BD42EA0322836875
:105640000A4323F47F410A4382607047034B826818
:105650001A400A4342F00701816070478FFFCFFF75
:105660002DE9F04F026ADFF88880DFF8889022F099
:105670000102DFF884A0DFF884B0214F0262DFF876
:1056800084C0066A4268836926F002060D68B84243
:105690008C6803EA0C0323F0030344EA060445EA9A
:1056A000030507D0404505D0484503D0504501D0FB
:1056B000584505D1CB6824F00804234323F00404A3
:1056C000B84207D0404505D0484503D0504501D0E9
:1056D000584505D122F44076D1E9053233431A43C7
:1056E00042608561496841630462BDE8F08F000053
:1056F00000040140004001400044014000480140D6
:10570000000001408FFFFEFFF0B5026A1E4E1F4CE5
:1057100022F01002DFF878E00262056A43688269CD
:1057200025F02005D1F808C0A0420F6802EA060261
:1057300022F4407245EA0C1542EA072201D0704576
:1057400006D1CE6825F0800545EA061525F040050E
:10575000A0420AD0704508D00E4CA04205D00E4C95
:10576000A04202D00D4CA04207D1D1E9054623F456
:10577000406343EA840343EA8603436082614968E5
:1057800081630562F0BD0000FF8FFFFE0000014055
:105790000004014000400140004401400048014035
:1057A000F0B5026A1C4D1D4E22F48072A8420262BE
:1057B000026A4368C76922F40072D1F808C00C6815
:1057C00027F0730742EA0C2244EA070401D0B042F2
:1057D00006D1CF6822F4006242EA072222F48062F6
:1057E000A8420AD0B04208D00D4DA84205D00D4DB8
:1057F000A84202D00C4DA84207D1D1E9055623F4A6
:10580000405343EA051343EA06134360C461496801
:10581000C1630262F0BD00000000014000040140CD
:1058200000400140004401400048014070B5026A58
:10583000144B22F4805202629842036A4268C4699F
:1058400023F400538E680D6824F4E64443EA0633DB
:1058500044EA05240BD00C4DA84208D00B4DA842B9
:1058600005D00B4DA84202D00A4DA84204D14D6983
:1058700022F4804242EA85124260C46149680164B0
:10588000036270BD0000014000040140004001407F
:105890000044014000480140F0B5026A22F4803221
:1058A0000262134F056A4268446D25F400350E8983
:1058B000B8420B6824F0700445EA064543EA040345
:1058C0000BD00C4CA04208D00B4CA04205D00B4C86
:1058D000A04202D00A4CA04204D14C6922F480328A
:1058E00042EA042242604365496881650562F0BD71
:1058F000000001400004014000400140004401401C
:1059000000480140F0B5026A22F480120262134F8F
:10591000046A4268436D24F400140E89B8420D688D
:1059200023F4E04344EA065443EA05230BD00C4D2C
:10593000A84208D00B4DA84205D00B4DA84202D07A
:105940000A4DA84204D14D6922F4003242EA852270
:10595000426043654968C1650462F0BD00000140D2
:105960000004014000400140004401400048014063
:105970002DE9F0410568D1E90032214F214EAC6894
:105980003C40224332401343AB604A68602A30D027
:1059900006DC302A32DD402A0ED0502A2ED122E0F9
:1059A000194B9A422ADA702A28D18A680068D1E90C
:1059B0000313FFF742FE21E00A68052A10D00268AF
:1059C000136A146A24F00104146202680C69916974
:1059D00021F0F00141EA04119161006803620DE0D9
:1059E0000120BDE8F0810A690068896800F00EF8BE
:1059F00004E00A690068896800F019F80020F0E7FF
:105A00008FFFCFFFF8FFFEFF2000100010B5036AE4
:105A1000046A23F00A0324F00104046284690B433E
:105A200024F0F00141EA02118161036210BD10B55A
:105A3000036A23F0100303628369046A23F470434A
:105A400024F0A00443EA0232826144EA01110162B7
:105A500010BD00003FB514A1D1E9002314A1CDE988
:105A60000023D1E90021CDE90221416EB9B10168DD
:105A700002AC8A688968C2F34262490F1DF801507E
:105A8000615CED00B5FBF1F1A0F86A101DF80210A1
:105A9000A25CC900B1FBF2F1A0F868103FBD012182
:105AA000A0F86A10F8E700000101010307010000F7
:105AB000080402040801010190F82810C90706D063
:105AC0000168C36A4A6822F400321A434A6090F8B7
:105AD0002810890706D50168036B4A6822F48032D2
