:020000040800F2
:10000000080901206D03000839300008C12C0008E0
:10001000592F0008270900085D440008000000006F
:10002000000000000000000000000000AD02000819
:1000300029090008000000000903000885320008B3
:100040008703000887030008870300088703000868
:100050008703000887030008870300088703000858
:100060008703000887030008870300088703000848
:100070008703000887030008870300088703000838
:100080008703000887030008870300088703000828
:100090008703000887030008870300083309000866
:1000A00087030008F9330008870300088703000866
:1000B00087030008870300088703000887030008F8
:1000C00087030008870300088703000887030008E8
:1000D00087030008870300088703000851440008CD
:1000E0002B090008870300080000000087030008B0
:1000F00087030008870300088703000887030008B8
:1001000087030008870300088703000887030008A7
:100110008703000887030008870300088703000897
:100120008703000887030008870300088703000887
:100130008703000887030008870300088703000877
:1001400000000000000000000000000000000000AF
:100150008703000887030008870300088703000857
:100160008703000887030008870300088703000847
:1001700087030008870300088703000800000000C9
:100180008703000887030008870300088703000827
:100190008703000887030008870300088703000817
:1001A0008703000887030008870300088703000807
:1001B00087030008870300088703000887030008F7
:1001C00087030008870300088703000887030008E7
:1001D00087030008870300088703000887030008D7
:1001E00087030008870300088703000887030008C7
:1001F00087030008870300088703000887030008B7
:1002000087030008870300088703000887030008A6
:100210008703000887030008870300088703000896
:100220008703000887030008870300080000000018
:100230008703000887030008000000008703000808
:100240008703000887030008870300088703000866
:100250008703000887030008870300088703000856
:100260008703000887030008870300088703000846
:1002700087030008870300088703000800000000C8
:1002800087030008870300088703000800000000B8
:100290000000000087030008DFF80CD000F0C2FA6D
:1002A00000480047714E0008080901202C4B1968CE
:1002B0000868B0E8F04F80F30988BFF36F8F4FF004
:1002C000000080F3118870470000000008480068B3
:1002D000006880F308884FF0000080F3148862B64D
:1002E00061B6BFF34F8FBFF36F8F00DF00BF00BF5A
:1002F00008ED00E0DFF80C00016841F470010160D6
:10030000704700BF88ED00E0EFF30980BFF36F8F07
:10031000134B1A681EF0100F08BF20ED108A20E959
:10032000F04F106009B44FF0500080F31188BFF314
:100330004F8FBFF36F8F05F061FA4FF0000080F32D
:10034000118809BC19680868B0E8F04F1EF0100F5A
:1003500008BFB0EC108A80F30988BFF36F8F704735
:1003600030000020EFF3058070470000064880470A
:1003700006480047FEE7FEE7FEE7FEE7FEE7FEE78A
:10038000FEE7FEE7FEE7FEE75D330008990200089E
:100390002DE9F05F0546002092469B4688460646BA
:1003A000814640241BE0284641464746224600F04D
:1003B00070F853465A46C01A914110D31146184658
:1003C000224600F057F82D1A67EB01084F462246E7
:1003D0000120002100F04EF817EB00094E41201ECD
:1003E000A4F10104DFDC484631462A464346BDE815
:1003F000F09F40EA01039B0703D009E008C9121FE0
:1004000008C0042AFAD203E011F8013B00F8013BCE
:10041000521EF9D27047D2B201E000F8012B491EFA
:10042000FBD270470022F6E710B513460A46044691
:100430001946FFF7F0FF204610BD421C10F8011BC3
:100440000029FBD1801A704730B50B4601460020C9
:100450002022012409E021FA02F59D4205D303FA86
:1004600002F5491B04FA02F52844151EA2F1010207
:10047000F1DC30BD202A04DB203A00FA02F1002032
:1004800070479140C2F1200320FA03F319439040D2
:100490007047202A04DB203A21FA02F0002170473D
:1004A00021FA02F3D040C2F12002914008431946DC
:1004B00070472DE9FE4F804681EA0300C00F0C46CD
:1004C000009021F0004123F00045B8EB0200A94163
:1004D00005D24046214690461C460B46024623F074
:1004E0000040104347D0270DC7F30A00C3F30A5159
:1004F0000290401A019040286BDAC3F3130040F4D5
:10050000801B0098924620B10023D2EB030A63EBD4
:100510000B0B01985946C0F140025046FFF7AAFF65
:1005200006460D4650465946019A00F08DF910EBEB
:1005300008006141002487EA115284EAE7731A43F4
:1005400040D0009A62B3019A012A4FEA075215DCA3
:10055000001B61EB02014FF0004202EA0752CDE9B5
:100560000042001C41F5801132462B4600F08DF907
:1005700003B0BDE8F08F40462146F9E7001B61EB70
:100580000201001C41F5801300185B412018A2F500
:10059000001747EB030140EAD570B6196D4111E031
:1005A0006D084FEA360645EAC0754FEA0752001B50
:1005B00061EB0201001C41F5801149084FEA30004F
:1005C0000019514132462B4603B0BDE8F04F00F010
:1005D0004DB90098012240000023D0EB020263EBEA
:1005E000E073009821464FEAE074B8EB000061EB3D
:1005F0000401E9E783F000435BE781F0004158E73D
:100600002DE9FE4F81EA030404F0004421F000418B
:1006100000944FF0000B23F0004350EA01045ED039
:1006200052EA03045BD0C3F30A54C1F30A552C44C5
:10063000A4F2F3340194A0FB0254C1F3130141F47A
:100640008011C3F3130343F4801301FB024400FB46
:10065000034E840A970A44EA815447EA8357A4FB6D
:10066000076802958D0A05FB07854FEA932C04FB6A
:100670000C542705029D4FEA065847EA1637B5EB9A
:1006800008056EEB070C870E920E47EA811742EAC7
:100690008312A7FB0201B6EB0B0164EB00042B0DE8
:1006A00043EA0C335E1844EB1C50DA465146E7FB34
:1006B0000201C5F313044FEA0B3343EA14534FEA24
:1006C0000432019C43EA0603A4F10C040294009C4A
:1006D000CDE900B400F0D9F803B0BDE8F08F0020F8
:1006E0000146F9E72DE9F04D81EA030404F0004BDF
:1006F00021F0004514464FF0000A23F0004150EA73
:10070000050220D054EA01021DD0C5F30A57024663
:10071000C5F31303C1F31300C1F30A5640F4801567
:1007200043F48013A7EB0608101BD64608F2FD38E9
:1007300073EB050002D308F1010801E092185B4158
:10074000B8F1000F03DA00200146BDE8F08D00206B
:100750004FF48011064684460EE0171B73EB050725
:1007600005D3121B63EB050306434CEA010C490851
:100770004FEA300092185B4150EA0107EDD152EA8E
:10078000030012D082EA040083EA0501084305D081
:10079000101BAB4106D20122002306E000224FF0DD
:1007A000004302E06FF0010253101AEB06004CEB1D
:1007B000085110EB0A0041EB0B01BDE8F04D00F0D1
:1007C00055B8C1F30A52C1F3130140F2FF3341F4AB
:1007D00080119A4202DA00200146704740F233430A
:1007E0009A42A2F2334202DC5242FFF752BEFFF7B6
:1007F00041BE000030B5041E71F1000404DB4FF06F
:100800000044404264EB0101141E73F1000405DB57
:100810001C464FF00043524263EB0403994208BF69
:10082000904230BD064C074D06E0E06840F0010301
:1008300094E8070098471034AC42F6D3FFF730FD38
:10084000F460000814610008202A06DBCB17203A68
:1008500041FA02F043EAE07306E041FA02F3D040C5
:10086000C2F12002914008431946704710B5141E8A
:1008700073F1000408DA401C41F1000192185B4159
:100880001A4301D120F0010010BD2DE9F04D924630
:100890009B4611B1B1FA81F202E0B0FA80F2203247
:1008A0009046FFF7E7FD04460F4640EA0A0041EA9A
:1008B0000B0153465A46084313D0114653EA010030
:1008C00019D0C8F140025046FFF7E3FD05460E4639
:1008D000504659464246FFF7CDFD084305D001205A
:1008E00004E020463946BDE8F08D0020054346EA85
:1008F000E0762C4337430A986305E40AA0EB08002E
:100900000022FD0A44EA47540A3002D5002001467D
:10091000E9E7010510196941DDE908450019694158
:10092000BDE8F04DA2E7FEE770474FF4005000F03D
:10093000EAB8802000F0E7B82DE9F05F28B190F820
:100940003510022904D0802141650120BDE8F09FC7
:10095000634A634B624F183201683033614C624D19
:10096000B942DFF888A1DFF88891DFF888B1DFF8B5
:100970008881DFF888E1624E32D0914230D09942CE
:100980002ED0A1422CD0A9422AD0514528D0494589
:1009900026D0594524D0C446614521D0DFF858C13E
:1009A0000CF1180C61451BD0DFF84CC10CF1300C78
:1009B000614515D0DFF844C1ACF1300C61450FD072
:1009C000DFF838C1ACF1180C614509D0714507D08A
:1009D000DFF828C10CF1180C614501D0B1422ED1CD
:1009E0004FF0040C80F835C0B94223D0914221D099
:1009F00099421FD0A1421DD0A9421BD0514519D008
:100A0000494517D0594515D0414513D03A481830BB
:100A100081420FD03848303081420BD037483038CF
:100A2000814207D035481838814203D0714501D042
:100A300032481830086820F0010008604DE0D1F815
:100A4000008028F00E08C1F800800168B9421ED06D
:100A500091421CD099421AD0A14218D0A94216D076
:100A6000514514D0494512D0594510D0224A9142DF
:100A70000DD0214A1832914209D01F4A303291429A
:100A800005D01E4A303A914201D01C4A183A0A68F1
:100A900022F001020A60026E0121136823F48073C0
:100AA000136090F85C30826D03F01F0301FA03F3CA
:100AB0005360D0E919235360C26E32B1136823F436
:100AC00080731360D0E91C2353600023026D80F80B
:100AD000343080F8351002B19047002036E700002E
:100AE000100002405800024070000240880002409E
:100AF000A0000240B80002401004024088040240F6
:100B0000B804024070474FF0B04110B5D1F88820CA
:100B1000024203D0C1F88800FFF7F4FF10BD0000C7
:100B20002DE9F84F714C00234FF0B04E4FF0010902
:100B30004FF0030B4FF00F0AD0E000BF09FA03F8A3
:100B400012EA080274D04D68022D01D0122D0FD187
:100B5000DD085F0700EB850500950E692D6AFF0E25
:100B60000AFA07FCBE4025EA0C052E43009D2E62C2
:100B70005D000F7906680BFA05FC07F0030726EA0B
:100B80000C06AF40374307604E68012E05D0022E99
:100B900003D0112E01D0122E0FD18668CF6826EA1D
:100BA0000C06AF403743876046680F7926EA08068F
:100BB000C7F300179F4037434760C6688F6826EA2F
:100BC0000C06AF403743C7604D68ED0030D5484D47
:100BD0002E6846F002062E602D6823F0030606F10B
:100BE000B04605F0020500959D072F0FD6F8085472
:100BF000DFF800810AFA07FC404525EA0C0502D11E
:100C00004FF0000C41E0DFF8F0C0604502D14FF03A
:100C1000010C3AE0DFF8E4C0604502D14FF0020C6D
:100C200033E0DFF8DCC0604503D14FF0030C2CE06B
:100C300053E0DFF8D0C0604502D14FF0040C24E04F
:100C4000DFF8C4C0604502D14FF0050C1DE0DFF8AD
:100C5000BCC0604502D14FF0060C16E0DFF8B0C012
:100C6000604502D14FF0070C0FE0DFF8A8C06045E7
:100C700002D14FF0080C08E0DFF89CC0604502D1BB
:100C80004FF0090C01E04FF00A0C0CFA07FC4CEA9B
:100C9000050CC6F808C425684E6825EA0205F60367
:100CA00000D51543256065684E6825EA0205B60340
:100CB00000D5154365604F687546DEF80060FF0299
:100CC00026EA020600D516432E604F686E68BF0202
:100CD00026EA020600D516436E605B1C0A6832FAEB
:100CE00003F57FF42BAFBDE8F88F000080000058BB
:100CF000F444025800000258000402580008025848
:100D0000000C025800100258001402580018025833
:100D1000001C02580020025800240258426931EA9F
:100D2000020200D10904816170470AB181617047F4
:100D30000904FBE701480068000C70470010005CE4
:100D400001488068704700001C000020024881684C
:100D500002781144816070471C000020032010B508
:100D600000F0A2F801F02CF80E490F4A0F4B0C6866
:100D7000C4F30324145D04F01F04E0401860096804
:100D800001F00F01515C01F01F01C84008490860E3
:100D9000002000F00FF808B1012010BD00F044F869
:100DA000002010BD18440258C4600008280000202C
:100DB0002C00002010B50022014619208AB000F056
:100DC00053F8192000F042F81348016841F001017E
:100DD0000160006808A900F001000990684600F071
:100DE00087FF00F0DBFF0D49400000220C4CB0FBF8
:100DF000F1F10C4840F2E7330460C0E90332491EC8
:100E0000C0E9011201F006FB10B101200AB010BDCB
:100E1000044801F02DFBF9E7F044025840420F006E
:100E200000000140D8030020074882B0016841F06B
:100E300002010160006800220F2100F00200009012
:100E4000901E02B000F010B8F4440258002809DBEC
:100E5000410900F01F028900012001F1E0219040CA
:100E6000C1F80001704700000E4BF0B41B680D463E
:100E7000C3F30223C3F10706042E00D90426191D6B
:100E8000072901D2002300E0DB1E012404FA06F149
:100E90009C40491E2940641E994014402143F0BCE7
:100EA00003F008BB0CED00E0064900F0070210B5A6
:100EB0004FF6FF040868044B204040EA0220184324
:100EC000086010BD0CED00E00000FA05124970B595
:100ED0000A68520706D40A6802F00702824201D06B
:100EE000012070BD0A6822F0070202430A60FFF782
:100EF00027FF094D4FF47A760446083D07E000BF0E
:100F0000FFF71EFF001BB04201D9032070BD286807
:100F10008004F5D5002070BD0C48025810B500F0D3
:100F20004FFF064A06491268064BC2F303229A5C39
:100F300002F01F02D040086010BD000018440258A3
:100F400028000020C460000810B500F0FFFE05492D
:100F50000968054AC1F30211515C01F01F01C84044
:100F600010BD000020440258C4600008494930B553
:100F7000484C0B1D0A68143409681D68246802F087
:100F8000030305F01002C1F30531C4F3CC040029BA
:100F900014FB02F200EE102AF8EE400A75D03F4A28
:100FA0009FED3D1AB7EE000A6BB1DFED3D1A012B44
:100FB00001D0022B64D002EE101A1168F8EE422A1A
:100FC00081EEA22A21E0334C283C23689B0612D5EF
:100FD000344B246801EE901A1168C4F3C104F8EE92
:100FE000612AE34001EE903AC1F30801F8EE611A7C
:100FF00081EEA22A0BE001EE901ADFED2B2A00BF52
:10100000F8EE611A116882EEA12AC1F3080101EE1F
:10101000901A1168F8EE611A40EE811A71EE800A9A
:1010200062EE200AC1F3462101EE101AB8EE411A11
:1010300031EE001AC0EE811ABCEEE11A80ED001A02
:101040001168C1F3064101EE101AB8EE411A31EEF3
:10105000001AC0EE811ABCEEE11A80ED011A116887
:10106000C1F3066101EE101AB8EE411A31EE000A22
:1010700080EE801ABCEEC10A80ED020A30BD04E0A9
:1010800001EE901ADFED092ABAE700210160416004
:101090008160F3E7284402580000003938440258C0
:1010A0000024744A0090D0030024744C20BCBE4B32
:1010B000494930B5484C0B1D0A681C3409681D6845
:1010C000246802F0030305F48072C1F30551C4F3F0
:1010D000CC04002914FB02F200EE102AF8EE400ABC
:1010E00075D03F4A9FED3D1AB7EE000A6BB1DFEDB8
:1010F0003D1A012B01D0022B64D002EE101A1168A8
:10110000F8EE422A81EEA22A21E0334C283C2368E3
:101110009B0612D5344B246801EE901A1168C4F373
:10112000C104F8EE612AE34001EE903AC1F30801F0
:10113000F8EE611A81EEA22A0BE001EE901ADFEDC3
:101140002B2A00BFF8EE611A116882EEA12AC1F3C2
:10115000080101EE901A1168F8EE611A40EE811A4A
:1011600071EE800A62EE200AC1F3462101EE101AE8
:10117000B8EE411A31EE001AC0EE811ABCEEE11A47
:1011800080ED001A1168C1F3064101EE101AB8EEA5
:10119000411A31EE001AC0EE811ABCEEE11A80ED60
:1011A000011A1168C1F3066101EE101AB8EE411A76
:1011B00031EE000A80EE801ABCEEC10A80ED020A10
:1011C00030BD04E001EE901ADFED092ABAE70021F4
:1011D000016041608160F3E7284402580000003953
:1011E000404402580024744A0090D0030024744CF8
:1011F00020BCBE4B2DE9FC5F044650F8241B0025A3
:1012000000902E460801FE4FDFF8F8931DD5606E62
:1012100050B1B0F5801F0CD0B0F5001F0ED0B0F566
:10122000401F1DD001250FE0386840F400303860C1
:1012300016E00221201D01F001FF03E000980221C9
:1012400001F08CFF05000BD02E462088C00523D569
:10125000606D05281ED2DFE800F00C11161B1B0084
:10126000626ED9F8001021F440111143C9F8001042
:10127000EBE7386840F40030386009E00021201DB9
:1012800001F0DCFE03E00098002101F067FF054655
:101290006DB100E001252E462088800528D5A06D7F
:1012A00080281ED00CDC90B140280ED114E0626D75
:1012B000D9F8001021F007011143C9F80010EBE73D
:1012C000C02813D0B0F5807F10D001250FE038681A
:1012D00040F40030386009E00021201D01F0AEFE2E
:1012E00003E00098002101F039FF054695B12E4634
:1012F0002088DFF81083400508F108082CD5D4F8C1
:10130000A400B0F5800F20D00DDCA0B1B0F5001F17
:101310000FD115E0A26DD9F8001021F4E07111434E
:10132000C9F80010E4E7B0F5C00F13D0B0F5000F16
:1013300010D001250FE0386840F40030386009E033
:101340000021201D01F07AFE03E00098002101F049
:1013500005FF054675B12E46208800052DD5D4F829
:10136000A800B0F1007F21D00EDCA8B1B0F1807FE1
:1013700010D116E0D4F8A420D8F8001021F46001B0
:101380001143C8F80010E7E7B0F1407F13D0B0F187
:10139000806F10D001250FE0386840F400303860CD
:1013A00009E00021201D01F049FE03E00098002122
:1013B00001F0D4FE05466DB12E46206880011FD590
:1013C000A06CD8B110280FD0202812D0302815D00A
:1013D000012514E0D4F8A820D8F8001021F0E0612D
:1013E0001143C8F80010E8E7386840F4003038606E
:1013F00004E00221201D01F021FE05466DB12E46BC
:101400002088C0042BD5E06DB0F5005F20D00DDC46
:10141000A0B1B0F5805F0FD115E07A48A26C001F33
:10142000016821F0300111430160E9E7B0F5405F48
:1014300013D0B0F5804F10D001250FE0386840F48C
:101440000030386009E00021201D01F0F7FD03E0C5
:101450000098002101F082FE054685B12E462088C5
:10146000800429D5206EB0F5403F23D010DC08B3AE
:10147000B0F5803F14D0B0F5003F0FD115E0E26D1C
:10148000D9F8001021F4E0411143C9F80010E6E753
:10149000B0F5802F0ED0B0F5A02F0BD001250AE0BB
:1014A0000121201D01F0CAFD03E00098012101F097
:1014B00055FE05468DB12E46208840042AD5D4F825
:1014C000AC00B0F1405F23D010DC08B3B0F1805F16
:1014D00014D0B0F1005F0FD115E0226ED9F80010E2
:1014E00021F4E0211143C9F80010E5E7B0F1804F85
:1014F0000ED0B0F1A04F0BD001250AE00121201D34
:1015000001F09CFD03E00098012101F027FE054653
:101510006DB12E46208800041FD5E06ED8B1B0F121
:10152000805F0ED0B0F1005F10D0012514E0D4F838
:10153000AC20D8F8001021F0E0411143C8F80010A9
:10154000E8E7386840F40030386004E00121201DED
:1015500001F074FD05466DB12E462068C0011ED510
:10156000606CD0B101280ED0022811D0032814D00D
:10157000012513E0E26ED9F8001021F0405111432B
:10158000C9F80010E9E7386840F40030386004E03A
:101590000221201D01F052FD054685B12E4620682E
:1015A000DFF85CB04002ABF11C0B57D51648016860
:1015B00041F480710160FFF7C3FB82460EE01148E1
:1015C000626C001F016821F0030111430160E6E72E
:1015D000FFF7B6FBA0EB0A0064283DD80A48006874
:1015E000C005F5D57DBBDFF81CA0B4F8B0100AF13A
:1015F000200ADAF8000001F4407100F4407005E0C0
:101600002C4402585044025800480258884211D0D5
:10161000DAF80010DAF8002021F4407142F4803248
:10162000CAF80020DAF8002022F48032CAF800203C
:10163000CAF80010D4F8B000B0F5807F21D1FFF7D0
:101640007FFB019019E008E0FFF77AFB0199411A4E
:1016500041F28830814210D903252E462078DFF8E8
:101660002CA4C0073DD0A06F182838D026DC80B34A
:10167000082829D0102825D12CE0DAF800008007AE
:10168000E2D5D4F8B010C1F30120032858460DD09C
:10169000016821F47C510160B4F8B020DAF8001040
:1016A000C2F30B021143CAF80010D7E7F84A0368E7
:1016B00002EA111223F47C511143ECE720280ED0EA
:1016C00028280CD001250BE00121201D01F0B6FCDB
:1016D00004E004E00098012101F040FD05465DB101
:1016E0002E46207880071ED5606F062819D2DFE8C5
:1016F00000F0160C11161616A26FDAF8001021F081
:1017000038011143CAF80010EBE70121201D01F058
:1017100095FC03E00098012101F020FD054675B11C
:1017200000E001252E46207840071FD5D4F8900010
:10173000062819D2DFE800F0160C11161616626F93
:10174000DAF8001021F007011143CAF80010EAE7A7
:101750000121201D01F072FC03E00098012101F03D
:10176000FDFC05469DB100E001252E46207880064F
:101770002BD5D4F88C00B0F1405F24D011DC10B32D
:10178000B0F1805F15D0B0F1005F10D116E0D4F851
:101790009020D8F8001021F007011143C8F800107C
:1017A000E4E7B0F1804F0ED0B0F1A04F0BD001258F
:1017B0000AE00021201D01F041FC03E00098022115
:1017C00001F0CCFC05468DB12E46207840062BD585
:1017D000D4F89800B0F5406F24D011DC10B3B0F508
:1017E000806F15D0B0F5006F10D116E0D4F88C20C2
:1017F000DAF8001021F0E0411143CAF80010E4E7E4
:10180000B0F5805F0ED0B0F5A05F0BD001250AE0E7
:101810000021201D01F012FC03E00098022101F0DC
:101820009DFC05468DB12E46207800062BD5D4F8B8
:101830009C00B0F5C04F24D011DC10B3B0F5005FB0
:1018400015D0B0F5804F10D116E0D4F89820D8F814
:10185000001021F4E0511143C8F80010E4E7B0F59E
:10186000004F0ED0B0F5204F0BD001250AE000212B
:10187000201D01F0E3FB03E00098022101F06EFC63
:10188000054665B32E46207800070BD5D4F88010A6
:10189000B1F5805F2DD0DAF8002022F440520A43DF
:1018A000CAF800202078C0060BD5D4F89410B1F502
:1018B000807F26D0D8F8002022F440720A43C8F86E
:1018C00000202068000330D5D4F8A00008B3B0F59C
:1018D000803F23D0B0F5003F25D0012524E0D4F887
:1018E0009C20D8F8001021F460411143C8F8001082
:1018F000C9E70098022101F031FC0028D2D001266E
:10190000D0E70098022101F029FC0028D9D0012657
:10191000D7E70021201D01F091FB03E00098022190
:1019200001F01CFC054685B12E462068400322D5F7
:10193000D4F88400B0F5801F11D0B0F5001F13D08B
:10194000B0F5401F15D0012514E0D4F8A020D8F838
:10195000001021F440311143C8F80010E5E7386861
:1019600040F40030386004E00098012101F0F6FBFB
:10197000054655B12E462068C0031CD5E06C70B1F9
:10198000B0F5803F10D0012514E0D4F88420DAF8B7
:10199000001021F440111143CAF80010EBE7386839
:1019A00040F40030386004E00221201D01F046FBC5
:1019B0000546CDB12E462068800005D5009802214D
:1019C00001F0CCFB00B10126206880031BD5E06F3D
:1019D000B8B1B0F5807F10D0B0F5007F11D0B0F570
:1019E000407F0ED001250DE02848E26C08380168E0
:1019F00021F4803111430160DDE7386840F40030A4
:101A00003860EDB32E462068C00207D5226FD9F8A2
:101A1000001021F000411143C9F800102068C000F7
:101A200008D5D4F8B420DBF8001021F4804111432C
:101A3000CBF800102068800207D5A26ED9F80010FC
:101A400021F080711143C9F80010206840000CD5C6
:101A5000DBF8001021F40041CBF80010DBF8001097
:101A6000D4F8B8201143CBF800102068002809DA18
:101A70000648226D0838016821F04051114300E00A
:101A800008E001607EB10120BDE8FC9F544402588B
:101A9000CFFFFF00E26FDAF8001021F4407111432C
:101AA000CAF80010AFE70020EEE700002DE9F05F74
:101AB00004000F467ED0DFF82482D8F8000000F042
:101AC0000F00B8420CD2D8F8001021F00F013943B2
:101AD000C8F80010D8F8000000F00F00B84269D133
:101AE00020787F4D40070AD52069296801F07001F0
:101AF000884204D9296821F07001014329602078C7
:101B0000774E361D00070AD56069316801F0700113
:101B1000884204D9316821F0700101433160207896
:101B2000C0060AD5A069316801F4E061884204D991
:101B3000316821F4E061014331602078DFF8A0B121
:101B400080060BF1080B0CD5E1695846DBF8002044
:101B500002F07002914204D9026822F070020A4336
:101B60000260207880070AD5E068296801F00F013B
:101B7000884204D9296821F00F01014329602078A7
:101B8000C0073ED05649A2682868183920F4706012
:101B9000104328606068022818D0032819D009680B
:101BA000012819D0490700294ADADFF834A1AAF13F
:101BB000080A00E044E0DAF8002022F007020243BD
:101BC000CAF80020FFF7BCF8814612E009688903D3
:101BD000E9E709688901E6E7C905E4E7FFF7B0F836
:101BE000A0EB090141F28830814202D90320BDE80F
:101BF000F09F6168DAF8000000F03800B0EBC10F28
:101C0000ECD1207880070AD5E068296801F00F013F
:101C1000884204D2296821F00F0101432960D8F8D5
:101C20000010404601F00F01B9420BD9016821F0C4
:101C30000F0139430160006800F00F00B84201D085
:101C40000120D4E7207840070AD52069296801F0EF
:101C50007001884204D2296821F070010143296093
:101C6000207800070AD56069316801F07001884268
:101C700004D2316821F07001014331602078C00640
:101C80000AD5A069316801F4E061884204D2316864
:101C900021F4E06101433160207880060CD5E169D0
:101CA0005846DBF8002002F07002914204D202682C
:101CB00022F070020A43026000F082F82968094AA3
:101CC000C1F30321515C01F01F01C84006490860BF
:101CD00006480068BDE8F05FFFF76CB800200052CE
:101CE00018440258C460000828000020200000208A
:101CF00070B5144C3F220260124A24680832131D4A
:101D0000114D04F00704446016681C1D06F470664B
:101D10008660166806F00F06C660126802F0700250
:101D200002611A6802F0700242611A6802F4E0620D
:101D30008261226802F07002C261286800F00F0020
:101D4000086070BD104402580020005210B5FFF723
:101D5000E5F8064A06491268064B02F00F029A5C43
:101D600002F01F02D040086010BD00001844025865
:101D70002C000020C460000810B5FFF7E7FF0549FC
:101D80000968054AC1F30211515C01F01F01C84006
:101D900010BD00001C440258C460000810B5FFF7D5
:101DA000D5FF05490968054AC1F30221515C01F0DC
:101DB0001F01C84010BD00001C440258C460000848
:101DC000454970B545480968434B103B11F038024E
:101DD00008D00111082A03D0102A0BD0182A0BD0E2
:101DE000084670BD19688906FBD51968C1F3C101A1
:101DF000C84070BD3A4870BD3749374D18310C1D89
:101E000024350A68096826682D6802F0030406F084
:101E10000102C1F30511C5F3CC0515FB02F200EE7A
:101E2000102AB8EE400AE9B32F4ADFED2E0AB7EECA
:101E3000001A6CB1DFED2D1A012C01D0022C43D019
:101E400002EE101A1068F8EE422A81EEA22A1EE075
:101E50001C68A40611D51B6801EE901A1168C3F323
:101E6000C103F8EE612AD84001EE900AC1F30800E0
:101E7000F8EE611A81EEA22A0BE001EE901ADFED76
:101E80001C2A00BFF8EE611A106882EEA12AC0F386
:101E9000080001EE900AF8EE611A40EE201A31EEC9
:101EA000810A00E015E022EE000A1068C0F3462027
:101EB000401C00EE900AF8EE600A80EE201ABCEE9C
:101EC000C10A10EE100A70BD01EE901ADFED092A6A
:101ED000D8E7002070BD0000104402580090D003E5
:101EE00040787D0100000039304402580024744AD3
:101EF0000024744C20BCBE4B2DE9F05F04007DD063
:101F0000FF4F2078FE4D1837DFF8F493103DC007DF
:101F100048D0D9F80000396800F03800102815D0F2
:101F2000182803D101F0030002280FD06068B0F533
:101F3000803F12D010B1B0F5A02F18D0286820F43F
:101F400080302860286820F4802009E02868800319
:101F500028D560680028D2D024E0286840F480307A
:101F60002860606888B1FEF7EBFE064609E0286845
:101F700040F480202860F0E7FEF7E2FE801B642832
:101F80006FD828688003F7D50CE0FEF7D9FE064627
:101F900005E000BFFEF7D4FE801B6428F0D8286857
:101FA0008003F7D4207841F20308D54E0C3E800719
:101FB00061D5D9F80000396810F038000ED0182823
:101FC00001D188070AD0E06880B3296821F019019F
:101FD00001432960FEF7B4FE82462FE028684007DF
:101FE00002D5E06800288AD0E168286820F019004E
:101FF00008432860FEF7A4FE824607E0D1E000BF58
:10200000FEF79EFEA0EB0A000228B9D82868400718
:10201000F6D500BFFEF78EFE404513D82069316823
:1020200021F47C3141EA0030306024E011E000BF4F
:10203000FEF786FEA0EB0A000228A1D82868400718
:10204000F6D5E7E7207C316821F0FE4141EA0060E7
:10205000EAE7286820F001002860FEF771FE82465A
:1020600006E0FFE0FEF76CFEA0EB0A00022887D82E
:1020700028684007F6D42078C00657D5D9F8000064
:10208000DFF87CB2396800F03800ABF1040B0828A7
:1020900010D0182803D101F0030001280AD0E0690C
:1020A0000028286832D040F080002860FEF748FE03
:1020B000824623E02868C00523D5E069802870D1D6
:1020C0001FE000BF94F82000316821F0F84141EA98
:1020D000806030602AE000BF94F82010DBF8002018
:1020E00022F07C5242EA0161CBF800101EE000BFF2
:1020F000FEF726FEA0EB0A00022886D82868C00555
:10210000F6D5FEF717FE4045E6D8DBE720F0800065
:102110002860FEF715FE064605E000BFFEF710FE3C
:10212000801B022889D82868C005F7D420780007CA
:1021300029D573486169643000298046016811D04F
:1021400041F001010160FEF7FBFD064605E000BF1E
:10215000FEF7F6FD801B022889D8D8F8000080071A
:10216000F6D510E021F001010160FEF7E9FD064619
:1021700005E000BFFEF7E4FD801B022872D8D8F806
:1021800000008007F6D42078800623D5A0690028B7
:10219000286810D040F480502860FEF7D1FD064634
:1021A00005E0E6E0FEF7CCFD801B02285AD828683F
:1021B0008004F7D50EE020F480502860FEF7C0FDC3
:1021C000064604E0FEF7BCFD801B02284AD82868BA
:1021D0008004F7D4207840074FD5DFF82881D8F85D
:1021E000001041F48071C8F80010FEF7A9FD064602
:1021F00005E000BFFEF7A4FD801B642832D8D8F8A4
:102200000000C005F6D53E4EA068603601280AD011
:1022100008B1052813D0306820F001003060306824
:1022200020F0040002E0306840F001003060A06857
:1022300041F2883A90B1FEF783FD80460AE03068AB
:1022400040F004003060EEE7FEF77AFDA0EB0801F5
:10225000514507D830688007F6D50EE0FEF770FDCF
:10226000804607E084E000BFFEF76AFDA0EB0801AE
:1022700051457DD830688007F6D4606AF0B3D9F84C
:102280000010C1F3C201032973D00228286820F08E
:102290008070286003D0FEF753FD044680E0FEF70F
:1022A0004FFD064605E000BFFEF74AFD801B0228F1
:1022B00073D828688001F7D4E26A40F2F3313868B5
:1022C00054F8283F884340EA021018433860217BC5
:1022D0004FF4FE0C22894FF0FE47208A4902084B3A
:1022E000521E267DA1F5007189B2401EC2F308027C
:1022F00020331143761E0CEA004005E053E0000055
:102300001044025800480258014307EA0662181FA9
:10231000114319601A1D016821F001010160116863
:102320004FF6F876236AB14341EAC30111600168B0
:10233000A26921F00C01114301600168E26921F0FA
:10234000020111430160016841F4803101600168BC
:1023500041F400310160016841F4802101600168AD
:1023600041F001010160286840F08070286001E0C0
:1023700013E01AE0FEF7E4FC044604E0FEF7E0FC9C
:10238000001B022809D828688001F7D50BE000BFA0
:10239000FEF7D6FC001B022802D90320BDE8F09FFF
:1023A00028688001F4D40020F8E70120F6E77047A0
:1023B0007047704770B590F83C20012A24D0134C28
:1023C000012580F83C50022280F83D2002685368C5
:1023D000A242966802D00E4CA24203D14C6823F46C
:1023E000700323430C6823F0700389681C43546016
:1023F000002326F0800602683143916080F83D504A
:1024000080F83C30184670BD022070BD00000140CD
:102410000004014010B5040003D094F83D0010B151
:1024200007E0012010BD002084F83C00204600F0A9
:102430000DF8022084F83D002068211D00F0E2FF25
:10244000012084F83D00002010BD000008B50068A0
:10245000B0F1804F08D10548016841F001010160E9
:10246000006800F00100009008BD0000E844025838
:102470000168094ACB6843F00103CB6001688868B2
:102480001040062806D0B0F5803F03D0086840F021
:1024900001000860002070470700010070B5044685
:1024A00090F83C00012814D0394B012584F83C50A9
:1024B000022084F83D0022689068184020F47F4094
:1024C00090600868702828D010DC10F00F0F03D03F
:1024D0004BE04FF0020070BD4FEA2012072A44D2B1
:1024E000DFE802F05151515149323A00B0F1101F6A
:1024F00049D009DCB0F5805F37D0B0F5005F17D068
:10250000B0F5801F31D13EE0A0F5801120393AD0DE
:10251000102938D0202928D135E04A682068D1E92F
:10252000021300F0D1FF2068816841F0770109E0D3
:102530004A682068D1E9021300F0C6FF206881686C
:1025400041F48041816010E0CA684968206801F068
:102550001DF82068502106E0CA684968206801F02B
:1025600026F82068602100F0B9FF002084F83D5073
:1025700084F83C0070BDCA684968206801F006F81C
:1025800020684021EFE7226801461046EBE7000093
:1025900088FFCEFF704770B50446006800250169CA
:1025A000C943890715D4C168C943890711D4EA1EF4
:1025B000026101212177206880698007204602D0CE
:1025C000FFF7E8FF04E000F0A7F8204600F0A5F8C8
:1025D000257720680169C943490717D4C168C943F1
:1025E000490713D402216FF00402026121772068A9
:1025F000806910F4407F204602D0FFF7CBFF04E053
:1026000000F08AF8204600F088F8257720680169F4
:10261000C943090716D4C168C943090712D4042164
:102620006FF00802026121772068C06980072046A8
:1026300002D0FFF7AFFF04E000F06EF8204600F094
:102640006CF8257720680169C943C90617D4C168A9
:10265000C943C90613D408216FF010020261217723
:102660002068C06910F4407F204602D0FFF792FF37
:1026700004E000F051F8204600F04FF8257720687C
:102680000169C943C90708D1C168C943C90704D151
:10269000891E0161204600F041F820680169C943A4
:1026A000090609D4C168C943090605D46FF0800141
:1026B00001612046FFF77CFE20680169C943C90516
:1026C00009D4C168C943090605D46FF4807101615A
:1026D0002046FFF76CFE20680169C943490609D40A
:1026E000C168C943490605D46FF040010161204625
:1026F00000F049F820680169C94389060BD4C16814
:10270000C943890607D46FF0200101612046BDE866
:102710007040FFF74EBE70BD7047704700680349B8
:10272000884201D1FEF712BB704700000000014053
:1027300070B5044690F83C00012812D0012584F8B9
:102740003C50022084F83D00204600F0D1FE0028D5
:102750004FF0000007D084F83D5084F83C00012081
:1027600070BD022070BD2168CA6822F04002CA60B4
:102770002168CA6822F48042CA6084F83D5084F817
:102780003C00002070BD704730B590F87C100129E6
:1027900018D0012280F87C202421C0F8801000226B
:1027A000202450F8601B0B680D6823F0005325F0BF
:1027B00001050D60426050F8601C0B6004620277F6
:1027C000104630BD022030BD704770B5044690F809
:1027D0007C0001281DD0012284F87C202420C4F82C
:1027E000800020680568026822F00102026020680B
:1027F000826822F060620A438260204600F0EAFEAE
:102800002268202100201560C4F8801084F87C0024
:1028100070BD022070BD70B5044690F87C000128A0
:102820001DD0012284F87C202420C4F88000206878
:102830000568026822F0010202602068826822F0C6
:1028400060420A438260204600F0C4FE22682021D4
:1028500000201560C4F8801084F87C0070BD022050
:1028600070BD7047704770472DE9F041036804461A
:10287000002540F60F06D86919689A68304209D1D8
:1028800086067DD501F0200602F080573E4377D0C2
:10289000E16E9EE0614E624F16400F4037436FD0AD
:1028A000C70709D0CF0507D501271F62D4F88830A4
:1028B00043F00103C4F8883083070AD5D30708D052
:1028C000276802233B62D4F8883043F00403C4F83D
:1028D000883043070AD5D30708D0276804233B6212
:1028E000D4F8883043F00203C4F8883003070CD5CD
:1028F00001F02003334308D0266808233362D4F85C
:10290000883043F00803C4F8883003050BD54B0129
:1029100009D526684FF400633362D4F8883043F059
:102920002003C4F88830D4F88830002B34D08006D7
:1029300009D501F0200002F08051084303D0E16E78
:1029400009B1204688472168D4F88800896849067B
:1029500002D410F0280F21D0204600F00BFF206891
:102960008168490615D5816821F040018160A06F1A
:1029700078B12C490165A06FFDF7DEFF002800E06B
:1029800012E009D0A06F016D00E02046BDE8F041E3
:1029900008472046FFF767FFBDE8F0812046FFF7B4
:1029A00062FFC4F88850F7E7C60209D5560207D57A
:1029B0004FF4801018622046BDE8F041FFF752BF87
:1029C000060609D501F0800602F40002164303D082
:1029D000216F0029D9D1DFE742060DD54A060BD574
:1029E0001A682021204622F040021A60C4F88010A4
:1029F000256700F064F9CFE7020206D54A0004D546
:102A00002046BDE8F041FFF72CBFC001C4D5002926
:102A1000C2DA2046BDE8F041FFF7D6BE0100001043
:102A2000200100045F37000810B5040003D0D4F87B
:102A3000800010B107E0012010BD002084F87C0068
:102A4000204600F027F82420C4F8800020680168A0
:102A500021F001010160204600F0A0FE0128EBD02A
:102A6000A06A10B1204600F0E7FD2068416821F41B
:102A7000904141602068816821F02A0181602068CE
:102A8000016841F0010101602046BDE8104000F0FE
:102A900037BE000010B586B0044614216846FDF725
:102AA000C1FC16492068884226D11548016841F4C6
:102AB00080210160006800F48020059010480838EB
:102AC000016841F00801016000680221002200F065
:102AD00008000590032307244FF440708DE81F0081
:102AE00008486946FEF71CF8002205212720FEF75A
:102AF000BBF92720FEF7AAF906B010BD0048004038
:102B0000E8440258000C02582DE9F84F0446D0F86A
:102B100084009B4616460D4620286FD1FDB1F6B1C4
:102B200094F87C00012869D0012284F87C202221BD
:102B30004FF00008C4F88880C4F884102034FEF7F1
:102B4000FFF8824654F8180CA6874FF48053E687A6
:102B5000FF21203C984208D122691AB119E00120D6
:102B6000BDE8F88F40F2FF1113E04FF07F0270B123
:102B7000B0F1805F10D0A4F8608000BFB4F860703E
:102B8000984201D1206970B12E4600250CE02669DB
:102B900036B9A4F86010F1E7216909B13F21F8E7DF
:102BA000A4F86020EAE7002607F0FF09B4F85E0009
:102BB000E0B10022534620212046CDF800B001F0BC
:102BC000F5FB08B10320CBE72068406A56B100EA64
:102BD000090006F8010B00BFB4F85E00401EA4F81F
:102BE0005E00E3E7384025F8020BF5E72021C4F842
:102BF0008410002084F87C80B2E7FFE70220AFE772
:102C00002DE9F8430446D0F880001F4616460D46CD
:102C1000202852D1DDB1D6B194F87C0001284CD0E7
:102C2000012284F87C2021214FF00008C4F888801C
:102C3000C4F880101834FEF783F8814654F8100C5D
:102C4000A687E687183CB0F5805F03D004E001203A
:102C5000BDE8F883206910B12E46002510E000265B
:102C60000EE08021204601F0A1FBB8B9C6B116F8EC
:102C7000010B21688862B4F85600401EA4F8560083
:102C8000B4F856004B464FF0000200970028E8D1F8
:102C90004FF04001204601F089FB38B10320D7E70F
:102CA00035F8020B2168C0F30800E3E72021C4F8DF
:102CB0008010002084F87C80CAE70220C8E77047B3
:102CC000FEE700000FB45A2100B597B019AB684673
:102CD000189A01F0D9FB054800231A466946406856
:102CE00002F0A2FE17B05DF814FB00000C000020FB
:102CF0002DE9F04F87B014216846FDF793FB61483A
:102D0000016841F004010160016801F004010591CE
:102D1000016841F001010160016801F001010591C4
:102D2000016841F002010160016801F002010591B2
:102D3000016841F008010160016801F00801059196
:102D4000016841F040010160016801F04001059116
:102D5000016841F01001016000680122202100F0AB
:102D6000100005904848FDF7E0FF44F2010A47488B
:102D700001225146FDF7D9FF4FF4806B44480022F1
:102D80005946FDF7D2FF434801220221FDF7CDFF4E
:102D90000024424FDFF800914FF40058CDF8008036
:102DA0006946CDE901943846FDF7BAFE322000901D
:102DB0000B26694602253846CDE90154CDE9034684
:102DC000FDF7AEFE86200090CDE901542E486946FD
:102DD000CDE90346FDF7A4FE2020009001272A48F4
:102DE000CDE9017469460394FDF79AFECDF800A081
:102DF0006946CDE9017425480394FDF791FECDF8AD
:102E000000806946CDE901542048CDE90346FDF72D
:102E100087FECDF800B06946CDE901741C480394E3
:102E2000FDF77EFEDFF878808021CDE90019694644
:102E300040460294FDF774FE4FF420500090CDE917
:102E40000154CDE9034669464046FDF769FE009509
:102E50006946CDE901740F480394FDF761FE002235
:102E600005211720FEF700F81720FDF7EFFF0022DD
:102E700005212820FDF7F8FF2820FDF7E7FF07B020
:102E8000BDE8F08FE04402580000025800040258E8
:102E9000000C0258001002580000111100080258DE
:102EA0000018025810B58CB000246846142105940F
:102EB000069407940894FDF7B5FA13484FF0804143
:102EC00009940A940B94C0E900148460C4600461FE
:102ED0008461FFF79FFA4FF4805005900A4805A9D6
:102EE000FFF7DCFA4FF480110620CDE90001064817
:102EF0006946FFF71DFC044809A909940B94FFF7E4
:102F000059FA0CB010BD0000B80000201148002193
:102F100010B50F4C0C224FF4E1330460C0E90131CD
:102F2000C160C0E904128161C161016241628162D4
:102F3000FFF77AFD07480021FFF76DFC05480021E7
:102F4000FFF743FCBDE810400248FFF71DBC00003E
:102F500000480040F8000020FEE7000098B0212063
:102F60004FF47A748DF85C0001220B4823466946C1
:102F7000FFF7CAFD0028F7D107486423012217A9EB
:102F8000FFF73EFE6846FDF758FA82B20248642316
:102F90006946FFF735FEE7E7F80000200A4C98B0D5
:102FA00000226946606802F0EFFD48B16846FDF70F
:102FB00044FA82B2054850236946FFF721FEEFE745
:102FC000142002F091FBEBE70C000020F800002039
:102FD0001CB500225021642002F0B8FC0B490624E5
:102FE0000A460B4650608022CDE900410C4808A1FA
:102FF00002F0A4FE054880220AA108300346CDE96C
:1030000000400C4802F09AFE1CBD00000C0000209D
:103010004D65737361676554785461736B0000008C
:103020009D2F00084D657373616765527854617315
:103030006B0000005D2F0008704700002DE9F0478D
:10304000454D044689464FF0000A2868C043800772
:103050000AD0414E283E306820F080603060FDF795
:103060006FFE0746B04608E00120BDE8F08700BFCC
:10307000FDF766FEC01B022867D8D8F800000001E3
:10308000F6D4206829684FF4FE0721F47C313E0213
:1030900041EA00302860207AA389B4F804C04002D5
:1030A0002D4D2D495B1E227CACF1010C1035091D04
:1030B000A0F5007080B2521ECCF3080C07EA03435F
:1030C00040EA0C00184306EA0262104328600868D0
:1030D000626920F0C000104308600A68A06922F00D
:1030E000200202430A60281D0A6822F010020A60CA
:1030F00002684FF6F873E4699A4342EAC402026038
:103100000868B9F1000F40F010020A6011D0086899
:10311000B9F1010F11D040F400100860D8F8000098
:10312000444640F08060C8F80000FDF709FE0546FF
:103130000DE0086840F40020EFE740F48010ECE771
:10314000FDF7FEFD401B022801D903208DE7206812
:103150000001F5D5504688E7284402582DE9F0478C
:10316000454D044689464FF0000A2868C043800751
:103170000AD0414E283E306820F080503060FDF784
:10318000DFFD0746B04608E00120BDE8F08700BF3C
:10319000FDF7D6FDC01B022867D8D8F800008000D4
:1031A000F6D4208829684FF4FE0721F07C713E0296
:1031B00041EA00502860207AA389B4F804C0400294
:1031C0002D4D2D495B1E227CACF1010C1835091DDB
:1031D000A0F5007080B2521ECCF3080C07EA03433E
:1031E00040EA0C00184306EA0262104328600868AF
:1031F000626920F44060104308600A68A06922F404
:10320000007202430A60281D0A6822F480720A6074
:1032100002684FF6F873E4699A4342EAC402026016
:103220000868B9F1000F40F480720A6011D0086894
:10323000B9F1010F11D040F080700860D8F800009B
:10324000444640F08050C8F80000FDF779FD05467F
:103250000DE0086840F48000EFE740F40000ECE780
:10326000FDF76EFD401B022801D903208DE7206881
:103270008000F5D5504688E728440258012001F027
:1032800078FEFBE7502010B580F31188BFF34F8F15
:10329000BFF36F8F02F0B8FD18B104494FF08050B2
:1032A0000860002080F3118810BD000004ED00E0EC
:1032B00070B5CCB04C212FA8FDF7B4F8202142A85E
:1032C000FDF7B0F8BC216846FDF7ACF80220FDF729
:1032D000FDFD204800242049026842F4404202607B
:1032E00002680A6842F001020A60096801F00101FF
:1032F0004A9101688904FCD52022012302252F95DB
:10330000CDE932323AAB04203C21CDE9385483E890
:1033100023000C223D953E952FA8CDE93F244194F2
:10332000FEF7EAFD402008230601CDE9453042AB17
:10333000CDE9470649903F21032283E81600042186
:1033400042A8FEF7B3FB684600951D94FDF752FFB7
:103350004CB070BD184802582C040058214A30B5B2
:10336000214914680020204B44F470041460103389
:103370000A681E4D42F001020A6018600A681A4B82
:103380002A400A6018331C1D251D174A1860283270
:103390002060131D28601C1D251D10602A1D18604B
:1033A000131D20601C1D2860251D10601860206002
:1033B00028600A680C4B0E4C22F4802260330A60AD
:1033C000186020686FF30F00B0F1005F03D2094965
:1033D0000120C1F808014FF00060024980390860FF
:1033E00030BD000088ED00E0004402587FEDF6EAB1
:1033F0000010005C008000510148FFF7CCB80000CD
:10340000D80300202DE9F047274B4FF0804A274D85
:1034100002689842264E274F274C09D0504507D0C6
:10342000A84205D0B04203D0B84201D0A04205D195
:10343000D1F804C022F070024CEA0202DFF87CC02E
:10344000DFF87C809842DFF87C900FD050450DD09B
:10345000A8420BD0B04209D0B84207D0A04205D054
:10346000604503D0404501D0484503D1CD6822F4E2
:1034700040722A434D6922F080022A43026098423A
:103480008A68C2620A68826207D0A04205D060459D
:1034900003D0404501D0484501D1096901630121AC
:1034A0004161BDE8F08700000000014000040040D9
:1034B00000080040000C00400004014000400140B2
:1034C000004401400048014042EA032283680A4365
:1034D00023F47F410A43826070470000034B8268F7
:1034E0001A400A4342F00701816070478FFFCFFF07
:1034F0002DE9F0410568D1E90032214F214EAC6839
:103500003C40224332401343AB604A68602A30D0CB
:1035100006DC302A32DD402A0ED0502A2ED122E09D
:10352000194B9A422ADA702A28D18A680068D1E9B0
:103530000313FFF7C9FF21E00A68052A10D00268CB
:10354000136A146A24F00104146202680C69916918
:1035500021F0F00141EA04119161006803620DE07D
:103560000120BDE8F0810A690068896800F00EF862
:1035700004E00A690068896800F019F80020F0E7A3
:103580008FFFCFFFF8FFFEFF2000100010B5036A89
:10359000046A23F00A0324F00104046284690B43E3
:1035A00024F0F00141EA02118161036210BD10B5FF
:1035B000036A23F0100303628369046A23F47043EF
:1035C00024F0A00443EA0232826144EA011101625C
:1035D00010BD00003FB514A1D1E9002314A1CDE92D
:1035E0000023D1E90021CDE90221416EB9B1016882
:1035F00002AC8A688968C2F34262490F1DF8015023
:10360000615CED00B5FBF1F1A0F86A101DF8021045
:10361000A25CC900B1FBF2F1A0F868103FBD012126
:10362000A0F86A10F8E7000001010103070100009B
:10363000080402040801010190F82810C90706D007
:103640000168C36A4A6822F400321A434A6090F85B
:103650002810890706D50168036B4A6822F4803276
:103660001A434A6090F82810490706D50168436B51
:103670004A6822F480221A434A6090F82810090709
:1036800006D50168836B4A6822F400421A434A60F7
:1036900090F82810C90606D50168C36B8A6822F421
:1036A00080521A438A6090F82810890606D501686E
:1036B000036C8A6822F400521A438A6090F828103A
:1036C000490611D50168436C4A6822F480121A43F6
:1036D0004A60416CB1F5801F06D10168836C4A686D
:1036E00022F4C0021A434A6090F82810090606D551
:1036F0000168C26C486820F400201043486070479D
:10370000F8B500260446C0F88860FDF719FB0546A9
:1037100020686FF07E470068000708D500222B461E
:103720004FF400112046009700F040FE60B9206879
:10373000006840070AD500222B464FF4800120463E
:10374000009700F033FE08B10320F8BD2020C4F834
:10375000800084F87C60C4F884000020F8BD10B5B7
:10376000806B0021A0F85E10A0F85610FFF77BF8E0
:1037700010BD000030B501682023074D00240A6801
:1037800022F490720A6001688A682A408A60C0F850
:103790008430C46630BD0000FEFFFFEF2DE9F04F1E
:1037A00004468068F94E87B02168D4E90457E2697D
:1037B000636E28430D6817433843F54A03434FF0BF
:1037C000000835401D430D602068E368416821F41E
:1037D0004051194341602368A069934201D0216A96
:1037E00008439D68EB4FEC4EEC493D4005439D601E
:1037F0002068656AC36A23F00F032B43C362206805
:10380000B0420ED1096801F03801182973D047DCA5
:10381000B9B3082979D010296FD178E028297ED151
:103820007BE0DF4B984209D1096801F007010629C6
:1038300075D2DFE801F0546A6C6E7072D94B984211
:1038400009D1096801F00701062968D2DFE801F013
:10385000475D5F616365D44B984209D1096801F007
:10386000070106295BD2DFE801F03A50525456585E
:10387000CE4B98420BD1096801F0070106294ED2C0
:1038800000E010E0DFE801F02B4143454749C84B19
:1038900098420AD1096801F03801182939D0B7DDFA
:1038A0002029BBD137E001273AE0C24B984209D129
:1038B000096801F00701062931D2DFE801F010267E
:1038C000282A2C2EBC4B98420BD1096801F0070125
:1038D000062924D2DFE801F003191B1D1F21002750
:1038E0001EE090421BD1AD49091D096801F0070196
:1038F000062914D202E00CE007E010E0DFE801F056
:10390000030507090B0D02270AE0042708E0082732
:1039100006E0102704E0202702E0402700E080278F
:10392000DFF898A2DFF898B290424FF480754FF01C
:1039300000097AD1102F51D006DC022F09D0042FB4
:1039400027D0082F72D12DE0202F70D0402F6DD1BD
:10395000F0E0FDF7F9FA0146606A1FE0012827D080
:10396000022827D0032827D0042827D0052827D0CD
:10397000062827D0072827D0082827D0092827D0AD
:103980000A2827D00B2827D00AE000BFB1FBF0F0AF
:103990007EE06846FDF7EAFA606A01990028DDD109
:1039A0000120F3E703A8FDF783FB606A0499F5E7BC
:1039B0000220EBE70420E9E70620E7E70820E5E737
:1039C0000A20E3E70C20E1E71020DFE72020DDE715
:1039D0004020DBE78020D9E72846D7E7DBF8000066
:1039E00059468006606A39D50968C1F3C1012AFACF
:1039F00001F2A8B101281BD002281BD003281BD03C
:103A000004281BD005281BD006281BD007281BD054
:103A100008281BD009281BD00A281BD00B281BD034
:103A20005FF00100B2FBF0F032E033E2A2E050E0E0
:103A30000220F7E70420F5E70620F3E70820F1E786
:103A40000A20EFE70C20EDE71020EBE72020E9E764
:103A50004020E7E78020E5E72846E3E7A8B1012812
:103A600021D0022821D0032821D0042821D00528E4
:103A700021D0062821D0072821D0082821D00928C4
:103A800021D00A2821D00B2821D00120BAFBF0F048
:103A900000286ED0666806EB460181426AD8B0EB1A
:103AA000063F67D89DE00220F0E70420EEE70620FD
:103AB000ECE70820EAE70A20E8E70C20E6E7102018
:103AC000E4E72020E2E74020E0E78020DEE7284628
:103AD000DCE7606AA8B1012816D0022816D00328B6
:103AE00016D0042816D0052816D0062816D0072888
:103AF00016D0082816D0092816D00A2816D00B2868
:103B000016D001202F4941E70220FBE70420F9E706
:103B10000620F7E70820F5E70A20F3E70C20F1E795
:103B20001020EFE72020EDE74020EBE78020E9E7D9
:103B30002846E7E7606AA8B1012818D002281AD001
:103B400003281AD004281AD005281AD006281AD01B
:103B5000072839D0082839D0092839D00A2839D07F
:103B60000B2839D05FF001004FF400410EE702202E
:103B7000FAE77CE232E00420F6E70620F4E70820CA
:103B8000F2E70A20F0E70C20EEE70000F369FFCF30
:103B9000000C0058FFF4FF1100100140544402587B
:103BA0000044004000480040004C004000500040ED
:103BB0000014014000780040007C00400090D003D9
:103BC0000044025800093D001020CDE72020CBE73B
:103BD0004020C9E78020C7E72846C5E74FF0010825
:103BE00045E2102F7FD023DC022F4ED0042F75D05A
:103BF000082FF3D103A8FDF75BFA0499606AA8B116
:103C0000012846D0022846D0032846D0042846D0B2
:103C1000052846D0062846D0072846D0082846D092
:103C2000092846D00A2846D00B2845D0012543E074
:103C3000202F7DD0402FD1D1606AA8B1012878D043
:103C4000022877D0032876D0042875D0052874D0B0
:103C5000062873D0072872D0082871D0092870D0A0
:103C60000A286FD00B2800D001254F4600232A4692
:103C70004FF400400021FCF78BFB02467008130E46
:103C80001202101843EA01216AE0FDF75DF90146CE
:103C9000B4E7022510E004250EE006250CE0082517
:103CA0000AE00A2508E00C2506E0102504E020259E
:103CB00002E0402500E080254E4600232A460846C3
:103CC0001946FCF765FB62680902030241EA1061CC
:103CD00050081818714145E005E0FFE76846FDF718
:103CE00045F901998AE7DBF800105846890656D550
:103CF0000068C0F3C1002AFA00F1606AA8B1012887
:103D000039D0022839D0032839D0042839D00528E1
:103D100039D0062839D0072839D0082839D00928C1
:103D200039D00A2839D00B2800D001252A460AE0CC
:103D300067E099E09AE09BE09CE09DE09EE09FE0D8
:103D4000A0E0A1E0A2E000234F4608461946FCF798
:103D50001FFB0902034672080002801841EA136142
:103D6000324679410023FCF713FBFA49A0F5407273
:103D70008A426ED932E70225D8E70425D6E7062520
:103D8000D4E70825D2E70A25D0E70C25CEE7102591
:103D9000CCE72025CAE74025C8E78025C6E7606A4A
:103DA000A8B1012819D0022819D0032819D0042855
:103DB00019D0052819D0062819D0072819D00828A5
:103DC00019D0092819D00A2819D00B2800D00125AC
:103DD0004F4600232A4650464CE70225F8E70425C3
:103DE000F6E70625F4E70825F2E70A25F0E70C25B3
:103DF000EEE71025ECE72025EAE74025E8E78025F7
:103E0000E6E7606AA8B1012819D0022819D0032872
:103E100019D0042819D0052819D006281AD0072847
:103E20001AD008281AD009281AD00A281AD00B2824
:103E300000D00125C84800234F462A461AE702252C
:103E4000F8E70425F6E70625F4E70825F2E70A2552
:103E5000F0E71DE00C25EDE71025EBE72025E9E76D
:103E60004025E7E78025E5E70225FEE60425FCE698
:103E70000625FAE60825F8E60A25F6E60C25F4E616
:103E80001025F2E62025F0E64025EEE68025ECE65A
:103E90002168EBE0E0694FF400414FF6EF7688428D
:103EA0006FD1082F65D00BDC6FB3012F5CD0042FCE
:103EB0007FF460AF6846FDF759F8606A01995DE0EC
:103EC000102F5FD0202F7DD0402FF1D1606AA8B194
:103ED000012878D0022877D0032876D0042875D01E
:103EE000052874D0062873D0072872D0082871D00E
:103EF000092870D00A286FD00B2800D001256068EF
:103F0000B1FBF5F1A0E0FDF737FF2FE0012815D058
:103F1000022815D0032815D0042815D0052815D05F
:103F2000062815D0072815D0082815D0092815D03F
:103F30000A2815D00B2814D0012512E0022510E024
:103F400004250EE006250CE008250AE00A2508E015
:103F50000C2506E0102504E0202502E0402500E0C5
:103F60008025B1FBF5F13EE0FDF718FF0146606AE0
:103F700004E003A8FDF79CF8606A04990028DBD0F0
:103F8000C4E7D8E0DBF8000059468006606A40D5F7
:103F90000968C1F3C1012AFA01F208B3012824D04B
:103FA000022824D0032824D0042824D0052824D093
:103FB000062824D0072824D0082824D0092824D073
:103FC0000A280AE074E0A2E0A3E0A4E0A5E0A6E0ED
:103FD000A7E0A8E0A9E0AAE0ABE018D00B2800D049
:103FE0000125B2FBF5F160682EE00225F9E7042512
:103FF000F7E70625F5E70825F3E70A25F1E70C259D
:10400000EFE71025EDE72025EBE74025E9E78025E0
:10401000E7E7A8B1012837D0022837D0032837D0E6
:10402000042837D0052837D0062837D0072837D0BE
:10403000082837D0092837D00A2837D00B2800D0D5
:1040400001256068BAFBF5F1490001EB5001B1FBB5
:10405000F0F080B2A0F11001B1423FF68BAE4FF606
:10406000F0732168C0F3420218401043C860012178
:10407000A4F86A104046A4F86810C4F86C90C4F81C
:10408000709007B0BDE8F08F0225DAE70425D8E785
:104090000625D6E70825D4E70A25D2E70C25D0E780
:1040A0001025CEE72025CCE74025CAE78025C8E7C4
:1040B000606AA8B1012816D0022816D0032816D0AD
:1040C000042816D0052816D0062816D0072816D0A2
:1040D000082816D0092816D00A2816D00B2800D098
:1040E00001251D490BE70225FBE70425F9E7062515
:1040F000F7E70825F5E70A25F3E70C25F1E7102592
:10410000EFE72025EDE74025EBE78025E9E70225ED
:10411000F5E60425F3E60625F1E60825EFE60A258F
:10412000EDE60C25EBE61025E9E62025E7E640253F
:10413000E5E68025E3E6082F6AD00FDC8FB3012F78
:1041400061D0042F7FF416AE6846FCF70FFF606A5B
:10415000019962E0FFFC0F0000093D00102F5FD0C5
:10416000202F7DD0402FEDD1606AA8B1012878D0F2
:10417000022877D0032876D0042875D0052874D07B
:10418000062873D0072872D0082871D0092870D06B
:104190000A286FD00B2800D001256068B1FBF5F12B
:1041A000A0E0FFE7FDF7E8FD2FE0012815D0022889
:1041B00015D0032815D0042815D0052815D00628B9
:1041C00015D0072815D0082815D0092815D00A2899
:1041D00015D00B2814D0012512E0022510E004258B
:1041E0000EE006250CE008250AE00A2508E00C256B
:1041F00006E0102504E0202502E0402500E08025AF
:10420000B1FBF5F13DE0FDF7C9FD0146606A04E050
:1042100003A8FCF74DFF606A04990028DBD0C4E7CF
:10422000DBF8000059468006606A40D50968C1F392
:10423000C1012AFA01F208B3012824D0022824D0AF
:10424000032824D0042824D0052824D0062824D0EC
:10425000072824D0082824D0092824D00A280AE0D6
:104260005FE08DE08EE08FE090E091E092E093E0FF
:1042700094E095E096E018D00B2800D00125B2FB21
:10428000F5F160682EE00225F9E70425F7E7062539
:10429000F5E70825F3E70A25F1E70C25EFE71025F8
:1042A000EDE72025EBE74025E9E78025E7E7A8B122
:1042B000012822D0022822D0032822D0042822D08C
:1042C000052822D0062822D0072822D0082822D06C
:1042D000092822D00A2822D00B2800D001256068A6
:1042E000BAFBF5F101EB5001B1FBF0F080B2A0F1A7
:1042F0001001B1427FF6CCAD70E40225EFE7042552
:10430000EDE70625EBE70825E9E70A25E7E70C25B1
:10431000E5E71025E3E72025E1E74025DFE78025F5
:10432000DDE7606AA8B1012816D0022816D003285C
:1043300016D0042816D0052816D0062816D007282F
:1043400016D0082816D0092816D00A2816D00B280F
:1043500000D00125144920E70225FBE70425F9E7F1
:104360000625F7E70825F5E70A25F3E70C25F1E729
:104370001025EFE72025EDE74025EBE78025E9E76D
:1043800002250AE7042508E7062506E7082504E7CD
:104390000A2502E70C2500E71025FEE62025FCE6AD
:1043A0004025FAE68025F8E600093D002DE9F047B2
:1043B0009A4617460E460446089D4FF000094FF0F6
:1043C000200839E0681C37D0FCF7BAFCA0EB0A00E3
:1043D000A84222D80DB32068016849072CD5C069CE
:1043E000C043000528D423684FF400611962216896
:1043F0000B6823F4D0730B6021688B6823F00103F2
:104400008B60C4F88080C4F88480C4F8888000BFC2
:10441000032084F87C90BDE8F08721680B6823F4C2
:10442000D0730B6021688B6823F001038B60C4F8A4
:104430008080C4F88480EBE72068C06936EA000019
:1044400004D00020B842BDD00020E4E70120F9E705
:104450000148FEF709BA0000F8000020FEE700005E
:104460000FB4084B10B504A902AA039800F004F990
:10447000044602A9002000F0A1FC204610BC5DF813
:1044800014FB0000BD4D00087CB5044600201D460D
:10449000164600290BD0491ECDE90041044B6A465F
:1044A0002946304600F0E8F8009A002111707CBDE2
:1044B000A74D0008090700284FEA116104DB00F14D
:1044C000E02080F80014704700F00F0000F1E020B9
:1044D00080F8141D704702E008C8121F08C1002AA6
:1044E000FAD170477047002001E001C1121F002A75
:1044F000FBD170472DE9FF5F82B00021DDE9043078
:10450000020DDDF840B0034318D044F61050A2F27B
:10451000FF3242431514119801281FD0A5EB0B0060
:10452000401C5FEA000A4FF000064E4FDFF838915A
:10453000B046504615D5CAF1000413E01198012485
:104540004AA3012801D16FEA0B010298119AC0E930
:104550000031C0E9024206B0BDE8F09FCBF1000097
:10456000DFE704460021404A491842EB0450CDE9F8
:10457000001012E0E00707D032463B46404649466D
:10458000FCF73EF88046894632463B4610461946BF
:10459000FCF736F806460F466410002CEAD1DDE938
:1045A0000401DDE90023BAF1000F06DAFCF728F870
:1045B00042464B46FCF724F805E0FCF793F84246E8
:1045C0004B46FCF78FF804460E460022284BFCF7BA
:1045D00011F903D84FF0FF30014607E00022254BC8
:1045E00020463146FBF765FFFCF7EBF8102409E0A5
:1045F000002C0ADB0A220023FBF7CAFE039B3032A1
:104600001A55641E50EA0102F2D1641C039AC4F1E7
:1046100011031444119A012A03D0012208430DD139
:104620000AE0084304D000204FF0110B119072E70C
:10463000A3EB0B056D1E0DE05B4504DD4FF00002A2
:1046400005F1010504E003DA4FF00002A5F10105D0
:10465000002AECD002981199C0E90231C0E9004566
:1046600079E70000000014400000F03F3000000037
:104670000000F0430000E03F2DE9FF4F95B09B465E
:104680008946064600250FE2252877D100242746D3
:10469000F84A0121059400E0044316F8013F203B4D
:1046A00001FA03F01042F7D130782A2811D06FF0C8
:1046B0002F033078A0F13002092A16D8059A44F069
:1046C000020402EB820203EB42021044761C0590C6
:1046D000EFE759F8042B0592002A03DA504244F41C
:1046E0000054059044F00204761C30782E2816D130
:1046F00016F8010F44F004042A280DD06FF02F02A1
:104700003078A0F13003092B09D807EB870302EBBF
:104710004303C718761CF3E759F8047B761C3078FE
:104720006C280FD006DC4C2817D068280DD06A28DA
:1047300014D104E0742810D07A280FD10DE044F48D
:1047400000140AE044F4801401E044F44014727848
:10475000824202D104F58014761C761C30786628DB
:104760000BD013DC582877D009DC002875D04528F9
:10477000F6D04628F4D047281AD19DE118E06328E6
:1047800035D0642879D0652812D195E1702873D08E
:1047900008DC6728F1D069286FD06E280DD06F280B
:1047A00006D1B5E073282CD0752875D0782874D040
:1047B0005A46179990476D1C75E1C4F302500228C0
:1047C00009D003280DD0D9F8001004280DD00D60B1
:1047D00009F1040967E1D9F80010EA17C1E90052AC
:1047E000F6E7D9F800100D80F2E70D70F0E719F840
:1047F000041B8DF8001000208DF80100EA4601200E
:1048000003E059F804AB4FF0FF3061074FF00001AF
:1048100002D40DE008F101018846B9420FDA804563
:10482000F8DB1AF808100029F4D108E008F10101BA
:1048300088468142FADB1AF808100029F6D105985B
:104840005B46A0EB080721463846179A00F094FA19
:10485000284400EB080507E04DE029E10DE01AF8D7
:10486000010B5A4617999047B8F10108F7D25B46F9
:1048700021463846179A13E142E00A220092C4F317
:1048800002524FF0000A022A08D059F804CB032A3A
:104890004FEAEC710AD00DE029E02AE009F10701A6
:1048A00021F00702F2E802C1914609E00FFA8CFC00
:1048B0004FEAEC71042A03D14FFA8CFC4FEAEC71F9
:1048C000002907DA0A460021DCF1000C61EB020145
:1048D0002D2202E0220504D52B228DF8042001228E
:1048E00003E0E20701D02022F7E7904659E00A21D1
:1048F00002E010220DE010214FF0000A00910BE0C1
:1049000010224FF0000A44F004040827009203E04C
:1049100008224FF0000A0092C4F30252022A05D086
:1049200059F804CB0021032A08D009E009F1070156
:1049300021F00702F2E802C1914605E01FFA8CFC63
:10494000042A01D10CF0FF0C4FF00008220728D5F3
:10495000702806D0009B83F0100353EA0A0305D0A9
:104960000EE040228DF80420012208E05CEA0102FA
:1049700006D030228DF804208DF8050002229046E2
:10498000009B83F0080353EA0A030AD15CEA0102A0
:1049900001D1620705D530228DF804204FF00108BF
:1049A0007F1E582804D034A003900EA802900DE07A
:1049B00036A0F9E753466046009AFBF7E9FC8446C7
:1049C0000398825C0298401E029002705CEA01002B
:1049D000F0D1029806A9081A00F1200A600702D552
:1049E00024F4803400E00127574502DDA7EB0A00DC
:1049F00000E0002000EB0A01009005984144401AB5
:104A00000590E00306D45B462146179A059800F00E
:104A1000B3F90544002706E001A85A46C05D17997E
:104A200090476D1C7F1C4745F6DBE0030CD55B46C9
:104A30002146179A059800F09FF9054404E03020BC
:104A40005A46179990476D1C0099481E00900029FE
:104A5000F5DC08E0029802995A460078491C029158
:104A6000179990476D1CBAF10001AAF1010AF1DC17
:104A700065E1000009280100303132333435363722
:104A8000383961626364656600000000303132339A
:104A9000343536373839414243444546000000003A
:104AA00000F058F90544761C307800287FF4ECAD0E
:104AB00019B02846BDE8F08F620700D4062709F137
:104AC000070222F0070CFCE80223E14603F000484D
:104AD0005FEA080C02D00FF2702C0DE05FEA045C74
:104AE00002D50FF2682C07E05FEAC47C02D00FF217
:104AF000602C01E0AFF2700C4FF0FF3823F0004360
:104B0000CDF850C065280CD006DC452809D04628D1
:104B10001DD047283DD13DE0662818D067287ED1BA
:104B200038E00021112F01DB112000E0781CCDE9D5
:104B3000000106A90EA8FFF7DDFCDDE90F010E9AC2
:104B400003910021009207F1010A04914DE04FF01A
:104B500000400097CDE9011006A90EA8FFF7CAFC96
:104B6000DDE90F0203920E9B11990022DDF80CA0E3
:104B70000093049211B9791C00EB010AB7EB0A000B
:104B800004D4C0F1FF3007F1010A0490AAEB07003A
:104B9000019044E0012F00DA01270021112F01DDEF
:104BA000112000E03846CDE9000106A90EA8FFF764
:104BB000A1FCDDE90F010E9A0391002104910092FE
:104BC000BA4621070CD40399514500DA8A46BAF156
:104BD000010F05DD009AAAF10101515C302908D0CE
:104BE000B84202DA10F1040F06DA0121CDE9011012
:104BF00015E0AAF10101E9E7002805DC0499014468
:104C00000491AAEB000102E0411C514500DD8A46F7
:104C10000499401A401C01904FF000400290200778
:104C200004D40198504501DBCDF8048000208DF8B4
:104C30004F0002980DF14F07B0F1004F25D02B2007
:104C40000E9002984FF0020800280CDA40420290C1
:104C50002D200E9007E00A210298FBF7F5FB30317A
:104C6000029007F8011DB8F10001A8F10108F2DC7B
:104C700002980028EFD1791E0E980870307800F065
:104C8000200040F0450007F8020D12A8C01B00F1FB
:104C900007081498007800B1012000EB0A01019880
:104CA00001EBE07105984144401A401E0590E00375
:104CB00006D45B462146179A059800F05DF8054436
:104CC0001498007818B15A46179990476D1CE00364
:104CD00024D55B462146179A059800F04DF8054407
:104CE0001CE00498002807DBDDE90301884203DDAE
:104CF0000098405C179901E0179930205A46904778
:104D0000049805F10105401C04900198401E019093
:104D100004D12E205A46179990476D1CBAF1000114
:104D2000AAF1010ADDDC05E017F8010B5A461799D4
:104D300090476D1CB8F10001A8F10108F4DC5B4656
:104D40002146179A0598ABE62D0000002B000000C5
:104D5000200000002DE9F041044600251E461746BC
:104D6000880404D405E039462020B0476D1C641E39
:104D7000F9D52846BDE8F0812DE9F041044600252B
:104D80001E469046C80301D5302700E0202788043E
:104D900004D505E041463846B0476D1C641EF9D580
:104DA0002846BDE8F0814A68002A06D00A68531CEC
:104DB0000B6010704868401E486070470A68531CBA
:104DC0000B601070704700000168044605A0FDF7F5
:104DD00079FF218AE068FBF7A1FFA06800F084FC5E
:104DE000F7E700005461736B20537461727475703F
:104DF0002025640A0D0000001CB5184B00EB800153
:104E0000012203EB81031649186028B1012809D05B
:104E100002280FD0FA2401E04FF4FA74D9601A8204
:104E20009C600EE00F4C0222DC6040F2EE211A8200
:104E3000996006E0D9604FF480441C824FF47A7286
:104E40009A601A1D0621CDE9001207494FF48072BD
:104E500051F82010054800F071FF1CBD90000020A3
:104E6000000402580010025800000020C94D00083C
:104E7000A0B0BFF34F8FBFF36F8F3249002008609F
:104E8000BFF34F8FBFF36F8F2F490A6842F4003290
:104E90000A60BFF34F8FBFF36F8F2B4A70321060E1
:104EA000BFF34F8F101F43F6FF740068254D103578
:104EB000C0F34E32C0F3C90304EA4216184600BFDD
:104EC00046EA80772F60401EFAD2521EF4D2BFF31A
:104ED0004F8F086840F480300860BFF34F8FBFF3F6
:104EE0006F8FFBF73BFFFEF7E3F9FDF701FFFDF7DF
:104EF000D9FFFEF70BF815A16846FFF7B1FA68462F
:104F0000FBF79BFA82B214484FF47A736946FDF7B7
:104F100077FEFEF75DF80020FFF76EFF0120FFF738
:104F20006BFF0220FFF768FF0C491C2219A8FBF752
:104F300060FA002119A800F028F80949086000F07B
:104F40001FF8FEE750EF00E014ED00E053746172CB
:104F50007475700A0D000000F8000020A8600008B9
:104F600018000020842801464FF0000000D0C81C23
:104F7000704710B500B9012000F0B6FB002010BD4D
:104F800010B500F0FDFB002010BD7FB50D46416956
:104F90000446B0F9080081B1A16971B1FFF7E2FFE1
:104FA000D4E905122B468DE807002269D4E90010E8
:104FB00000F0F1FE039004B070BDFFF7D3FF03A92A
:104FC0002B46CDE90001228AD4E9001092B200F00C
:104FD000B5FE012801D00020EDE70398EBE70000C3
:104FE0002DE9F041184C0F46054666692068001D02
:104FF00000F0B4FA38B922680121A06992F82C2097
:1050000091408843A061681C07D137B12168BDE891
:10501000F0410E48091D00F0E7BA20683544B5425A
:105020004560216805D2A068091DBDE8F04100F087
:10503000C3BA6068091D00F0BFFA206B854200D238
:105040002563BDE8F081000030000020F40400205A
:105050002DE9F041054600F0D3FA2E4C2E4F206981
:10506000401C2061206810B1E06940B32DE025604C
:105070002069012829D1002606EB860007EB800075
:1050800000F08CFA761C072EF6D323488C3000F003
:1050900085FA2148A03000F081FA1F48B43000F0B2
:1050A0007DFA1D48C83000F079FA1B48DC3000F06A
:1050B00075FA19488C3060601430A06005E0E86A29
:1050C0002168C96A814200D825600120E16A491C33
:1050D000E162E96AA26988401043A06101EB8100A6
:1050E000291D07EB800000F07FFA00F0A9FAE069C3
:1050F00000280CD02068E96AC06A884207D20749B4
:105100004FF080500860BFF34F8FBFF36F8FBDE843
:10511000F0810000300000201804002004ED00E0C1
:1051200030B4026C0B46002A0BD0C16844681144AD
:10513000C160A14201D30168C160184630BCFBF7D1
:1051400058B930BC70472DE9F041856B1746026CA9
:105150000446002682B1C7B1E068FBF74AF9E1686E
:10516000206C2268091AE160914202D26168081A33
:10517000E060022F16D017E02068A8B9606800F040
:10518000A7FE0646002060600EE0A068FBF731F93C
:10519000D4E90110226C1044A060884204D3206836
:1051A000A06001E005B16D1E6D1CA5633046BDE831
:1051B000F08110B5044690F8510058B101280CD088
:1051C00002280FD0502080F31188BFF34F8FBFF318
:1051D0006F8FFEE7206B00F047FA2046BDE81040D5
:1051E00000F042BA10BD000010484FF6FE7110B535
:1051F000420705D00D4AC01D20F00700821A891A07
:105200000B4C002301440839A4F1100221F00701DE
:10521000C4E900030C1A11604B600B60C0E9001474
:1052200094604FF000415460D16010BD080500202B
:105230007C000020144E4FF08058144CDFF8509042
:10524000A6F1C80712E000BF00F0DAF9F068C568FF
:10525000281D00F083F92069401E2061E068401E8F
:10526000E06000F0EDF92846FFF7A3FFE0680028B2
:10527000EAD138680128F9D9C9F80080BFF34F8F07
:10528000BFF36F8FF2E70000E00400203000002041
:1052900004ED00E00346009829B10260C0E90F3137
:1052A000012100F077BB0060F8E72DE9F0479A464E
:1052B00081466FF00303DDE9098403EB8202089D58
:1052C000206B104420F00706700707D0502080F3B1
:1052D0001188BFF34F8FBFF36F8FFEE723180A5C6F
:1052E00083F834200A5C12B1401C1028F6D3002742
:1052F00084F84370072D00D30625E562201DC4E91C
:10530000115700F056F904F1180000F052F9E76463
:10531000C5F10700A06184F85070524624614946E7
:105320003046646200F002F9B8F1000F206001D04D
:10533000C8F80040BDE8F08730B5114900E01146DB
:105340000A688242FBD34B685C18844203D14468EC
:10535000084623444B6043681D18954209D1084C08
:10536000103C2468A24209D052681A4442600A687C
:1053700012680260814200D0086030BD0460F9E725
:105380007C00002010B5044600F03AF9A06B28B16B
:105390005FF0000400F054F9204610BD0124F9E745
:1053A00006484168096829B14168C968C9684968FF
:1053B000016370474FF0FF31FAE700003000002032
:1053C00008484068401C4FF0500080F3118804D01A
:1053D000BFF34F8FBFF36F8FFEE7BFF34F8FBFF366
:1053E0006F8FFEE7840000202DE9F041044600F0B5
:1053F00007F994F9455004F1240609E0606A48B1C0
:10540000304600F0B5FD08B100F09CF96D1E6DB29C
:10541000002DF3DC4FF0FF3684F8456000F010F902
:1054200000F0EEF894F9445004F1100709E0206907
:1054300048B1384600F09CFD08B100F083F96D1EBC
:105440006DB2002DF3DC84F84460BDE8F04100F05B
:10545000F7B800002DE9F0410027044600F0C6F936
:10546000314E306808B9FFF7BFFEF06804424BD1F7
:10547000C4B3083460070ED004F00700C0F1080080
:105480000444600707D0502080F31188BFF34F8F8A
:10549000BFF36F8FFEE72CB37068844234D8224884
:1054A000103001460D6801E028460D466968A142AA
:1054B00002D229680029F7D131688D4224D00768CB
:1054C0002968016008376868011B10290FD928195D
:1054D000420708D0502080F31188BFF34F8FBFF3ED
:1054E0006F8FFEE710E041606C60FFF725FF696891
:1054F0007068401A7060B268904200D2B0600020BC
:10550000F2681143C5E9000100F06CFD780707D08F
:10551000502080F31188BFF34F8FBFF36F8FFEE7EA
:105520003846BDE8F08100006C00002070B5041F13
:10553000094E231F4FF0807521F0010125601C1FCB
:105540001960A0F120010B1F266044380A606FF03B
:1055500002051D6070BD0000C1530008D0E9013292
:1055600001699A60D0E901235A604A68824201D1F8
:1055700082684A60002202610868401E086008686C
:105580007047000010B5044C8023046004F15400FF
:105590000860136010BD0000840100204FF0FF334D
:1055A00000F108010022C0E901130260C16001613D
:1055B000704700210161704730B50B685A1C02D05A
:1055C00000F1080202E0026904E0224654682568FE
:1055D0009D42FAD953684B6099608A6051600861B6
:1055E0000168491C016030BD42684A6093688B6065
:1055F00093685960916008610168491C01607047B7
:10560000502080F31188BFF34F8FBFF36F8F0A498B
:105610004868401C486001280CD10848006810F018
:10562000FF0F07D0502080F31188BFF34F8FBFF3D7
:105630006F8FFEE7704700008400002004ED00E05B
:105640000849486828B1401E486001D180F311889C
:105650007047502080F31188BFF34F8FBFF36F8FD7
:10566000FEE700008400002070B5002827D0144D0C
:10567000A0F108046068E968084207D1502080F36F
:105680001188BFF34F8FBFF36F8FFEE722683AB1E7
:10569000502080F31188BFF34F8FBFF36F8FFEE769
:1056A0008843606000F0A2F8606869680844686038
:1056B0002046FFF741FEBDE8704000F093BC70BD8E
:1056C0006C0000204FF0E020002101614FF47A725D
:1056D0008161072303490968B1FBF2F1491E416169
:1056E0000361704728000020020010B514D00F4855
:1056F000806B38B1502080F31188BFF34F8FBFF318
:105700006F8FFEE700F072F800211046FFF768FC8B
:1057100000F068FC002807D105494FF08050086070
:10572000BFF34F8FBFF36F8F10BD0000300000201C
:1057300004ED00E002498A6A0260496941607047ED
:1057400030000020014901204862704730000020ED
:1057500010B50C4650B1094909681831FFF72CFF04
:105760002046BDE810400121FFF73ABC502080F3ED
:105770001188BFF34F8FBFF36F8FFEE7300000201B
:1057800010B586B0002405AA04A9039403A80494C4
:10579000FFF7F8FEDDE9030100940023CDE90110D5
:1057A00010480EA1059A00F0F6FA0F490028486348
:1057B00011D0502080F31188BFF34F8FBFF36F8F4C
:1057C00001224FF0FF300863CA614C6106B0BDE8AA
:1057D000104000F041B806B010BD000049444C45EF
:1057E0000000000035520008300000200248816BA4
:1057F000491C816370470000300000201448816B11
:1058000011B1012141627047002141621149826951
:10581000B2FA82F2C2F11F0202EB820251F8223088
:105820006BB101EB820101F108034A6852684A60DA
:105830009A4201D152684A60D16801607047502095
:1058400080F31188BFF34F8FBFF36F8FFEE7000027
:10585000300000201804002037481CB53749026882
:105860008A4207D1502080F31188BFF34F8FBFF3D6
:105870006F8FFEE731490068491E884207D15020EA
:1058800080F31188BFF34F8FBFF36F8FFEE72C4972
:10589000FF200A780192087008788DF800009DF8C2
:1058A00000209DF8000002F0F002824207D0502054
:1058B00080F31188BFF34F8FBFF36F8FFEE79DF822
:1058C000002007201F4C02F050022270A06005E06B
:1058D0009DF8002052008DF80020401E9DF8002009
:1058E0001206F5D40328A06007D0502080F3118859
:1058F000BFF34F8FBFF36F8FFEE74FF44070A06090
:10590000019808700C482030016841F47001016072
:10591000016841F070410160FFF7D4FE0020606033
:10592000FAF7E8FC0848016841F040410160FAF7E5
:10593000CDFC00201CBD000000ED00E071C20F4155
:1059400000E400E08400002034EF00E0F8B505003A
:1059500017460E4614D0DEB105FB06F04830FFF7BF
:1059600079FD04000AD0002084F8460004F14802C2
:105970003B46314628460094FFF78CFC2046F8BD94
:10598000502080F31188BFF34F8FBFF36F8FFEE776
:105990000020E3E72DE9F04704008A4629D0FFF70D
:1059A0002FFE21680025D4E90F23D4F840C004F16C
:1059B000100810460E46401E4FF0FF3902FB03123E
:1059C00000FB0C10BAF1000FA563A66084F84490A8
:1059D00084F845906260E06013D04046FFF7DEFD3A
:1059E00004F12400FFF7DAFDFFF72AFE0120BDE8ED
:1059F000F087502080F31188BFF34F8FBFF36F8F74
:105A0000FEE720690028EFD0404600F0B1FA0028F8
:105A1000EAD004494FF080500860BFF34F8FBFF3C6
:105A20006F8FE1E704ED00E02DE9FF4704001D461C
:105A300082B08A464FF0000803D0BAF1000F08D0B8
:105A400011E0502080F31188BFF34F8FBFF36F8FA9
:105A5000FEE7206C38B1502080F31188BFF34F8FE0
:105A6000BFF36F8FFEE7022D0AD1E06B012807D04C
:105A7000502080F31188BFF34F8FBFF36F8FFEE785
:105A800000F0B4F93F4F4FF080564FF0000948B98D
:105A9000049838B1502080F31188BFF34F8FBFF3C3
:105AA0006F8FFEE7FFF7ACFDA06BE16B884207D379
:105AB000022D05D00498D0B1B8F1000F1AD01EE025
:105AC0002A4651462046FFF73EFB616A19B104F1B0
:105AD000240000F04DFA20B13E60BFF34F8FBFF3BA
