:020000040800F2
:10000000408300206D03000803350008B930000864
:1000100001350008B3040008A33D000800000000FB
:10002000000000000000000000000000AD02000819
:10003000B504000800000000090300087537000837
:100040008703000887030008870300088703000868
:100050008703000887030008870300088703000858
:100060008703000887030008870300088703000848
:100070008703000887030008870300088703000838
:100080008703000887030008870300088703000828
:100090008703000887030008870300088703000818
:1000A00087030008F9380008870300088703000861
:1000B00087030008870300088703000887030008F8
:1000C00087030008870300088703000887030008E8
:1000D00087030008870300088703000887030008D8
:1000E000870300088703000800000000870300085A
:1000F00087030008870300088703000887030008B8
:1001000087030008870300088703000887030008A7
:100110008703000887030008870300088703000897
:100120008703000887030008870300088703000887
:100130008703000887030008870300088703000877
:1001400000000000000000000000000000000000AF
:100150008703000887030008870300088703000857
:100160008703000887030008870300088703000847
:1001700087030008870300088703000800000000C9
:100180008703000887030008870300088703000827
:100190008703000887030008870300088703000817
:1001A0008703000887030008870300088703000807
:1001B00087030008870300088703000887030008F7
:1001C00087030008870300088703000887030008E7
:1001D00087030008870300088703000887030008D7
:1001E00087030008870300088703000887030008C7
:1001F00087030008870300088703000887030008B7
:1002000087030008870300088703000887030008A6
:100210008703000887030008870300088703000896
:100220008703000887030008870300080000000018
:100230008703000887030008000000008703000808
:100240008703000887030008870300088703000866
:100250008703000887030008870300088703000856
:100260008703000887030008870300088703000846
:1002700087030008870300088703000800000000C8
:1002800087030008870300088703000800000000B8
:100290000000000087030008DFF80CD000F0CCF865
:1002A0000048004755630008408300202C4B196824
:1002B0000868B0E8F04F80F30988BFF36F8F4FF004
:1002C000000080F3118870470000000008480068B3
:1002D000006880F308884FF0000080F3148862B64D
:1002E00061B6BFF34F8FBFF36F8F00DF00BF00BF5A
:1002F00008ED00E0DFF80C00016841F470010160D6
:10030000704700BF88ED00E0EFF30980BFF36F8F07
:10031000134B1A681EF0100F08BF20ED108A20E959
:10032000F04F106009B44FF0500080F31188BFF314
:100330004F8FBFF36F8F0CF011FA4FF0000080F376
:10034000118809BC19680868B0E8F04F1EF0100F5A
:1003500008BFB0EC108A80F30988BFF36F8F704735
:1003600018010020EFF30580704700000648804721
:1003700006480047FEE7FEE7FEE7FEE7FEE7FEE78A
:10038000FEE7FEE7FEE7FEE75D3800089902000899
:1003900040EA01039B0703D009E008C9121F08C007
:1003A000042AFAD203E011F8013B00F8013B521E87
:1003B000F9D27047D2B201E000F8012B491EFBD2FE
:1003C00070470022F6E710B513460A460446194660
:1003D000FFF7F0FF204610BD10B5044604E00B788F
:1003E00000F8013B03B1491C521EF8D2204610BD53
:1003F00030B504460020034600E05B1C934203D264
:10040000E05CCD5C401BF8D030BD30B50B460146FA
:1004100000202022012409E021FA02F59D4205D3A3
:1004200003FA02F5491B04FA02F52844151EA2F14D
:100430000102F1DC30BD0000064C074D06E0E0682B
:1004400040F0010394E8070098471034AC42F6D31B
:10045000FFF726FFA4D70008C4D7000870B58C1892
:1004600010F8015B15F0070301D110F8013B2A11C8
:1004700006D110F8012B03E010F8016B01F8016BB5
:100480005B1EF9D12B0705D40023521E0DD401F8B1
:10049000013BFAE710F8013BCB1A921C03E013F87A
:1004A000015B01F8015B521EF9D5A142D8D30020AF
:1004B00070BDFEE7704770B5A2B0064600244FF449
:1004C000C36001258DF80F5002238DF81D4069038C
:1004D0008DF80E5009948DF81F400D9020208DF856
:1004E00004508DF8325042028DF8605006914FF062
:1004F00040518DF8384002948DF861408DF81C40D1
:100500008DF828408DF862408DF80C400B948DF8E2
:100510001E500F948DF8115012948DF840408DF8B4
:1005200031408DF8124014948DF8564017903046A3
:1005300016938DF8205005928DF854408DF8304078
:100540008DF81050009169468DF80D408DF855409A
:1005500011948DF84C5000F01DFA1B9568058DF82C
:1005600071404FF406718DF8685019948DF88040F1
:100570008DF870401F908DF878401D9030468DF8B2
:100580008140219119A900F0ABF922B070BD002083
:10059000704701F0FFB80000024810B500F0C8FE37
:1005A000002010BD4808002013460A4601460448B2
:1005B00010B500F07FFE002801D04FF0FF3010BDD5
:1005C0004808002013460A460146044810B500F0CA
:1005D0009FFF002801D04FF0FF3010BD48080020D9
:1005E0002DE9F047836A00F1180592468C680027D0
:1005F0001E4655F82320D2F80CC0BCF1000F73DB67
:1006000091F800C05FEA4C7C43D5D2F80CC0D1F819
:1006100024806FF30F0C4CEA080CC2F80CC0D2F81F
:100620000CC04CF4803CC2F80CC0D0F800C0DCF820
:10063000608048F48018CCF8608091F800C05FEAD0
:100640000C7C26D5B1F82C80D2F808C068F31F4C7A
:10065000C2F808C0D2F80CC04CF4003CC2F80CC080
:10066000D2F80CC0D1F830802CF4402C4CEA080CA5
:10067000C2F80CC0D0F800C0DCF8648048F48018E0
:10068000CCF864800068D0F850C04CF0806CC0F8A2
:1006900050C00878C0060BD59068D1F818C06FF329
:1006A0000D0040EA0C009060D06840F08060D0609F
:1006B000087810F0140F18D0D0685B1C042B40F0A1
:1006C0008040D060D06840F00040D06000D31B1F55
:1006D000012755F82320D068002806DA55F82600AF
:1006E000C16821F00041C16099E020681060906805
:1006F000D4F804C06FF30D0040EA0C009060DFF8FE
:10070000DCC17F1CA0684FF0000950B104460068AE
:100710005060D2F80880A08808EA0C0848EA004037
:1007200004E0C2F80490906800EA0C009060087839
:10073000C006D06812D5B1F8208020F4F00040EA5D
:10074000C840D060D068D1F81C806FF3110040EA37
:100750000800D060D06840F480201BE0D1F804800D
:100760006FF30E0040EA0800D0600878C00707D099
:10077000D068D1F8148020F4403040EA0800D060FE
:100780000878800607D5D068D1F8108020F0406046
:1007900040EA0800D0600878400707D59068D1F893
:1007A000288020F4404040EA08009060D06840F083
:1007B0000050D060D06820F08040D060D06840F019
:1007C0000040D0600878800774D5D068D1F80C80DC
:1007D00020F0607040EA08006BE0D0685B1C042BDE
:1007E00020F08050D06000D31B1F55F82320D06824
:1007F00020F00050D060D068002813DA55F8261099
:1008000000200AE0CA68761C042E22F00042CA606A
:1008100000D3361F401C55F82610B842F2D30220F0
:10082000BDE8F087A468206810609068D4F8048060
:100830006FF30D0040EA08009060A0687F1C50B183
:10084000044600685060D2F80880A08808EA0C08C6
:1008500048EA004004E0C2F80490906800EA0C0006
:1008600090600878C006D0680AD5D1F81C806FF374
:10087000110040EA0800D060D06840F4802010E009
:10088000D1F804806FF30E0040EA0800D0600878C9
:10089000C00707D0D068D1F8148020F4403040EA77
:1008A0000800D060D06840F00040D060D06820F0F0
:1008B0008040D060A06800288FD19068BAF1000F06
:1008C00002D040F0004001E020F000409060D0688D
:1008D00040F08050D06000202B61A1E7FFFF00C0F6
:1008E000F0B5026847F6020E274E4DF2010702F5F9
:1008F0008052264DD1F800C01368254C23EA0E0320
:1009000043EA0C0313600B79026891F80CE002F5DE
:100910008052D1F808C01B0343EACE3343EA0C03EC
:10092000D2F804C02CEA070C4CEA030CC2F804C04D
:1009300002684F7B02F580520B6A43EA0747D2F800
:10094000003133403B43C2F8003102680B7D02F5B1
:10095000805291F81DC00F69D2F804611B0143EA6F
:100960000C332E403B431E43C2F8046100680B7FEA
:1009700000F580508A69D0F8081142EAC37221401C
:100980001143C0F80811F0BD00C0FEFFEFEFC0FF3B
:10099000FFFFC07FF0B50B790C7B0F688A68DB0620
:1009A0004D7B43EAC4533A438E7B1A43CF7B91F885
:1009B00010C042EA855242EA4652BCF1000F42EAB8
:1009C00007537CD000224C7C002C43EAC24278D0F2
:1009D00000238E7C0D7F42EA43428F7FD1E90534AC
:1009E00042EA06424E7F1A43224342EA0532002F72
:1009F00042EAC62466D00022CD7F91F8203044EA36
:100A00008222002B42EA45227ED0002504684B6AF0
:100A100042EA052291F82870464D1A43CE6A2368AF
:100A200042EA071232432B401343236091F83C20E3
:100A300091F8383091F8305091F83140520642EA3E
:100A4000036291F8326042EA854242EA4444BEB30E
:100A500000220368384E4F6B44EA02425C683A4316
:100A600040F20F15344014435C60036891F8406015
:100A70004C6CDA6844EA0624AA432243DA6091F80F
:100A800054300A6D91F84C4042EA4302ECB3002422
:100A90000368B1F848504FF60D76E7011C6F47EA3E
:100AA00005452A43344014431C67026891F85630C8
:100AB00091F8555052F8904F43EA450303E02BE07C
:100AC00032E02BE02CE024F003041C4314600268A5
:100AD0008C6DD2F8003D23F072032343C2F8003D31
:100AE00091F86020CC6D1AB35FF00003026891F8B2
:100AF000615091F8621044EA8310D2F8303D2C0125
:100B000044EAC101084301E00CE00FE023F07B015F
:100B10000143C2F8301DF0BD012254E7012358E71C
:100B2000012269E7012571E7012292E70124AFE77D
:100B30000123DBE7838004000080F8C070470000D9
:100B400070B5044600F026FE0546601C02D004483D
:100B50000078044400F01EFE401BA042FAD370BD92
:100B60003800002000F12C02F0B5D2E9053452F82B
:100B7000231024B1D56905B1641C002523E00120B0
:100B8000F0BD0F694FF080760F60CE604E692EB1D8
:100B90004E698E60CE6846F00076CE60CE6846F034
:100BA0000046CE60166A1EB1CE6846F08046CE6022
:100BB0009669761EAE4205D95B1C042B00D31B1F21
:100BC00052F823106D1CA542DBD30068002300F50A
:100BD0008050C0F8281118469361F0BD10B500EBA5
:100BE0008104E46A0AB1042903D30121C1650846DE
:100BF00010BD22602261E06840F08070E0602BB19F
:100C0000A3606361E06840F00070E060E06840F07D
:100C10000040E060002010BD00297DD0026812680D
:100C200002F00C02CA6202681268C2F3001281F874
:100C300028200268126802F060024A6202681268A4
:100C400042F30022521C81F8202002681268C2F38D
:100C50004022CA770268126842F38022521C8A77C7
:100C600002681268C2F3C0224A7702681268C2F3AF
:100C700000320A770268126802F400528A61026840
:100C8000126802F480424A6102681268C2F30042AC
:100C90008A740268126842F34042521C4A74026825
:100CA000126842F3C042521C0A7402681268C2F30E
:100CB0000052CA7302681268C2F340528A73026813
:100CC0001268C2F380524A7302681268C2F3C052BB
:100CD0000A730268126802F0E0628A6002681268B1
:100CE000C2F3C0620A710268126802F0E0420A6050
:100CF00002685268C2F30D024A630268526842F306
:100D00000042521C81F8322002685268C2F340420D
:100D100081F83120026800E062E05268C2F380424C
:100D200081F8302002685268C2F3006281F83820EE
:100D300002685268C2F34462CA630268D268C2F3AE
:100D4000002281F840200268D26802F00F024A6453
:100D50000268126FC2F3400281F854200268126FD9
:100D600042F3C012521C81F84C200268126F02F04C
:100D700070020A650268126F120C8A640268D2F867
:100D8000902002F0010281F856200268D2F89020EB
:100D9000C2F3400281F855200268D2F8002D02F01B
:100DA00072028A650268D2F8302D02F02302CA6509
:100DB0000268D2F8302DC2F3C00281F862200268C6
:100DC000D2F8302DC2F3001281F861200068D0F80B
:100DD000300D40F38010401C81F860000020704707
:100DE00001207047F0B50C00016C00F12C0605469F
:100DF0004FF0000756F8210002D0B2691AB109E09D
:100E00000120E86539E0284600F056F9A0B3716981
:100E100056F82100002215E0036923606B696360C6
:100E2000436923B1A468436923606B696360C06848
:100E3000491C0429C0F30E0700D3091FA468521CE3
:100E400056F82100B3695B1E9342E5D8C168026978
:100E500022606A69C1F30E01C91B8A4201D3616035
:100E600008E0436943B16260A26840691060686944
:100E7000081A50600020F0BDFFE70120FBE770B5C5
:100E800000F12C040D46D4E9056111B900F014F904
:100E900068B1A069761E3044042800D3001F54F8BE
:100EA0002000C068C0F30E002860002070BD012043
:100EB00070BD0000F8B5040002D0606D10B104E010
:100EC0000120F8BD204600F05FF9232060657048DE
:100ED000016841F002010160006800F0020000902A
:100EE000207A08B14FF4000001F0EEFE206800F512
:100EF0008050016841F00101016000F04BFCE026E8
:100F000005464FF4FA7706E000F044FC401BB84277
:100F100001D9042049E0206800F580500068C0072E
:100F2000F2D12068D0F8000220F4706501F0ACFB2B
:100F3000584A594902448A4202D245F4007516E0E3
:100F4000564A574902448A4202D245F440750EE09F
:100F50005449554A0144914209D35449544A0844DA
:100F6000904202D245F4807501E045F48065206826
:100F7000C0F8005201F088FB4E4A2168B0FBF2F045
:100F8000401EC1F8DC002046FFF795FA206800F506
:100F90008050D0F8001121F4E01141F40021C0F894
:100FA00000116169880703D00120E065666587E765
:100FB000206847F6FE7300F58050D0F808219A4368
:100FC00042EA4101C0F8081100210846E26800EB3E
:100FD000400504EB800302EBC50211605160916093
:100FE000D160401C04289A61F0D3A16203232068D9
:100FF00000F58050C0F82C312068E26800F5805080
:10100000C0F814212068E26800F58050C0F8202163
:101010005FF00002206902EB420604EB820500EB60
:10102000C600016041608160C16001614161521C84
:10103000042AE862EED3E16321646164E164A1649F
:10104000206800F58050C0F830312068226900F532
:101050008050C0F81C212268206902F5805200F5FA
:10106000D860C2F82801D4E900208088C2F80003C3
:1010700060682368D0F801500278102042EA052207
:10108000C3F80423E1656065A0650020F8BD000099
:10109000F444025800D3CEFEC0E1E40040F1E9FD83
:1010A00040787D0100796CFC005A6202001F0AFA48
:1010B00080F0FA0240420F0070B5C16B0025466C0B
:1010C0002C302A462B4650F821404EB3002070BDEC
:1010D000E6686D1CF6001AD5521C012A00D10B4699
:1010E000491C042900D3091F50F82140E568002D50
:1010F00008DBE468640005D50124C461491C0429A7
:1011000000D3091F8261C0E90413012070BDE468A7
:10111000A40011D50B46491C01220FE050F82140D4
:10112000E668002E01DB042DD2D34AB350F8231019
:1011300000244FF0807521E0491C521C0429EDD396
:10114000091FEBE70E690E60CD604E692EB14E6946
:101150008E60CE6846F00076CE60CE6846F00046DF
:10116000CE60066A1EB1CE6846F08046CE605B1C3B
:10117000042B00D31B1F641C50F823109442E1D3AE
:1011800000218161A2E7000070B586B004461421F9
:101190006846FFF716F940492068884279D13F48F0
:1011A000016841F400410160016801F400410591CA
:1011B000016841F480310160016801F480310591DA
:1011C000016841F400310160006800F400300590CE
:1011D00032480830016841F010010160016801F0F7
:1011E00010010591016841F004010160016801F0FE
:1011F00004010591016841F001010160016801F0FD
:1012000001010591016841F002010160016801F0EE
:1012100002010591016841F040010160006800246D
:101220000B26694600F0400005900420009002253E
:101230001B48CDE90154CDE9034600F09BF93E205F
:101240000090CDE9015417486946CDE9034600F006
:1012500091F98F200090CDE9015413486946CDE9FA
:10126000034600F087F942F203000090CDE90154F3
:101270000E486946CDE9034600F07CF94FF4205052
:101280000090CDE901540A486946CDE9034600F0D3
:1012900071F906B070BD000000800240D8440258C9
:1012A00000100258000802580000025800040258BA
:1012B000001802582DE9F041044600681E46D0F897
:1012C0000032DB0719D1D0F8003223F0787343EAFB
:1012D000415121F4F81141EA024141F00D01C0F8F9
:1012E000001200F057FA4FF47A77054608E000BF85
:1012F00000F050FA401BB84202D90120BDE8F0814D
:101300002068D0F80002C007F2D12068D0F80402AB
:1013100080B230600020F1E710B511B1826D102A63
:1013200001D0012010BDFFF735FB002010BD0000EB
:1013300070B505460068D0F8000220F4706401F032
:10134000A3F91149114A0144914202D244F40074B4
:1013500016E00F4A0F4902448A4202D244F4407414
:101360000EE00D4A0D4902448A4209D30C4A0D4948
:101370001044884202D244F4807401E044F4806452
:101380002868C0F8004270BD00D3CEFEC0E1E40082
:1013900040F1E9FD40787D0100796CFC005A620261
:1013A000001F0AFA80F0FA0230B5426D0021C36ACC
:1013B000102A01D0012030BD232444650022DC68BE
:1013C000491C042944F08044DC6000D3091F521CEE
:1013D00000EB8103042ADB6AF1D30121C1640168B7
:1013E000102322244DF241020D6845F002050D60E4
:1013F00001680D6845F001050D600168D1F8005DD8
:1014000045F00105C1F8005D016801F58051D1F892
:10141000045145F00105C1F80451016801F58051FE
:10142000D1F8085145F00105C1F80851016801F5EE
:101430008051D1F8605145F48175C1F86051436520
:101440008465006800F58050D0F834111143C0F86D
:101450003411002030BD2DE9F0419046044619B109
:10146000606D102804D050E0E06D40F0010007E00E
:1014700000222046FFF7B4F820B1E06D40F00200F2
:10148000E06542E0A06A04EB8001401C04288D69FD
:10149000A06201D3001FA0620146206804EB810115
:1014A00000F580508969C0F8201100F073F9102709
:1014B00006461EE0206800F58050D0F86001C004A8
:1014C0000CD5E06DE02140F00800E065206800F5F3
:1014D0008050D0F860012066616516E0B8F1FF3FEA
:1014E00007D000F057F9811B414509D8B8F1000F2A
:1014F00006D0E8680028DDDB67650020BDE8F081E4
:10150000E06D40F00400E06567650120F6E700004B
:1015100070B504460068D0F80052ED071FD1D0F82E
:1015200000029BB2124D20F07870C5F8043240EAF8
:10153000415020F4F81040EA024020F00C00001D59
:1015400040F00100C5F8000200F024F94FF47A766B
:10155000054606E000F01EF9401BB04201D901200B
:1015600070BD2068D0F80002C007F3D170BD000044
:10157000008002402DE9F84F714C00234FF0B04E2F
:101580004FF001094FF0030B4FF00F0AD0E000BFFE
:1015900009FA03F812EA080274D04D68022D01D04E
:1015A000122D0FD1DD085F0700EB850500950E6950
:1015B0002D6AFF0E0AFA07FCBE4025EA0C052E43F1
:1015C000009D2E625D000F7906680BFA05FC07F09E
:1015D000030726EA0C06AF40374307604E68012E2A
:1015E00005D0022E03D0112E01D0122E0FD1866805
:1015F000CF6826EA0C06AF403743876046680F790C
:1016000026EA0806C7F300179F4037434760C668BD
:101610008F6826EA0C06AF403743C7604D68ED007F
:1016200030D5484D2E6846F002062E602D6823F016
:10163000030606F1B04605F0020500959D072F0F41
:10164000D6F80854DFF800810AFA07FC404525EA7D
:101650000C0502D14FF0000C41E0DFF8F0C060450E
:1016600002D14FF0010C3AE0DFF8E4C0604502D14E
:101670004FF0020C33E0DFF8DCC0604503D14FF0DF
:10168000030C2CE053E0DFF8D0C0604502D14FF0EE
:10169000040C24E0DFF8C4C0604502D14FF0050C13
:1016A0001DE0DFF8BCC0604502D14FF0060C16E02B
:1016B000DFF8B0C0604502D14FF0070C0FE0DFF853
:1016C000A8C0604502D14FF0080C08E0DFF89CC0CC
:1016D000604502D14FF0090C01E04FF00A0C0CFA02
:1016E00007FC4CEA050CC6F808C425684E6825EAD4
:1016F0000205F60300D51543256065684E6825EAA6
:101700000205B60300D5154365604F687546DEF8DF
:101710000060FF0226EA020600D516432E604F68DD
:101720006E68BF0226EA020600D516436E605B1C97
:101730000A6832FA03F57FF42BAFBDE8F88F00009A
:1017400080000058F4440258000002580004025877
:1017500000080258000C02580010025800140258E9
:1017600000180258001C0258002002580024025899
:10177000426931EA020200D10904816170470AB16D
:10178000816170470904FBE701480068000C70475D
:101790000010005C0148806870470000380000209D
:1017A0000248816802781144816070473800002047
:1017B000032010B500F0A2F800F08EFF0E490F4A8A
:1017C0000F4B0C68C4F30324145D04F01F04E040C5
:1017D0001860096801F00F01515C01F01F01C84059
:1017E00008490860002000F00FF808B1012010BD82
:1017F00000F044F8002010BD1844025808D5000835
:10180000440000204800002010B5002201461920A5
:101810008AB000F053F8192000F042F8134801682C
:1018200041F001010160006808A900F00100099081
:10183000684600F0FBFE00F03DFF0D49400000222D
:101840000C4CB0FBF1F10C4840F2E7330460C0E906
:101850000332491EC0E9011201F074FA10B10120EF
:101860000AB010BD044801F09BFAF9E7F0440258B1
:1018700040420F0000000140D8090020074882B014
:10188000016841F002010160006800220F2100F0B0
:1018900002000090901E02B000F010B8F44402580C
:1018A000002809DB410900F01F028900012001F135
:1018B000E0219040C1F80001704700000E4BF0B4E9
:1018C0001B680D46C3F30223C3F10706042E00D99B
:1018D0000426191D072901D2002300E0DB1E012484
:1018E00004FA06F19C40491E2940641E99401440A8
:1018F0002143F0BC02F066BA0CED00E0064900F0AE
:10190000070210B54FF6FF040868044B204040EA78
:1019100002201843086010BD0CED00E00000FA053D
:1019200001680123C0F8FC33002280F8F4238869A1
:10193000044A40F000608861486D1043486500200B
:1019400070470000030000102DE9F04104008AB048
:1019500005D094F8BD030025266820B108E00120D9
:101960000AB0BDE8F081204684F8BC5300F066F868
:10197000032084F8BD03F06BC00500D42561206806
:1019800002F0D0F904F11001684628228846FEF7DB
:10199000FFFC94E80F0002F09DF80227D8BB2068F6
:1019A000002102F0E7F90020012610E0C0EBC001A1
:1019B000421C04EB810181F83D6081F83F504D6489
:1019C0008D640D6581F83C00A1F84200D0B26168D9
:1019D0008142EBD8002011E0C0EBC001421C04EBB7
:1019E000810181F8FD5181F8FF51C1F80452C1F81D
:1019F0000852C1F8105281F8FC01D0B261688142EE
:101A0000EAD8282241466846FEF7C2FC94E80F0057
:101A100002F0C4F810B184F8BD73A0E7606A84F8DE
:101A2000385084F8BD63012802D12046FFF778FFC3
:101A3000206802F0A7F8002092E7000010B586B0F9
:101A4000044614216846FEF7BCFC1349206888420E
:101A500020D11248016841F00101016000680A23A9
:101A6000022200F00100059000204FF4C0510091C7
:101A70006946CDE90120CDE903030948FFF77AFD66
:101A800006480838016841F000610160006800F014
:101A90000060059006B010BD00000840E044025808
:101AA00000000258124970B50A68520706D40A6845
:101AB00002F00702824201D0012070BD0A6822F0C4
:101AC000070202430A60FFF765FE094D4FF47A767C
:101AD0000446083D07E000BFFFF75CFE001BB04274
:101AE00001D9032070BD28688004F5D5002070BDA1
:101AF0000C4802580248016841F08071016070474B
:101B00000C48025810B500F0E7FD064A0649126875
:101B1000064BC2F303229A5C02F01F02D040086019
:101B200010BD0000184402584400002008D50008E9
:101B30002DE9FC5F044650F8241B002500902E463A
:101B40000801FE4FDFF8F8931DD5606E50B1B0F577
:101B5000801F0CD0B0F5001F0ED0B0F5401F1DD077
:101B600001250FE0386840F40030386016E00221AB
:101B7000201D01F0C7FC03E00098022101F052FD96
:101B800005000BD02E462088C00523D5606D0528A2
:101B90001ED2DFE800F00C11161B1B00626ED9F894
:101BA000001021F440111143C9F80010EBE7386828
:101BB00040F40030386009E00021201D01F0A2FC53
:101BC00003E00098002101F02DFD05466DB100E015
:101BD00001252E462088800528D5A06D80281ED09E
:101BE0000CDC90B140280ED114E0626DD9F80010E1
:101BF00021F007011143C9F80010EBE7C02813D00A
:101C0000B0F5807F10D001250FE0386840F4003037
:101C1000386009E00021201D01F074FC03E0009809
:101C2000002101F0FFFC054695B12E462088DFF823
:101C30001083400508F108082CD5D4F8A400B0F5AD
:101C4000800F20D00DDCA0B1B0F5001F0FD115E042
:101C5000A26DD9F8001021F4E0711143C9F8001009
:101C6000E4E7B0F5C00F13D0B0F5000F10D0012598
:101C70000FE0386840F40030386009E00021201D92
:101C800001F040FC03E00098002101F0CBFC054688
:101C900075B12E46208800052DD5D4F8A800B0F1E6
:101CA000007F21D00EDCA8B1B0F1807F10D116E00A
:101CB000D4F8A420D8F8001021F460011143C8F82A
:101CC0000010E7E7B0F1407F13D0B0F1806F10D083
:101CD00001250FE0386840F40030386009E0002149
:101CE000201D01F00FFC03E00098002101F09AFC98
:101CF00005466DB12E46206880011FD5A06CD8B175
:101D000010280FD0202812D0302815D0012514E03B
:101D1000D4F8A820D8F8001021F0E0611143C8F8E9
:101D20000010E8E7386840F40030386004E0022131
:101D3000201D01F0E7FB05466DB12E462088C0044A
:101D40002BD5E06DB0F5005F20D00DDCA0B1B0F573
:101D5000805F0FD115E07A48A26C001F016821F066
:101D6000300111430160E9E7B0F5405F13D0B0F5F1
:101D7000804F10D001250FE0386840F40030386003
:101D800009E00021201D01F0BDFB03E000980021C7
:101D900001F048FC054685B12E462088800429D5EF
:101DA000206EB0F5403F23D010DC08B3B0F5803F83
:101DB00014D0B0F5003F0FD115E0E26DD9F8001056
:101DC00021F4E0411143C9F80010E6E7B0F5802F97
:101DD0000ED0B0F5A02F0BD001250AE00121201D67
:101DE00001F090FB03E00098012101F01BFC054687
:101DF0008DB12E46208840042AD5D4F8AC00B0F12D
:101E0000405F23D010DC08B3B0F1805F14D0B0F194
:101E1000005F0FD115E0226ED9F8001021F4E02107
:101E20001143C9F80010E5E7B0F1804F0ED0B0F1D2
:101E3000A04F0BD001250AE00121201D01F062FB1B
:101E400003E00098012101F0EDFB05466DB12E463F
:101E5000208800041FD5E06ED8B1B0F1805F0ED0AD
:101E6000B0F1005F10D0012514E0D4F8AC20D8F810
:101E7000001021F0E0411143C8F80010E8E738688D
:101E800040F40030386004E00121201D01F03AFBED
:101E900005466DB12E462068C0011ED5606CD0B1DC
:101EA00001280ED0022811D0032814D0012513E0F8
:101EB000E26ED9F8001021F040511143C9F800102A
:101EC000E9E7386840F40030386004E00221201D62
:101ED00001F018FB054685B12E462068DFF85CB09E
:101EE0004002ABF11C0B57D51648016841F48071D4
:101EF0000160FFF74FFC82460EE01148626C001F44
:101F0000016821F0030111430160E6E7FFF742FC9D
:101F1000A0EB0A0064283DD80A480068C005F5D542
:101F20007DBBDFF81CA0B4F8B0100AF1200ADAF883
:101F3000000001F4407100F4407005E02C440258A8
:101F40005044025800480258884211D0DAF8001074
:101F5000DAF8002021F4407142F48032CAF80020FF
:101F6000DAF8002022F48032CAF80020CAF8001003
:101F7000D4F8B000B0F5807F21D1FFF70BFC0190C1
:101F800019E008E0FFF706FC0199411A41F2883098
:101F9000814210D903252E462078DFF82CA4C007F3
:101FA0003DD0A06F182838D026DC80B3082829D06F
:101FB000102825D12CE0DAF800008007E2D5D4F80B
:101FC000B010C1F30120032858460DD0016821F458
:101FD0007C510160B4F8B020DAF80010C2F30B02B3
:101FE0001143CAF80010D7E7F84A036802EA111251
:101FF00023F47C511143ECE720280ED028280CD084
:1020000001250BE00121201D01F07CFA04E004E031
:102010000098012101F006FB05465DB12E462078AF
:1020200080071ED5606F062819D2DFE800F0160C75
:1020300011161616A26FDAF8001021F038011143BC
:10204000CAF80010EBE70121201D01F05BFA03E064
:102050000098012101F0E6FA054675B100E001257E
:102060002E46207840071FD5D4F89000062819D2B4
:10207000DFE800F0160C11161616626FDAF8001081
:1020800021F007011143CAF80010EAE70121201DE1
:1020900001F038FA03E00098012101F0C3FA054687
:1020A0009DB100E001252E46207880062BD5D4F87E
:1020B0008C00B0F1405F24D011DC10B3B0F1805F30
:1020C00015D0B0F1005F10D116E0D4F89020D8F808
:1020D000001021F007011143C8F80010E4E7B0F147
:1020E000804F0ED0B0F1A04F0BD001250AE00021A7
:1020F000201D01F007FA03E00098022101F092FA96
:1021000005468DB12E46207840062BD5D4F8980090
:10211000B0F5406F24D011DC10B3B0F5806F15D04E
:10212000B0F5006F10D116E0D4F88C20DAF800106A
:1021300021F0E0411143CAF80010E4E7B0F5805FF8
:102140000ED0B0F5A05F0BD001250AE00021201DC4
:1021500001F0D8F903E00098022101F063FA054686
:102160008DB12E46207800062BD5D4F89C00B0F512
:10217000C04F24D011DC10B3B0F5005F15D0B0F51E
:10218000804F10D116E0D4F89820D8F8001021F430
:10219000E0511143C8F80010E4E7B0F5004F0ED04D
:1021A000B0F5204F0BD001250AE00021201D01F0E1
:1021B000A9F903E00098022101F034FA054665B35D
:1021C0002E46207800070BD5D4F88010B1F5805F3B
:1021D0002DD0DAF8002022F440520A43CAF8002039
:1021E0002078C0060BD5D4F89410B1F5807F26D0A6
:1021F000D8F8002022F440720A43C8F80020206872
:10220000000330D5D4F8A00008B3B0F5803F23D048
:10221000B0F5003F25D0012524E0D4F89C20D8F863
:10222000001021F460411143C8F80010C9E700987C
:10223000022101F0F7F90028D2D00126D0E700985A
:10224000022101F0EFF90028D9D00126D7E70021BB
:10225000201D01F057F903E00098022101F0E2F996
:10226000054685B12E462068400322D5D4F8840067
:10227000B0F5801F11D0B0F5001F13D0B0F5401F8E
:1022800015D0012514E0D4F8A020D8F8001021F4CE
:1022900040311143C8F80010E5E7386840F40030D9
:1022A000386004E00098012101F0BCF9054655B101
:1022B0002E462068C0031CD5E06C70B1B0F5803F9D
:1022C00010D0012514E0D4F88420DAF8001021F4AD
:1022D00040111143CAF80010EBE7386840F40030B1
:1022E000386004E00221201D01F00CF90546CDB153
:1022F0002E462068800005D50098022101F092F951
:1023000000B10126206880031BD5E06FB8B1B0F59D
:10231000807F10D0B0F5007F11D0B0F5407F0ED097
:1023200001250DE02848E26C0838016821F480316D
:1023300011430160DDE7386840F400303860EDB3E8
:102340002E462068C00207D5226FD9F8001021F070
:1023500000411143C9F800102068C00008D5D4F826
:10236000B420DBF8001021F480411143CBF80010B9
:102370002068800207D5A26ED9F8001021F0807184
:102380001143C9F80010206840000CD5DBF800109C
:1023900021F40041CBF80010DBF80010D4F8B8208D
:1023A0001143CBF800102068002809DA0648226D96
:1023B0000838016821F04051114300E008E0016055
:1023C0007EB10120BDE8FC9F54440258CFFFFF00BE
:1023D000E26FDAF8001021F440711143CAF80010DE
:1023E000AFE70020EEE700002DE9F05F04000F46A4
:1023F0007ED0DFF82482D8F8000000F00F00B84249
:102400000CD2D8F8001021F00F013943C8F80010A1
:10241000D8F8000000F00F00B84269D120787F4D55
:1024200040070AD52069296801F07001884204D963
:10243000296821F07001014329602078774E361D0C
:1024400000070AD56069316801F07001884204D93B
:10245000316821F07001014331602078C0060AD54F
:10246000A069316801F4E061884204D9316821F43F
:10247000E061014331602078DFF8A0B180060BF104
:10248000080B0CD5E1695846DBF8002002F0700219
:10249000914204D9026822F070020A430260207857
:1024A00080070AD5E068296801F00F01884204D945
:1024B000296821F00F01014329602078C0073ED030
:1024C0005649A2682868183920F4706010432860C3
:1024D0006068022818D0032819D00968012819D08B
:1024E000490700294ADADFF834A1AAF1080A00E016
:1024F00044E0DAF8002022F007020243CAF8002084
:10250000FFF748F9814612E009688903E9E709689D
:102510008901E6E7C905E4E7FFF73CF9A0EB09010B
:1025200041F28830814202D90320BDE8F09F616802
:10253000DAF8000000F03800B0EBC10FECD12078E1
:1025400080070AD5E068296801F00F01884204D2AB
:10255000296821F00F0101432960D8F80010404696
:1025600001F00F01B9420BD9016821F00F01394385
:102570000160006800F00F00B84201D00120D4E7EC
:10258000207840070AD52069296801F07001884247
:1025900004D2296821F070010143296020780007E6
:1025A0000AD56069316801F07001884204D231684F
:1025B00021F07001014331602078C0060AD5A0697E
:1025C000316801F4E061884204D2316821F4E061AD
:1025D00001433160207880060CD5E1695846DBF86C
:1025E000002002F07002914204D2026822F07002D0
:1025F0000A43026000F070F82968094AC1F3032118
:10260000515C01F01F01C840064908600648006897
:10261000BDE8F05FFFF7F8B80020005218440258F8
:1026200008D50008440000203C00002070B5144C80
:102630003F220260124A24680832131D114D04F033
:102640000704446016681C1D06F4706686601668F0
:1026500006F00F06C660126802F0700202611A6886
:1026600002F0700242611A6802F4E062826122683C
:1026700002F07002C261286800F00F00086070BDAF
:10268000104402580020005210B5FFF73BFA064AEA
:1026900006491268064B02F00F029A5C02F01F0214
:1026A000D040086010BD00001844025848000020C7
:1026B00008D5000810B5FFF7E7FF05490968054A86
:1026C000C1F30221515C01F01F01C84010BD0000A0
:1026D0001C44025808D50008454970B545480968AA
:1026E000434B103B11F0380208D00111082A03D0E7
:1026F000102A0BD0182A0BD0084670BD196889061D
:10270000FBD51968C1F3C101C84070BD3A4870BD1E
:102710003749374D18310C1D24350A680968266879
:102720002D6802F0030406F00102C1F30511C5F3A0
:10273000CC0515FB02F200EE102AB8EE400AE9B310
:102740002F4ADFED2E0AB7EE001A6CB1DFED2D1A1D
:10275000012C01D0022C43D002EE101A1068F8EEC2
:10276000422A81EEA22A1EE01C68A40611D51B682D
:1027700001EE901A1168C3F3C103F8EE612AD84044
:1027800001EE900AC1F30800F8EE611A81EEA22A68
:102790000BE001EE901ADFED1C2A00BFF8EE611A83
:1027A000106882EEA12AC0F3080001EE900AF8EE4C
:1027B000611A40EE201A31EE810A00E015E022EEA7
:1027C000000A1068C0F34620401C00EE900AF8EEA4
:1027D000600A80EE201ABCEEC10A10EE100A70BD2D
:1027E00001EE901ADFED092AD8E7002070BD000045
:1027F000104402580090D00340787D010000003959
:10280000304402580024744A0024744C20BCBE4B4F
:102810002DE9F05F04007DD0FF4F2078FE4D183782
:10282000DFF8F493103DC00748D0D9F800003968AC
:1028300000F03800102815D0182803D101F003004B
:1028400002280FD06068B0F5803F12D010B1B0F50B
:10285000A02F18D0286820F480302860286820F441
:10286000802009E02868800328D560680028D2D03D
:1028700024E0286840F480302860606888B1FEF762
:1028800089FF064609E0286840F480202860F0E7C8
:10289000FEF780FF801B64286FD828688003F7D577
:1028A0000CE0FEF777FF064605E000BFFEF772FF7B
:1028B000801B6428F0D828688003F7D4207841F280
:1028C0000308D54E0C3E800761D5D9F80000396861
:1028D00010F038000ED0182801D188070AD0E0681F
:1028E00080B3296821F0190101432960FEF752FFE6
:1028F00082462FE02868400702D5E06800288AD089
:10290000E168286820F0190008432860FEF742FFBC
:10291000824607E0D1E000BFFEF73CFFA0EB0A00D3
:102920000228B9D828684007F6D500BFFEF72CFF6B
:10293000404513D82069316821F47C3141EA0030E8
:10294000306024E011E000BFFEF724FFA0EB0A0096
:102950000228A1D828684007F6D5E7E7207C31682F
:1029600021F0FE4141EA0060EAE7286820F001001A
:102970002860FEF70FFF824606E0FFE0FEF70AFF41
:10298000A0EB0A00022887D828684007F6D42078F0
:10299000C00657D5D9F80000DFF87CB2396800F0DE
:1029A0003800ABF1040B082810D0182803D101F02F
:1029B000030001280AD0E0690028286832D040F0DE
:1029C00080002860FEF7E6FE824623E02868C00506
:1029D00023D5E069802870D11FE000BF94F8200063
:1029E000316821F0F84141EA806030602AE000BFA0
:1029F00094F82010DBF8002022F07C5242EA0161BA
:102A0000CBF800101EE000BFFEF7C4FEA0EB0A00EA
:102A1000022886D82868C005F6D5FEF7B5FE4045E1
:102A2000E6D8DBE720F080002860FEF7B3FE06461C
:102A300005E000BFFEF7AEFE801B022889D828689B
:102A4000C005F7D42078000729D573486169643040
:102A500000298046016811D041F001010160FEF7B4
:102A600099FE064605E000BFFEF794FE801B022893
:102A700089D8D8F800008007F6D510E021F00101D0
:102A80000160FEF787FE064605E000BFFEF782FE06
:102A9000801B022872D8D8F800008007F6D420786E
:102AA000800623D5A0690028286810D040F4805003
:102AB0002860FEF76FFE064605E0E6E0FEF76AFED8
:102AC000801B02285AD828688004F7D50EE020F42D
:102AD00080502860FEF75EFE064604E0FEF75AFED0
:102AE000801B02284AD828688004F7D42078400741
:102AF0004FD5DFF82881D8F8001041F48071C8F86C
:102B00000010FEF747FE064605E000BFFEF742FE56
:102B1000801B642832D8D8F80000C005F6D53E4E98
:102B2000A068603601280AD008B1052813D03068A3
:102B300020F001003060306820F0040002E03068CE
:102B400040F001003060A06841F2883A90B1FEF791
:102B500021FE80460AE0306840F004003060EEE775
:102B6000FEF718FEA0EB0801514507D83068800732
:102B7000F6D50EE0FEF70EFE804607E084E000BFCB
:102B8000FEF708FEA0EB080151457DD830688007AC
:102B9000F6D4606AF0B3D9F80010C1F3C20103297A
:102BA00073D00228286820F08070286003D0FEF7D8
:102BB000F1FD044680E0FEF7EDFD064605E000BFAE
:102BC000FEF7E8FD801B022873D828688001F7D43F
:102BD000E26A40F2F331386854F8283F884340EA0B
:102BE000021018433860217B4FF4FE0C22894FF00D
:102BF000FE47208A4902084B521E267DA1F500712E
:102C000089B2401EC2F3080220331143761E0CEA3B
:102C1000004005E053E0000010440258004802580C
:102C2000014307EA0662181F114319601A1D016863
:102C300021F00101016011684FF6F876236AB14373
:102C400041EAC30111600168A26921F00C0111433E
:102C500001600168E26921F002011143016001682D
:102C600041F480310160016841F400310160016884
:102C700041F480210160016841F001010160286890
:102C800040F08070286001E013E01AE0FEF782FD5A
:102C9000044604E0FEF77EFD001B022809D82868E0
:102CA0008001F7D50BE000BFFEF774FD001B022882
:102CB00002D90320BDE8F09F28688001F4D40020E9
:102CC000F8E70120F6E7000003490A6822F46002F1
:102CD00002430A60704700000404005870477047C0
:102CE0007047000070B590F83C20012A24D0134CA6
:102CF000012580F83C50022280F83D20026853688C
:102D0000A242966802D00E4CA24203D14C6823F432
:102D1000700323430C6823F0700389681C435460DC
:102D2000002326F0800602683143916080F83D5010
:102D300080F83C30184670BD022070BD0000014094
:102D40000004014010B5040003D094F83D0010B118
:102D500007E0012010BD002084F83C00204600F070
:102D60000DF8022084F83D002068211D00F0CAFD06
:102D7000012084F83D00002010BD000008B5006867
:102D8000B0F1804F08D10548016841F001010160B0
:102D9000006800F00100009008BD0000E8440258FF
:102DA0000168094ACB6843F00103CB600168886879
:102DB0001040062806D0B0F5803F03D0086840F0E8
:102DC00001000860002070470700010070B504464C
:102DD00090F83C00012814D0394B012584F83C5070
:102DE000022084F83D0022689068184020F47F405B
:102DF00090600868702828D010DC10F00F0F03D006
:102E00004BE04FF0020070BD4FEA2012072A44D277
:102E1000DFE802F05151515149323A00B0F1101F30
:102E200049D009DCB0F5805F37D0B0F5005F17D02E
:102E3000B0F5801F31D13EE0A0F5801120393AD0A5
:102E4000102938D0202928D135E04A682068D1E9F6
:102E5000021300F0B9FD2068816841F0770109E0B4
:102E60004A682068D1E9021300F0AEFD206881684D
:102E700041F48041816010E0CA684968206800F030
:102E800005FE2068502106E0CA684968206800F005
:102E90000EFE2068602100F0A1FD002084F83D5066
:102EA00084F83C0070BDCA684968206800F0EEFDF7
:102EB00020684021EFE7226801461046EBE700005A
:102EC00088FFCEFF704770B5044600680025016991
:102ED000C943890715D4C168C943890711D4EA1EBB
:102EE000026101212177206880698007204602D095
:102EF000FFF7E8FF04E000F0A7F8204600F0A5F88F
:102F0000257720680169C943490717D4C168C943B7
:102F1000490713D402216FF004020261217720686F
:102F2000806910F4407F204602D0FFF7CBFF04E019
:102F300000F08AF8204600F088F8257720680169BB
:102F4000C943090716D4C168C943090712D404212B
:102F50006FF00802026121772068C069800720466F
:102F600002D0FFF7AFFF04E000F06EF8204600F05B
:102F70006CF8257720680169C943C90617D4C16870
:102F8000C943C90613D408216FF0100202612177EA
:102F90002068C06910F4407F204602D0FFF792FFFE
:102FA00004E000F051F8204600F04FF82577206843
:102FB0000169C943C90708D1C168C943C90704D118
:102FC000891E0161204600F041F820680169C9436B
:102FD000090609D4C168C943090605D46FF0800108
:102FE00001612046FFF77BFE20680169C943C905DE
:102FF00009D4C168C943090605D46FF48071016121
:103000002046FFF76BFE20680169C943490609D4D1
:10301000C168C943490605D46FF0400101612046EB
:1030200000F049F820680169C94389060BD4C168DA
:10303000C943890607D46FF0200101612046BDE82D
:103040007040FFF74DBE70BD704770470068034980
:10305000884201D1FEF7A4BB704700000000014088
:1030600070B5044690F83C00012812D0012584F880
:103070003C50022084F83D00204600F0B9FC0028B6
:103080004FF0000007D084F83D5084F83C00012048
:1030900070BD022070BD2168CA6822F04002CA607B
:1030A0002168CA6822F48042CA6084F83D5084F8DE
:1030B0003C00002070BD7047FEE738B504466A4604
:1030C00000200090012163692068984700286FF074
:1030D000040525DB6369012120686A4698470028BA
:1030E0001EDB0098400701D4012038BD6369002130
:1030F00020686A469847002812DB0098C10408D46B
:103100004FF4045181431CD081041CD4C0051CD44D
:1031100015E063691F2120686A469847002801DA94
:10312000284638BD0098C10401D4062038BDC0F33C
:103130008200062805D0022805D0052805D00520E4
:1031400038BD022038BD032038BD042038BD2DE92C
:10315000F843044600200090064660680025B8BB8E
:10316000A06800B18047202020606FF004076369E9
:1031700012216A4630469847002801DA3D4607E0AA
:10318000009800F01F00B04202D10025266002E046
:10319000761C1F2EEBD920681F2802D96FF002057C
:1031A0003BE045BB236900214FF4004298470028CB
:1031B00024DB6369002120686A46984700281BDBEE
:1031C000A06980474FF4FA7806466FF001090EE0D7
:1031D00017E0A0698047801B404507D8636900213C
:1031E00020686A469847002801DA05E04D460098B5
:1031F0000004EED42DB110E03D460EE06FF0030563
:103200000BE0A06980474FF4FA670646A069804743
:10321000801BB842FAD9012060602846BDE8F883D7
:1032200088B1CA687AB18A686AB10A695AB10A680B
:1032300082604A68C260CA6842618A68026109693C
:103240008161002070474FF0FF3070472DE9F04357
:1032500087B014216846FDF7B4F83E48016841F094
:1032600010010160016801F010010591016841F051
:1032700004010160016801F004010591016841F059
:1032800001010160016801F001010591016841F04F
:1032900002010160016801F002010591016841F03D
:1032A00008010160016801F008010591016841F021
:1032B0004001016000680122274F202100F04000FA
:1032C00005903846FEF75BFADFF8908000224FF455
:1032D00080414046FEF753FADFF884904FF4806651
:1032E000002231464846FEF74AFA01224046802134
:1032F000FEF745FA00246946F0000294CDE9000487
:103300001848FEF737F90125694620200090CDE9DD
:10331000015438460394FEF72DF94FF48140009094
:10332000CDE90154694640460394FEF723F900961F
:103330006946CDE9015448460394FEF71BF90A4952
:1033400080208DE8130009486946FEF713F907B09D
:10335000BDE8F083E044025800000258000402581F
:10336000000C025800080258000011110018025801
:10337000FEB5394DC020A8212E1D00242870012241
:103380006970371DAC70EA7034707470B470F4708A
:10339000387079700021BC700846FC7008F094FD0C
:1033A0002868E9782D4A90FA80FC2D4B90FA80FE2F
:1033B00000BA0D060CF47F4C084345EA0C250EF4C8
:1033C0007F0CA6F1100145EA1C2545EA1060086053
:1033D0003068F17890FA80FC06BA00BA0D0608430E
:1033E00006F47F460CF47F0CA7F1100145EA062590
:1033F00045EA1C2545EA106008603868F97806BA85
:1034000007BA00BA0D060843134906F47F46091FA0
:1034100007F47F0745EA062545EA172545EA1060C7
:1034200008600094CDE901320A1F0E480B460839A6
:1034300003F036FC0B4803F0D7FC0A4890F82B0049
:103440004007084803D5BDE8FE4003F020BDBDE8B5
:10345000FE4003F0CFBC00001000002099C000081F
:10346000294E00081808002010B58CB000246846CA
:1034700014210594069407940894FCF7A2FF1348BE
:103480004FF0804109940A940B94C0E900148460C1
:10349000C46004618461FFF755FC4FF480500590CF
:1034A0000A4805A9FFF792FC4FF480110620CDE9E8
:1034B000000106486946FFF7D3FD044809A90994AD
:1034C0000B94FFF70FFC0CB010BD00007C01002036
:1034D0000A48002130B40222074C0923C0E9032125
:1034E000C0E90621016241628162C1620163C0E9F3
:1034F000004330BCFEF728BA00000840BC010020A1
:10350000FEE770472DE9F047454D044689464FF0E8
:10351000000A2868C04380070AD0414E283E306820
:1035200020F080603060FEF735F90746B04608E0CD
:103530000120BDE8F08700BFFEF72CF9C01B022870
:1035400067D8D8F800000001F6D4206829684FF445
:10355000FE0721F47C313E0241EA00302860207AE7
:10356000A389B4F804C040022D4D2D495B1E227C76
:10357000ACF1010C1035091DA0F5007080B2521E8F
:10358000CCF3080C07EA034340EA0C00184306EAB0
:103590000262104328600868626920F0C00010438E
:1035A00008600A68A06922F0200202430A60281D10
:1035B0000A6822F010020A6002684FF6F873E469A4
:1035C0009A4342EAC40202600868B9F1000F40F071
:1035D00010020A6011D00868B9F1010F11D040F44F
:1035E00000100860D8F80000444640F08060C8F839
:1035F0000000FEF7CFF805460DE0086840F4002013
:10360000EFE740F48010ECE7FEF7C4F8401B022817
:1036100001D903208DE720680001F5D5504688E7E1
:10362000284402582DE9F047454D044689464FF09D
:10363000000A2868C04380070AD0414E283E3068FF
:1036400020F080503060FEF7A5F80746B04608E04D
:103650000120BDE8F08700BFFEF79CF8C01B0228E0
:1036600067D8D8F800008000F6D4208829684FF485
:10367000FE0721F07C713E0241EA00502860207A6A
:10368000A389B4F804C040022D4D2D495B1E227C55
:10369000ACF1010C1835091DA0F5007080B2521E66
:1036A000CCF3080C07EA034340EA0C00184306EA8F
:1036B0000262104328600868626920F44060104389
:1036C00008600A68A06922F4007202430A60281D9B
:1036D0000A6822F480720A6002684FF6F873E4699F
:1036E0009A4342EAC40202600868B9F1000F40F44C
:1036F00080720A6011D00868B9F1010F11D040F052
:1037000080700860D8F80000444640F08050C8F847
:103710000000FEF73FF805460DE0086840F4800021
:10372000EFE740F40000ECE7FEF734F8401B022816
:1037300001D903208DE720688000F5D5504688E741
:10374000284402582022BFF34F8F064B02E0891A0B
:10375000186010440029FADCBFF34F8FBFF36F8F5E
:10376000704700005CEF00E0FFF702FE012003F06D
:103770009CFBFBE7502010B580F31188BFF34F8FFF
:10378000BFF36F8F09F002FD18B104494FF080506C
:103790000860002080F3118810BD000004ED00E0F7
:1037A00070B5CCB04C212FA8FCF70BFE202142A80D
:1037B000FCF707FEBC216846FCF703FE0220FEF77B
:1037C00071F9244800242449026842F4404202600E
:1037D00002680A6842F001020A60096801F001010A
:1037E0004A9101688904FCD5202501210220222666
:1037F0002F9604223A92CDE932153C233591CDE93A
:103800003804CDE93B300C253D903E902FA8CDE902
:103810003F544194FEF7FCFF402008230501CDE909
:10382000453042ABCDE9470549903F21032283E86B
:103830001600042142A8FEF7D7FD280200904FF49D
:10384000401168462191FEF773F9FEF753F94CB029
:1038500070BD0000184802582C040058214A30B5A9
:10386000214914680020204B44F470041460103384
:103870000A681E4D42F001020A6018600A681A4B7D
:103880002A400A6018331C1D251D174A186028326B
:103890002060131D28601C1D251D10602A1D186046
:1038A000131D20601C1D2860251D106018602060FD
:1038B00028600A680C4B0E4C22F4802260330A60A8
:1038C000186020686FF30F00B0F1005F03D2094960
:1038D0000120C1F808014FF00060024980390860FA
:1038E00030BD000088ED00E0004402587FEDF6EAAC
:1038F0000010005C008000510148FFF7E4BA0000AE
:10390000D80900202DE9F047274B4FF0804A274D7A
:1039100002689842264E274F274C09D0504507D0C1
:10392000A84205D0B04203D0B84201D0A04205D190
:10393000D1F804C022F070024CEA0202DFF87CC029
:10394000DFF87C809842DFF87C900FD050450DD096
:10395000A8420BD0B04209D0B84207D0A04205D04F
:10396000604503D0404501D0484503D1CD6822F4DD
:1039700040722A434D6922F080022A430260984235
:103980008A68C2620A68826207D0A04205D0604598
:1039900003D0404501D0484501D1096901630121A7
:1039A0004161BDE8F08700000000014000040040D4
:1039B00000080040000C00400004014000400140AD
:1039C000004401400048014042EA032283680A4360
:1039D00023F47F410A43826070470000034B8268F2
:1039E0001A400A4342F00701816070478FFFCFFF02
:1039F0002DE9F0410568D1E90032214F214EAC6834
:103A00003C40224332401343AB604A68602A30D0C6
:103A100006DC302A32DD402A0ED0502A2ED122E098
:103A2000194B9A422ADA702A28D18A680068D1E9AB
:103A30000313FFF7C9FF21E00A68052A10D00268C6
:103A4000136A146A24F00104146202680C69916913
:103A500021F0F00141EA04119161006803620DE078
:103A60000120BDE8F0810A690068896800F00EF85D
:103A700004E00A690068896800F019F80020F0E79E
:103A80008FFFCFFFF8FFFEFF2000100010B5036A84
:103A9000046A23F00A0324F00104046284690B43DE
:103AA00024F0F00141EA02118161036210BD10B5FA
:103AB000036A23F0100303628369046A23F47043EA
:103AC00024F0A00443EA0232826144EA0111016257
:103AD00010BD000070B5044606990A9E049D012998
:103AE0000D9816D0E06840F04000E060204600F0FD
:103AF0002DF8A16B26B321F48031A163012D07D1EC
:103B0000A16841F00801A160A16841F02001A16015
:103B100070BDA26B01280C4922F48030A063E068DC
:103B200000EA0100E060E06820F44010E06003D1AA
:103B3000E06840F48010E060204600F007F8DDE720
:103B400041F48031D9E70000BFFFBDFF0C490122DD
:103B500002E0521C8A420BD80369002BF9DA036990
:103B6000012243F00103036104E0521C8A4201D99F
:103B7000032070470369DB07F7D10020704700007E
:103B8000400D030010B5D0F8041841F00201C0F850
:103B900004180320FCF7D4FF002010BD2DE9F04FDE
:103BA0000E4604460021DDE90B2BDDF840800D4672
:103BB000099F084604EB800CCCF80411401C0F2828
:103BC000F8D32046A06BB8F1000F13D040F4001CCE
:103BD000C4F838C089460846C4F8000E2046D4F818
:103BE0000018012AC4F8001813D0D0F8001841F0CA
:103BF000030113E020F4001CC4F838C0206840F032
:103C0000400CC4F800C0206840F0800CC4F800C02C
:103C1000E0E7D0F800180BB141F00101C0F800183E
:103C2000102100F095F800B10125204600F080F841
:103C300000B1012548464FF0006C4FF67F334FF03E
:103C4000904AC4F81098C4F81498C4F81C9800213D
:103C5000994613E004EB4112D2F80039002B06DA42
:103C600011B1C2F800A904E0C4F800C901E0C2F82B
:103C70000009C2F81009C2F80899491C8E42E9D817
:103C8000002113E004EB4112D2F8003B002B06DACE
:103C900011B1C2F800AB04E0C4F800CB01E0C2F8F7
:103CA000000BC2F8100BC2F8089B491C8E42E9D8E1
:103CB000D4F81018012F21F480722146C4F810287E
:103CC00008D1144B144AC1F83038D1F830181143D8
:103CD000C4F830186FF08041A06161611FB9A0691C
:103CE00040F01000A061A069BBF1000F0B4A40EA50
:103CF0000200A06103D0A06940F00800A061B8F103
:103D0000010F03D1A06906490843A0612846BDE818
:103D1000F08F0000000180000300010000383C80AB
:103D200004000040816821F001018160002070479B
:103D3000064A102101610021491C914201D903204A
:103D400070470369DB06F7D400207047400D03007D
:103D50002023074A43EA811303610021491C914251
:103D600001D90320704703699B06F7D400207047F0
:103D7000400D030010B5C268012922F0C042C260A4
:103D800002D029B1012010BDC16841F0005102E00C
:103D9000C16841F08041C1603220FCF7D1FE0020B3
:103DA00010BDFEE70FB4054B10B503A9044A0298F5
:103DB00000F028F810BC5DF814FB0000494F000823
:103DC00078010020090700284FEA116104DB00F1A7
:103DD000E02080F80014704700F00F0000F1E020B0
:103DE00080F8141D704702E008C8121F08C1002A9D
:103DF000FAD170477047002001E001C1121F002A6C
:103E0000FBD170472DE9FF4F8BB09A460F46054610
:103E1000002606E025280BD052460D9990476D1CD0
:103E2000761C28780028F5D10FB03046BDE8F08F19
:103E30000024A0460122604900E0044315F8013F38
:103E4000203B02FA03F00842F7D128782E2817D138
:103E500015F8010F44F004042A280ED06FF02F0249
:103E60002878A0F1300109290AD808EB880102EB73
:103E7000410100EB01086D1CF2E757F8048B6D1C43
:103E8000287869283ED006DC0028CDD063280BD0E6
:103E9000642804D136E0732810D075284BD05246E0
:103EA0000D999047761C85E017F8040B8DF80000FB
:103EB00000208DF80100E946012003E057F8049B3B
:103EC0004FF0FF3061074FF0000401D40AE0641C9A
:103ED00044450DDA8442FADB19F804100029F6D1C2
:103EE00006E0641C8442FCDB19F804100029F8D1B8
:103EF000264404E019F8010B52460D999047641EC0
:103F0000F8D257E001CF4FF00A0B002802DA404206
:103F10002D2102E0210504D52B218DF8241001214B
:103F200003E0E10705D02021F7E70DF12009089112
:103F30000CE00021F9E701CF4FF00A0BF9E75946F1
:103F4000FCF763FA01F1300209F8012D0028F6D1DF
:103F5000ADEB090000F1200B600701D44FF0010820
:103F6000D84502DDA8EB0B0000E0002080460024CD
:103F700006E009A85246005D0D999047641C761C26
:103F800008988442F5DB04E0302052460D999047B2
:103F9000761CB8F10001A8F10108F5DC05E019F87C
:103FA000010B52460D999047761CBBF10001ABF115
:103FB000010BF4DC6D1C34E70928010010B5044640
:103FC0004068804720682246BDE81040014904F05F
:103FD0005BBC0000BD3F000870B50C460546880775
:103FE00006D009A34FF4CE7213A11BA0FFF7DAFE8F
:103FF00004F09CFBA96809682160A9680C60BDE811
:10400000704004F09FBB00002E2E2F4D6964646C3D
:104010006577617265732F54686972645F5061726D
:1040200074792F4C7749502F7372632F636F7265C9
:104030002F6D656D702E63006D656D705F667265C6
:10404000653A206D656D2070726F7065726C7920B5
:10405000616C69676E656400417373657274696F42
:104060006E2022257322206661696C65642061746C
:10407000206C696E6520256420696E2025730A0016
:1040800070B5044604F052FB0546A0680468002C95
:104090000FD02168A207016006D008A34FF4A472D4
:1040A00012A11BA0FFF77EFE284604F04BFB204622
:1040B00070BD284604F046FB002070BD2E2E2F4D0B
:1040C0006964646C6577617265732F5468697264A2
:1040D0005F50617274792F4C7749502F7372632F40
:1040E000636F72652F6D656D702E63006D656D7009
:1040F0005F6D616C6C6F633A206D656D70207072DE
:104100006F7065726C7920616C69676E6564000020
:10411000417373657274696F6E2022257322206665
:1041200061696C6564206174206C696E652025642A
:1041300020696E2025730A0070B50A4D00240646DA
:1041400004EB440005EBC000017D29B18068B0425A
:1041500002D1204600F034F9641CE4B20A2CEFD3FB
:1041600070BD00005C4100202DE9F74F84B04FF096
:104170000A0B00240646DA465F46D94602940194AB
:10418000009404EB44004F490A2F039001EBC00850
:1041900098F8145016D0002D24D0012D08D0022DEF
:1041A00006D249A340F2251255A165A0FFF7FAFDFA
:1041B00066B13168D8F80400814207D160B207B017
:1041C000BDE8F08F002DE8D167B20BE0012D17D0CC
:1041D000022D07D3B8F812000099884202D34FFA93
:1041E00084FA0090641CE4B20A2CCAD305988107B3
:1041F0004FF0FF30E3D40A2F18D01ADAFCB242E0B5
:104200003048039950F831000028B8F8120006D061
:1042100002998842E6D34FFA84F90290E2E70199C5
:104220008842DFD34FFA84FB0190DBE70599C90789
:10423000C5D0BAF10A0F0FDA0AF0FF04214804EBE7
:10424000440150F8310090B11FA340F26F1246A113
:104250003BA0FFF7A7FD0AE0BBF10A0F02DA0BF063
:10426000FF0404E0B9F10A0FA9DA09F0FF040A2CEF
:1042700006D315A340F2811241A131A0FFF792FDB0
:10428000204600F09DF80A2C06D30FA340F28512B9
:104290003BA12BA0FFF786FD0A4804EB440100EB8D
:1042A000C105287D30B108A34FF4C37239A124A001
:1042B000FFF778FD0EB130686860002160B2698256
:1042C0007DE700005C4100202E2E2F4D6964646C58
:1042D0006577617265732F54686972645F506172AB
:1042E00074792F4C7749502F7372632F636F726507
:1042F0002F697076342F6574686172702E630000C8
:104300007374617465203D3D204554484152505FAF
:1043100053544154455F50454E44494E47207C7CA0
:10432000207374617465203E3D20455448415250CD
:104330005F53544154455F535441424C4500000083
:10434000417373657274696F6E2022257322206633
:1043500061696C6564206174206C696E65202564F8
:1043600020696E2025730A006172705F7461626C4F
:10437000655B695D2E71203D3D204E554C4C000023
:1043800069203C204152505F5441424C455F5349A3
:104390005A4500006172705F7461626C655B695DB3
:1043A0002E7374617465203D3D2045544841525040
:1043B0005F53544154455F454D505459000000002F
:1043C00070B5074C00EB4005002654F8350018B1D5
:1043D00003F03CFB44F8356004EBC500067570BD86
:1043E0005C4100202DE9F0430D00074685B009D05F
:1043F0007C684FF480782088404539D120790628A0
:1044000036D109E01CA34FF4227229A12CA0FFF79A
:10441000C9FC05B0BDE8F0836079042828D1608824
:10442000082825D1D4F80E0004906868A16920B14D
:10443000814202D10126334601E0002602232846AC
:1044400004F1080204A9914600F094FBE08840457D
:104450000ED16EB10222284604AB291DCDE90232ED
:10446000CDE9001905F125034A46194600F084FA02
:10447000384603F0EBFACCE72E2E2F4D6964646CBE
:104480006577617265732F54686972645F506172F9
:1044900074792F4C7749502F7372632F636F726555
:1044A0002F697076342F6574686172702E63000016
:1044B0006E6574696620213D204E554C4C0000000D
:1044C000417373657274696F6E20222573222066B2
:1044D00061696C6564206174206C696E6520256477
:1044E00020696E2025730A00FEB5040015460E46AD
:1044F00006D141A340F21B324DA151A0FFF752FC5F
:1045000036B93DA34FF4477257A14DA0FFF74AFCBF
:1045100035B939A340F21D3256A149A0FFF742FC3C
:104520002868214600F0A2FE08B1564B3CE02868FE
:10453000C0F303110E2922D0D4E901210A40014021
:10454000914208D080B2A0F57E41A93903D0E0683D
:10455000A0B304F10C054C4A4C49107800EB400321
:1045600001EBC3031F7D022F2CD32F685B689F4292
:1045700028D102463146204600F08AF8FEBD0122CD
:104580008DF8042000208DF805005E218DF80610BE
:10459000687801AB00F07F008DF80700A8788DF8EF
:1045A0000800E8788DF809004FF4006004F1250256
:1045B00031460090204600F0BBFBFEBDFFE76FF0E8
:1045C0000300FAE75FF0000000EB400301EBC303D8
:1045D0001F7D022F06D32F685B689F4202D1C0B2B5
:1045E0001070C6E7401C40B20A28EDDB324629466F
:1045F000204600F0D5F8E0E72E2E2F4D6964646C5C
:104600006577617265732F54686972645F50617277
:1046100074792F4C7749502F7372632F636F7265D3
:104620002F697076342F6574686172702E63000094
:104630006E6574696620213D204E554C4C0000008B
:10464000417373657274696F6E2022257322206630
:1046500061696C6564206174206C696E65202564F5
:1046600020696E2025730A007120213D204E554C93
:104670004C00000069706164647220213D204E5539
:104680004C4C000018D50008080100205C410020B7
:104690002DE9F8431546884606461C4802EB4501BD
:1046A00000EBC104207D022806D219A34FF43B720F
:1046B00025A131A0FFF776FB144A05EB4501207DCB
:1046C00002EBC1050C35022813D1608A0327B0F52F
:1046D0008E7F04D9211D304600F006FA07E0B0F5C0
:1046E000877F06D3211D2A46304600F003FA00B921
:1046F00027754FF4006006F125022B4641460090D5
:10470000304600F015FBBDE8F88300005C41002056
:104710002E2E2F4D6964646C6577617265732F541A
:10472000686972645F50617274792F4C7749502FB9
:104730007372632F636F72652F697076342F65749F
:10474000686172702E6300006172705F7461626CE8
:10475000655B6172705F6964785D2E737461746506
:10476000203E3D204554484152505F5354415445EA
:104770005F535441424C4500417373657274696FD5
:104780006E2022257322206661696C656420617445
:10479000206C696E6520256420696E2025730A00EF
:1047A0002DE9FC5F82461446253001900868884652
:1047B0004FF0FF364FF0000B514600F057FD002838
:1047C00028D1D8F80000C0F303110E2922D0B8F187
:1047D000000F1FD000281DD0012152464046FFF790
:1047E000C3FC070018D4394907EB470901EBC90599
:1047F000287D002812D0012808D0022806D234A330
:1048000040F2C73240A14AA0FFF7CCFABBF1000F3B
:104810000AD108E06FF00F00BDE8FC9FC5F808A0C2
:104820000121297500E034B94146504600F05CF999
:10483000002C0646F0D0287DDFF8908002280DD3AA
:1048400045484FF4006105F10C0307705046019A8A
:104850000091214600F06CFA064635E0012833D17C
:104860004FF47B76254668892989884207D12868D4
:1048700028B117A3324639A12DA0FFF793FA287B60
:1048800001280ED029890022022002F093FC0500A5
:1048900018D0214602F056FF58B1284603F0D6F84A
:1048A00010E02D68002DDED12546204603F036FBB2
:1048B00045B158F8390008B103F0C8F8002648F8A7
:1048C000395001E04FF0FF363046A5E75C4100204B
:1048D0002E2E2F4D6964646C6577617265732F5459
:1048E000686972645F50617274792F4C7749502FF8
:1048F0007372632F636F72652F697076342F6574DE
:10490000686172702E6300006172705F7461626C26
:10491000655B695D2E7374617465203D3D20504573
:104920004E44494E47206F7220535441424C45003B
:10493000417373657274696F6E202225732220663D
:1049400061696C6564206174206C696E6520256402
:1049500020696E2025730A00080100206E6F207008
:1049600061636B65742071756575657320616C6C2E
:104970006F776564210000002DE9FF4F81B09846F4
:1049800006004FF00007DDE90FA9DDF838B006D1C9
:104990002BA34FF48B6238A13BA0FFF703FA002250
:1049A0001C21022002F006FC050046D068891C2864
:1049B00006D223A340F263423DA133A0FFF7F2F9F0
:1049C0006C68119801F0B2FCE08096F8240006288B
:1049D00006D044491AA32CA040F26A42FFF7E2F93C
:1049E000D8F800100623A1604FF48071B8F80400D5
:1049F000A081DAF80020C4F812200822BAF80400D6
:104A0000E082DBF80000C4F80E00D9F80000A061D5
:104A10000420218040F606016280237160713046D7
:104A2000DDE902230091294600F082F9284603F0CF
:104A30000DF8384605B0BDE8F08F4FF0FF30F9E7CC
:104A40002E2E2F4D6964646C6577617265732F54E7
:104A5000686972645F50617274792F4C7749502F86
:104A60007372632F636F72652F697076342F65746C
:104A7000686172702E6300006E6574696620213D66
:104A8000204E554C4C000000417373657274696F81
:104A90006E2022257322206661696C656420617432
:104AA000206C696E6520256420696E2025730A00DC
:104AB000636865636B2074686174206669727374DF
:104AC00020706275662063616E20686F6C6420736D
:104AD0007472756374206574686172705F68647263
:104AE0000000000060D70008014A00F003B8000091
:104AF00018D500087FB5064D0124031DCDE9021429
:104B0000CDE9003521331946FFF736FF04B070BDFB
:104B10001ED5000870B5164D5FF0000404EB44008C
:104B200005EBC001087DF0B14A8A521C92B24A825C
:104B3000B2F5967F0AD2012806D003280AD00428AD
:104B40000AD001280BD00EE0052A08D32046FFF733
:104B500037FC08E0042000E00220087503E08868C4
:104B6000091DFFF7C1FF641CE4B20A2CD6D370BD47
:104B70005C410020F8B5044690F824001F46154615
:104B800006280E4606D020A340F2AB122CA135A079
:104B9000FFF708F99EB3306888B3214600F066FB42
:104BA00068BB3078C0F303100E2829D0224639465E
:104BB0003046FFF7D9FA002820DB344A00EB4001E9
:104BC000022302EBC1000375002384602E68C660D7
:104BD000AE880682438252F8316076B142F83130B5
:104BE0004FF400602B4604F1250231460090204628
:104BF00000F09EF8304602F029FF0020F8BDFFE7E4
:104C00006FF00F00FAE700002E2E2F4D6964646CE0
:104C10006577617265732F54686972645F50617261
:104C200074792F4C7749502F7372632F636F7265BD
:104C30002F697076342F6574686172702E6300007E
:104C40006E657469662D3E6877616464725F6C6539
:104C50006E203D3D204554485F4857414444525FD3
:104C60004C454E00417373657274696F6E20222546
:104C70007322206661696C6564206174206C696EC2
:104C80006520256420696E2025730A005C410020A0
:104C900070B5044640890D460E283CD960680178FD
:104CA0008689CA0714D0012905D020490622FBF7BE
:104CB0009FFB48B10CE0417851B980785E2807D15C
:104CC000607B40F0100002E0607B40F00800607301
:104CD000082E6FF00D0103D0B6F5C16F1BD10FE0A8
:104CE00095F82B00000716D560890E2813DB2046A7
:104CF00002F090FF78B92946204600F0F9FB12E057
:104D000095F82B00000706D560890E2803DB2046A6
:104D100002F080FF18B1204602F098FE03E0294619
:104D20002046FFF75FFB002070BD000018D500088B
:104D30002DE9F0411F4690460E460446069801F0C4
:104D4000F5FA0E210546304602F064FF18B16FF007
:104D50000100BDE8F0817068858139680160B9881B
:104D60008180D8F80020C0F80620B8F804104181EE
:104D700094F82400062806D006A340F22B1213A1B3
:104D80001FA0FFF70FF8A26931462046BDE8F041A9
:104D9000104700002E2E2F4D6964646C6577617298
:104DA00065732F54686972645F50617274792F4C17
:104DB0007749502F7372632F6E657469662F65741F
:104DC0006865726E65742E63000000006E6574691C
:104DD000662D3E6877616464725F6C656E206D75E8
:104DE0007374206265203620666F72206574686572
:104DF000726E65745F6F75747075742100000000C9
:104E0000417373657274696F6E2022257322206668
:104E100061696C6564206174206C696E652025642D
:104E200020696E2025730A0010B5040006D10BA37B
:104E30004FF415720EA112A0FEF7B4FF1A497320A9
:104E400061611A49A161742184F82C00204684F81C
:104E50002D1001F067F9002010BD00002E2E2F53F9
:104E600072632F65746865726E657469662E63007F
:104E70006E6574696620213D204E554C4C00000043
:104E8000417373657274696F6E20222573222066E8
:104E900061696C6564206174206C696E65202564AD
:104EA00020696E2025730A00E9440008C1620008E9
:104EB000204F88B005464FF0FF384146386802F071
:104EC0001BF90028F9D100261B4803F0ABFC1B4856
:104ED00004A90396FBF786FF40BB184803A9FBF71C
:104EE000CEFF1648FBF73EFEDDE90310FEF72AFC75
:104EF000134801F08FFE034612484FF4C0610222AE
:104F000018610498CDE90001039881B2042002F0F1
:104F100007FB04000AD02A692946904710B12046B1
:104F200002F094FD044803F091FCCDE7024803F041
:104F30008DFCC2E71C00002058000020480800201B
:104F4000E0D40008C57B000838B504468DF80000A1
:104F500069460320ABBE204638BD0A46032100F057
:104F6000F5B800002DE9FE4F8A4644490446D1F8C1
:104F7000088098F800000007870E142F78D3608906
:104F8000042875D360680078002871D008286FD194
:104F9000486901F11405C0F303120E2A68D089464E
:104FA000096800F063F9002862D1208908285FD3DE
:104FB00007F10E0120460E4602F02CFE00282DD0EF
:104FC00020890022384481B2022002F0F3F8060062
:104FD0004ED0718907F10800814216D370683A46B5
:104FE0004146FBF7D5F97942304602F013FE00281E
:104FF00006D0AF2222A330A13DA0FEF7D3FE04E0ED
:105000002146304602F09EFB18B1304602F01EFDEC
:105010002EE0204602F01AFD34460CE07142204694
:1050200002F0F8FD002806D0C02215A33AA130A056
:10503000FEF7B8FE1CE066683946204602F0EAFD3D
:10504000B0B9606800212A68FF27C2600A46D9F813
:105050001030036101233170718007724181204655
:10506000CDE900133B462946CDF808A000F012FB1D
:105070002046BDE8FE4F02F0E9BC0000580A0020BF
:105080002E2E2F4D6964646C6577617265732F54A1
:10509000686972645F50617274792F4C7749502F40
:1050A0007372632F636F72652F697076342F696333
:1050B0006D702E630000000069636D705F696E7033
:1050C00075743A206D6F76696E6720722D3E70613F
:1050D000796C6F616420746F2069636D70206865FE
:1050E00061646572206661696C65640A0000000095
:1050F000417373657274696F6E2022257322206676
:1051000061696C6564206174206C696E652025643A
:1051100020696E2025730A0069636D705F696E7087
:1051200075743A20726573746F72696E67206F725E
:105130006967696E616C20702D3E7061796C6F617A
:1051400064206661696C65640A0000002DE9FF4710
:1051500092468946002206462421012002F02AF8C0
:10516000050031D06889242806D218A340F26112C4
:1051700024A12FA0FEF716FE6C684FF00008776898
:105180001C2284F8009084F801A0A4F80480A4F8FC
:105190000680686871680830FBF7FAF8F8680390D1
:1051A00003A800F019FC60B1A4F802800122CDF838
:1051B0000080FF23CDE901200021284603AA00F04A
:1051C00069FA284602F042FCBDE8FF872E2E2F4DDB
:1051D0006964646C6577617265732F546869726481
:1051E0005F50617274792F4C7749502F7372632F1F
:1051F000636F72652F697076342F69636D702E63EB
:1052000000000000636865636B2074686174206649
:105210006972737420706275662063616E20686FB6
:105220006C642069636D70206D65737361676500E0
:10523000417373657274696F6E2022257322206634
:1052400061696C6564206174206C696E65202564F9
:1052500020696E2025730A000A460B21FFF776BFEE
:10526000EFF30580002800D001207047421C12D0C7
:1052700088B191F82B2092070BD54A68824208D05A
:1052800089680A4000EA0103934202D10143491CA4
:1052900001D0002070470120704700002DE9F74F32
:1052A00086B004460025AE1F07981427408C14389A
:1052B000C11700EB5170C0F3CF0B60680590017807
:1052C00001F00F01052904D056A340F2E12264A1A8
:1052D0000BE0C08801F02AF88104C0F30C000290B2
:1052E0000AD550A340F2E62267A16EA0FEF75AFD50
:1052F000304609B0BDE8F08F208914381FFA80F8D5
:1053000080E000BFB8EBCB0F01D34FEACB0080B2F7
:10531000039000221421022001F04CFF5FEA000AF2
:1053200078D06089142806D23EA34FF4427267A158
:105330005CA0FEF737FDDAF8040014220599FBF7AC
:1053400027F8DAF80400039E04902BE06089C01B64
:1053500085B2AE4200D2354615B3052001F008FCF7
:105360005FEA000953D0606802224B462946384460
:10537000CDE90005042002F0D3F80090F0B32046F8
:1053800002F0CCFD59495046C9E90414009902F0D5
:1053900037F9701B0604360C06D024680027D5E7C1
:1053A00024680027002ED1D1079879198FB2408C3C
:1053B000143840450298C0F30C0001DA40F4005064
:1053C00000F0B4FF0499C8800398143080B200F054
:1053D000ADFF049900224880514604984281079805
:1053E000089A43699847504602F030FB0399A8EBAE
:1053F000010202991FFA82F8594401E00DE009E028
:1054000088B20290B8F100007FF47CAF71E750469B
:1054100002F01CFB4FF0FF306BE7484600F00AFB40
:10542000F5E700002E2E2F4D6964646C657761727C
:1054300065732F54686972645F50617274792F4C80
:105440007749502F7372632F636F72652F6970767F
:10545000342F6970345F667261672E63000000004C
:105460006970345F66726167282920646F657320F4
:105470006E6F7420737570706F7274204950206F56
:105480007074696F6E73000069705F66726167287F
:10549000293A204D4620616C7265616479207365FC
:1054A00074000000417373657274696F6E20222569
:1054B0007322206661696C6564206174206C696E7A
:1054C0006520256420696E2025730A00746869735D
:1054D000206E656564732061207062756620696E58
:1054E000206F6E6520706965636521001D6000088E
:1054F0002DE9F05F456806460F4604212878B1EB98
:10550000101F03D0304602F0A1FA8DE000F00F002A
:105510004FF6FF7101EA8008688800F007FF044633
:105520003089A04203D92146304602F02BFC718914
:105530004145E7D33089A042E4D3B8F1140FE1D359
:10554000DFF848A12969CAF81410C1F30312E96809
:105550000E2ACAF8101014D0DFF834B13C464FF0D0
:10556000010900BF94F82B00C00712D0616881B117
:10557000DAF81400884220D02146FFF777FEE0B920
:1055800007E097F82B00C0070FD0786868B13C4659
:1055900013E0B9F1000F0AD09AF814007F2804D064
:1055A000DBF800404FF0000902E0002405E0246829
:1055B000BC4200D12468002CD4D1DAF8100039465E
:1055C000FFF754FE00289DD19AF81000D146C0F391
:1055D00003100E2896D0002C94D0E88830F0C0003C
:1055E00005D0304600F01EF906001DD07568C8F1E0
:1055F0000001C9F808503046C9E900472A78120767
:10560000920EA9F80C2002F005FB687A012818D048
:10561000062811D011280AD0D9F814004F46214687
:10562000FFF724FE90B11FE00020BDE8F09F39464F
:10563000304606F0D9FD1AE03946304603F06EFEDA
:1056400015E039463046FFF78DFC10E0387DC0F399
:1056500003100E2808D04146304602F0DEFA02213F
:1056600030467560FFF779FC304602F0EFF9002113
:10567000C9F80010C9F80410C9F80810A9F80C10EE
:10568000C9F81010C9F81410CEE70000580A00201D
:10569000A4000020FEB5DDE90954089E1AB109B145
:1056A0000F6807B9211D0096CDE9015400F002F8FA
:1056B000FEBD00002DE9F84FDDE90BA80546C089C5
:1056C000DDF828B01F4601281646894606D02DA3CE
:1056D00040F2333238A13BA0FEF764FB002E39D0F4
:1056E0001421284602F096FA18B16FF00100BDE8C7
:1056F000F88F68896C68142806D222A34FF4587278
:105700003AA130A0FEF74EFB2772452084F809A08D
:1057100031682161207084F801B0288900F006FE0C
:105720003E4F4FF0000A6080A4F806A0388800F0D1
:10573000FDFDA080B9F1000F388800F1010038802C
:1057400005D0D9F80000E060A4F80AA006E03448CB
:105750000068F8E768686E4600690090B8F82200B3
:1057600040B12989814205D9324641462846FFF792
:1057700095FDBCE7D8F81430404632462946984794
:10578000B5E700002E2E2F4D6964646C6577617259
:1057900065732F54686972645F50617274792F4C1D
:1057A0007749502F7372632F636F72652F6970761C
:1057B000342F6970342E6300702D3E726566203D73
:1057C0003D203100417373657274696F6E2022252C
:1057D0007322206661696C6564206174206C696E57
:1057E0006520256420696E2025730A00636865635F
:1057F0006B207468617420666972737420706275BE
:10580000662063616E20686F6C64207374727563C8
:10581000742069705F686472000000000A01002053
:1058200060D600082DE9F05F45688346287800F0CF
:105830000F0005287DD1E88800F078FDC004070C32
:10584000688800F073FD297801F00F01494200EBF0
:1058500081001FFA80F8584601F06AFF5D4C064649
:10586000208830440A2809D93146284600F080FBB8
:1058700000285ED0208830440A285AD8A14664689F
:105880004FF0000A0CE06069E968884207D1A0691E
:105890002969884203D1A089A988884203D0246855
:1058A000002CF0D106E02CB1E88800F03FFDC004E8
:1058B0001BD025E0042001F05BF904000AD1314639
:1058C000284600F055FBB04233DB042001F050F9CC
:1058D00004007BD02021FAF774FD0321E177D9F889
:1058E00004102160C9F8044004E0E08900F01EFDC6
:1058F000C00405D01422294604F10800FAF748FD37
:10590000A87940F340156D1C08D007EB080080B261
:10591000B8425BD34FF6EB71884257D82A465946B6
:10592000204600F0CFF8411C50D0B9F80020324496
:1059300000E04BE0A9F8002035B1A27F07EB080199
:10594000A18342F00102A27701283DD1A08B14224D
:1059500004F108011430A0836068456828462E6869
:10596000FAF716FDA08B00F0E1FC01466980A5F86E
:1059700006A06FF01308A5F80AA0656809E077682B
:105980004146304602F046F93146284601F038FEDD
:105990003E68002EF3D1D9F804104E468C4205D152
:1059A000002105E00868A04202D001460029F9D193
:1059B000204600F0B7F9284601F0BAFE3188081AEF
:1059C00030802846BDE8F09F0020FBE7584602F0F3
:1059D0003DF8F9E70C01002070B50446134813E0C8
:1059E00090F82B10CA070FD04A070DD543685BB15A
:1059F00082682568134005EA02069E4214D0890792
:105A000002D4C1688D420FD000680028E8D1084850
:105A1000006840B190F82B10CA0704D0490702D59E
:105A20004168002900D1002070BD0000A4000020C2
:105A3000A800002010B5040006D106A340F2AE2253
:105A400013A116A0FEF7AEF92146BDE810400520CF
:105A500000F0D6BF2E2E2F4D6964646C657761729D
:105A600065732F54686972645F50617274792F4C4A
:105A70007749502F7372632F636F72652F69707649
:105A8000342F6970345F667261672E630000000016
:105A90007020213D204E554C4C0000004173736531
:105AA0007274696F6E2022257322206661696C65AD
:105AB00064206174206C696E6520256420696E2005
:105AC00025730A002DE9F0474C68002592460F46E1
:105AD00006464FF00108608800F028FC217801F0AC
