:020000040800F2
:1000000078090020490100089B2C0008691B0008A2
:1000100000000000000000000000000000000000E0
:10002000000000000000000000000000C72D0008D4
:1000300000000000000000009D2C0008D12D0008E9
:100040005B0100085B0100085B0100085B01000820
:100050005B0100085B0100085B010008A50A0008BD
:100060005B0100085B0100085B0100085B01000800
:100070005B0100085B01000800000000C52E0008BD
:10008000000000005B01000800000000000000000C
:10009000A52E000800000000B52E00085B01000836
:1000A0005B0100085B0100085B0100085B010008C0
:1000B0005B0100085B0100085B0100085B010008B0
:1000C00000F002F800F030F80CA030C8083824180E
:1000D0002D18A246671EAB4654465D46AC4201D180
:1000E00000F022F87E460F3E0FCCB6460126334282
:1000F00000D0FB1AA246AB46334318472035000018
:10010000403500000023002400250026103A01D3CA
:1001100078C1FBD8520700D330C100D50B607047BF
:100120001FB51FBD10B510BD00F096F91146FFF7C1
:10013000F7FF02F09DFF00F0AEF903B4FFF7F2FF06
:1001400003BC00F0E3F90000074880470748004778
:10015000FEE7FEE7FEE7FEE7FEE7FEE704480549A7
:10016000054A064B70470000512E0008C1000008E8
:100170007803002078090020780500207805002009
:10018000002203098B422CD3030A8B4211D3002394
:100190009C464EE003460B433CD4002243088B426E
:1001A00031D303098B421CD3030A8B4201D39446FB
:1001B0003FE0C3098B4201D3CB01C01A52418309EE
:1001C0008B4201D38B01C01A524143098B4201D3A8
:1001D0004B01C01A524103098B4201D30B01C01AD3
:1001E0005241C3088B4201D3CB00C01A524183084D
:1001F0008B4201D38B00C01A524143088B4201D37A
:100200004B00C01A5241411A00D2014652411046D9
:1002100070475DE0CA0F00D04942031000D340424E
:10022000534000229C4603098B422DD3030A8B4284
:1002300012D3FC22890112BA030A8B420CD3890122
:1002400092118B4208D3890192118B4204D3890108
:100250003AD0921100E08909C3098B4201D3CB0146
:10026000C01A524183098B4201D38B01C01A5241FB
:1002700043098B4201D34B01C01A524103098B42FF
:1002800001D30B01C01A5241C3088B4201D3CB00EA
:10029000C01A524183088B4201D38B00C01A5241CD
:1002A000D9D243088B4201D34B00C01A5241411AA4
:1002B00000D20146634652415B10104601D34042D2
:1002C000002B00D54942704763465B1000D3404283
:1002D00001B50020C046C04602BD70477047704758
:1002E0000102C21504D00123DB071943002A0ADBEF
:1002F0009E239A1A02D40846D0407047FF2241003C
:100300001206914201D900207047C017C0437047C0
:100310001F22030C02D10F2200041CD0030E01D1B6
:100320000002083A030F01D10001121F830F01D10F
:100330008000921E002801DB4000521ED205511899
:10034000021251181922904004D3491C002801D1EF
:100350004908490008467047C10FC90700D040420C
:10036000012292071143D3E701218907D0E700005A
:1003700010B5FF22C30D134009D05A4007D0914257
:1003800005DA5C42A14202DDC905081810BDC40FA0
:10039000E407002B06D0002A06D0002902DBFF204C
:1003A000C0050443204610BD4102FCD0004810BDEA
:1003B0000000C07F10B5FF231B0644009C421DD8DF
:1003C0004C009C421AD80346124A0B4307D4401AE9
:1003D00002D3EFF3008010BDEFF3008010BD081AC8
:1003E00006D2EFF3008001219043C907084302E0E1
:1003F000EFF30080904380F3008810BD0D231B04B1
:100400001A4204D01146002000F006F810BD00F09A
:100410001BF810BD00000090C80212D54803400F21
:10042000002804D0C803C043012188407047EFF37F
:1004300000800001000903210907084380F30088B8
:10044000704700207047000010B5024800F02BF8FC
:1004500010BD00000000C07F754600F053F8AE46A6
:10046000050069465346C008C000854618B020B54F
:10047000FFF774FE60BC00274908B6460026C0C5D9
:10048000C0C5C0C5C0C5C0C5C0C5C0C5C0C5403D4C
:1004900049008D46704710B50446C046C046204608
:1004A000FFF74BFE10BD10B50C461107090F0929C7
:1004B00004D00A290AD008290CD104E011460820EA
:1004C000FFF7AAFF06E0510606D501E0510601D567
:1004D0000120C007214610BDD10607D50101090939
:1004E000CC084907000E0006044309E0410F200232
:1004F0004907000A0143200E00061D22D141014395
:100500000846E7E700487047180300200149182013
:10051000ABBEFEE726000200704770B58C18057868
:10052000401C6B075B0F01D10378401C2A1106D1D8
:100530000278401C03E00678401C0E70491C5B1ECC
:10054000F9D12B0705D40023521E0DD40B70491C82
:10055000FAE70378401CCB1A921C03E01D780D705B
:10056000491C5B1C521EF9D5A142D8D3002070BD96
:1005700010B506494968002904D08968002901D0CE
:10058000884710BD024800F02FF810BD740100200C
:100590000208000010B506494968002904D0C9685E
:1005A000002901D0884710BD024800F01DF810BD99
:1005B0007401002003080000024610B5084800241A
:1005C0004068002807D080308168002903D0104699
:1005D0008847044602E0034800F006F8204610BDB4
:1005E000740100202208000004494968002904D051
:1005F0008031096F002900D00847FEE77401002010
:1006000010B506484068002804D04069002801D091
:10061000804710BD0248FFF7E7FF10BD74010020BE
:1006200005080000024610B508480024406800286C
:1006300006D08169002903D010468847044602E0AD
:100640000348FFF7D1FF204610BD000074010020D1
:1006500006080000024610B508480024406800283B
:1006600006D0C169002903D010468847044602E03D
:100670000348FFF7B9FF204610BD000074010020B9
:1006800007080000024610B508480024406800280A
:1006900006D0016A002903D010468847044602E0CC
:1006A0000348FFF7A1FF204610BD000074010020A1
:1006B00008080000024610B50848082440680028D1
:1006C00006D0416A002903D010468847044602E05C
:1006D0000348FFF789FF204610BD00007401002089
:1006E00009080000024610B50848002440680028A8
:1006F00006D0016B002903D010468847044602E06B
:100700000348FFF771FF204610BD00007401002070
:100710000C080000024610B5084800244068002874
:1007200006D0416B002903D010468847044602E0FA
:100730000348FFF759FF204610BD00007401002058
:100740000D080000024610B5084800244068002843
:1007500006D0816B002903D010468847044602E08A
:100760000348FFF741FF204610BD00007401002040
:100770000E08000010B506494968002904D0C96B6D
:10078000002901D0884710BD0248FFF72DFF10BD9A
:10079000740100200F08000010B5074949680029BE
:1007A00004D0096C002901D0884710BD81200001C8
:1007B000FFF71AFF10BD00007401002010B5064AB3
:1007C0005268002A04D0526C002A01D0904710BD14
:1007D0000248FFF709FF10BD740100201108000056
:1007E00010B506494968002904D0896C002901D058
:1007F000884710BD0248FFF7F7FE10BD74010020C6
:1008000012080000084610B506494968002904D0BE
:100810000A68002A01D0904710BD0120C002FFF7EE
:10082000E3FE10BD7401002010B5064A5268002A8C
:1008300004D0526D002A01D0904710BD0248FFF746
:10084000D3FE10BD7401002015080000034610B54A
:10085000084800244068002807D08030026A002A37
:1008600003D018469047044602E00348FFF7BCFE59
:10087000204610BD7401002028080000034610B572
:10088000084800244068002806D0826D002A03D062
:1008900018469047044602E00348FFF7A5FE2046AD
:1008A00010BD00007401002016080000034610B5BA
:1008B000084800244068002806D0C26D002A03D0F2
:1008C00018469047044602E00348FFF78DFE204695
:1008D00010BD0000740100201708000010B5064A82
:1008E0005268002A04D0126E002A01D0904710BD31
:1008F0000248FFF779FE10BD7401002018080000BF
:1009000010B5064A5268002A04D0526E002A01D05F
:10091000904710BD0248FFF767FE10BD740100202C
:1009200019080000034610B5084800244068002854
:1009300006D0826E002A03D018469047044602E093
:100940000348FFF751FE204610BD0000740100204F
:100950001A080000034610B5084800244068002823
:1009600006D0C26E002A03D018469047044602E023
:100970000348FFF739FE204610BD00007401002037
:100980001B08000070B50E46254C26490025208026
:10099000884202D101F066FC33E0012805D02249EB
:1009A000884205D101F0E1F82BE002F078F928E067
:1009B00061218901884202D101F0D9F821E0DC28C7
:1009C00009D01849091F884202D0891C884205D1E4
:1009D00002F04AFB15E002F0F7F912E01149891D17
:1009E000884202D0891C884202D102F03FFB08E015
:1009F000F02804D0FA2802D0002060600EE002F057
:100A0000E5F96060002809D0FF300130416C002911
:100A100004D0002E02D0304688470546284670BDD7
:100A2000740100204A1900003E180000024610B56B
:100A3000084800244068002806D0016F002903D030
:100A400010468847044602E00348FFF7CDFD2046E4
:100A500010BD0000740100201C08000010B50649FC
:100A60004968002904D0496F002901D0884710BD8A
:100A70000248FFF7B9FD10BD740100201D080000F9
:100A800010B506494968002904D0896F002901D0B2
:100A9000884710BD0248FFF7A7FD10BD7401002074
:100AA0001E08000010B50120800200F01BF810BDE8
:100AB00001490880FEE700008401002031B500F004
:100AC000E9F8044600F0E6F80099001B8842F9D3E3
:100AD00038BD012110B58902884201D1FFF790FD90
:100AE00010BD000010B504494A69024202D04861B5
:100AF000FFF7EFFF10BD000000040140F8B5002330
:100B00000124A2E027469F403A4070D04D68022D54
:100B100001D0122D14D1DD08AD002D1800952D6ADD
:100B20005E07AC46F50E0F26AE46AE406546B543B1
:100B3000AC460E697546AE4065462E43009D2E625A
:100B40004D68012D05D0022D03D0112D01D0122D9D
:100B500016D185680326AC465D00AE46AE406546BC
:100B6000B543AC46CE687546AE4065462E438660BA
:100B700046680D79BE43ED06ED0F9D403543456057
:100B800006685F000325BD40AE46AE430D79B4460E
:100B9000AE07B60FBE4065462E430660C668754672
:100BA000AE438D68BD403543C5604D68ED004BD503
:100BB000294D6E6B26436E639E08284DB60075194D
:100BC000AC46AD689E07360F0F27B740BD430527DB
:100BD0003F07B84201D1002715E0214FB84201D1AB
:100BE000012710E01F4FB84202D102270BE02BE093
:100BF0001D4FB84201D1032705E01C4FB84201D177
:100C0000052700E00627B7402F436546AF60184D23
:100C10002E684F689643FF0300D516432E606E681A
:100C20004F689643BF0300D516436E60AE684F68A9
:100C30009643FF0200D51643AE60EE684F689643B8
:100C4000BF0200D51643EE605B1C0A681546DD4006
:100C500000D057E7F8BD000000100240000001403E
:100C60000004005000080050000C0050001C005010
:100C7000000401400069084000D00120704742692B
:100C80004A4042617047002A01D081617047816209
:100C90007047000001480068704700008001002094
:100CA00002480168491C0160704700008001002073
:100CB00010B506480168022211430160032000F0CC
:100CC00007F800F019F8002010BD000000200240D5
:100CD00010B5044607487D21C9000068FFF750FAA7
:100CE00000F014FD00222146501E00F013F80020F1
:100CF00010BD00007C01002070470000002805DBCB
:100D0000C106C90E012088400149086070470000F3
:100D100000E100E010B502F085F910BDF8B5054618
:100D200053480E460068C007C00FB0420AD2504870
:100D3000016849084900314301600068C007C00FDD
:100D4000B0426FD128784B4C800705D5E068F02180
:100D50008843A9680843E0602878C00752D06868D3
:100D6000022817D0032818D02168012818D0890537
:100D7000002957DAE168890889000143E160FFF73B
:100D800089FF69680746022912D003291CD001296E
:100D900026D033E021688903EAE721688901E7E783
:100DA0004907E5E7FFF776FFC11B3348814223D8A7
:100DB000E0680007800F0228F4D123E0FFF76AFF04
:100DC000C11B2D48814217D8E0680007800F032817
:100DD000F4D117E0FFF75EFFC11B274881420BD813
:100DE000E0680007800F0128F4D10BE0FFF752FF05
:100DF000C11B2148814201D90320F8BDE0680007EA
:100E0000800FF3D11A480168C907C90FB1420BD945
:100E1000016849084900314301600068C007C00FFC
:100E2000B04201D00120F8BD2878400706D5E0681F
:100E3000072109028843E9680843E0602878000731
:100E400007D5E0680721C90288432969C90008431A
:100E5000E06000F017F8E168084A0906090F515CE4
:100E6000C840074908600320FFF732FF0020F8BDA3
:100E700000200240001002408813000000360008E5
:100E80007C01002010B5184AD1680C2008400428C5
:100E90000BD0082810D00C2810D050680004410F47
:100EA0000120C003491C884010BD1068C00601D550
:100EB0000E4810BD0E4810BD0E4810BD88020E4BE6
:100EC000000F185C0902D368890F491CDB0301D5A8
:100ED000084A05E01268D20601D5044A00E0044A37
:100EE0005043FFF74DF910BD0010024000093D00CE
:100EF0000024F40000127A0010360008F8B5044609
:100F00000078FE4DC0074AD0E8680007800F02282D
:100F100007D0E8680007800F032809D1E868C003FC
:100F200006D5286880033AD56068002873D036E07B
:100F3000012062680004824203D1296801432960CC
:100F400011E0052301211B0489049A422A6802D179
:100F50000A432A60F1E782432A602A68024000922D
:100F6000286888432860606800280CD0FFF792FE4C
:100F7000064604E0FFF78EFE801B64287ED82868B2
:100F80008003F7D50BE0FFF785FE064604E0FFF788
:100F900081FE801B6428F1D828688003F7D420786C
:100FA000800741D5E8681F270007800F3F0201280E
:100FB00007D0E8680007800F032809D1E868C0035C
:100FC00006D42868400717D5E068012823D113E02C
:100FD000E068002817D0296809229143014329605D
:100FE000FFF758FE064604E0FFF754FE801B022878
:100FF000C4D828684007F7D568682169B843090252
:101000000843686010E02868400840002860FFF747
:1010100041FE064605E095E0FFF73CFE801B0228F6
:10102000ACD828684007F7D42078C00672D5E868A5
:10103000B34E0007800F0AD0E06900282868B14944
:101040005AD008432860FFF725FE074644E0286889
:10105000800502D5E069002874D0606A6968314073
:10106000884212D901F01EFE0028AFD16868616A7B
:10107000B043084368606868000200E0DCE0218C4F
:10108000000A0906084368600FE06968B14301433C
:1010900069606868218C0002000A090608436860DC
:1010A000606A01F0FFFD002890D1606A410B0120C9
:1010B000C003491C8840E96809060A0F9249895C07
:1010C000C840924908600320FFF702FE22E0FFF7C4
:1010D000E1FDC01B02288BD828688005F7D5686819
:1010E000616AB043084368606868218C0002000AA6
:1010F0000906084368600DE088432860FFF7CAFDD1
:10110000064604E0FFF7C6FD801B022888D8286841
:101110008005F7D420787E4E000723D5606900282B
:10112000306910D0012108433061FFF7B3FD074655
:1011300004E0FFF7AFFDC01B02287DD830698007AF
:10114000F7D50FE001E1400840003061FFF7A2FD54
:10115000074604E0FFF79EFDC01B02286CD83069EB
:101160008007F7D42078400760D5A86B0027C0001F
:1011700005D4A86B012109070843A8630127654826
:101180000168C90511D40168821511430160FFF798
:1011900081FD009005E0FFF77DFD0099401A64286D
:1011A0004AD85C480068C005F5D55648A268824216
:1011B00003D131690143316111E001218902002A23
:1011C00007D005231B029A4203D132690A433261D8
:1011D000EFE7326982433261306988433061A06849
:1011E00000280ED0FFF756FD009006E0FFF752FDF5
:1011F0000099411A484881421ED830698005F5D5CA
:101200000DE0FFF747FD009006E0FFF743FD009972
:10121000411A414881420FD830698005F5D4002F2A
:1012200004D0A96B012000078143A96320788006C0
:1012300030D53A48421400E080E0A169002916D078
:10124000AB6801210B43AB606B6B0B436B63016AB3
:1012500011430162FFF71EFD064604E0FFF71AFD89
:10126000801B02286AD8A8688007F7D512E0A96811
:1012700049084900A960016A91430162FFF70AFD2C
:10128000064604E0FFF706FD801B022856D8A86832
:101290008007F7D4A06A002855D0E9680907890FAC
:1012A000032952D0012636060228286805D0B0430B
:1012B0002860FFF7EFFC044642E0B0432860FFF7E8
:1012C000E9FC074604E0FFF7E5FCC01B022835D81F
:1012D00028688001F7D4216BE06AEA680843616BF3
:1012E000FD231B049A4311430843E86028683043F8
:1012F0002860FFF7CFFC044617E000000010024012
:1013000000E0000000010000003600087C01002021
:1013100040100240007000408813000000000140AF
:10132000FFF7B8FC001B022808D828688001F7D511
:1013300009E0FFF7AFFC001B022801D90320F8BD2C
:1013400028688001F5D40020F8BD0120F8BD70B5F3
:10135000040006D025464035687C0026002802D0CF
:1013600005E0012070BD2E74204600F033F8022005
:10137000687420680168402291430160A168606838
:1013800022690843E1681143084361690122084367
:10139000A169520211400843E1690843216A0843E8
:1013A000A16A084321680860A0690421000C084074
:1013B000616A0843216848602168E06A0861206822
:1013C000C16992009143C161666501206874002083
:1013D00070BD000030B500681C4987B0884233D129
:1013E0001B48C26A01210A43C262C26A0A400592CE
:1013F000C26A0A43C262C26A0A400592C26A0A43CA
:10140000C262C26A0A400592426B83141A43426365
:1014100020200090022000240525039101902D0733
:101420000294049469462846FFF768FB4020009028
:10143000694604942846FFF761FB802000906946C6
:1014400004942846FFF75AFB07B030BD0030014036
:1014500000100240F8B5044600276846078026467B
:101460004036707C012802D0707C22287ED1002971
:101470000CD0002A0AD0002B08D0307C012875D06F
:1014800001203074707C012802D003E00120F8BDF7
:10149000322070746765A263A387E3872163A38604
:1014A000E386A764E7640125A06A6D03A84207D11B
:1014B00020680168A9430160206801682943016030
:1014C00020680168490603D4016840221143016085
:1014D0000121FF20E268C90205308A42616866D1B5
:1014E000002904D081420CD1E08E012809D1206B63
:1014F00021680088C860206B801C2063E08E401E3D
:10150000E086E08E002843D1A06AA84246D1206838
:10151000016801221203114301603FE02068C068A6
:10152000A16B0880A06B801CA063B0E000220221A8
:101530002046069B01F0EEFB00287DD1206B216840
:101540000088C860206B801C2063E08E401EE0860F
:10155000E08E002808D1A06AA84205D12068016861
:101560000122120311430160002200E0CCE00121BE
:101570002046069B01F0CEFB00287FD12068C06882
:10158000A16B0880A06B801CA063E08F401EE087E9
:10159000E08E0028CAD1606800287BD1002201219A
:1015A0002046069B01F0B6FB002867D1B6E700296C
:1015B00004D081420BD1E08E012808D1206B411C60
:1015C000216321680078C860E08E401EE086E08ECE
:1015D000002845D1A06AA84205D1206801680122EF
:1015E000120311430160002201212046069B01F0F5
:1015F00091FB002842D12068C068A16B087046E0CA
:10160000002202212046069B01F084FB002835D1F0
:10161000206B411C216321680078C860E08E401E69
:10162000E086E08E00280AD1A06AA84207D120688F
:1016300002680121090300E020E00A430260002261
:1016400001212046069B01F065FB002816D1206889
:10165000C268A06B411CA1630270E08F401EE0874E
:10166000E08E0028CCD16068002813D1002201212F
:101670002046069B01F04EFB002802D00320F8BD57
:1016800008E02068C168A06B421CA2630170E08F73
:10169000401EE087A06AA8420FD100220121204607
:1016A000069B01F037FB002802D0606D02210EE09E
:1016B0002068C06869460880088801228021204689
:1016C000069B01F027FB002804D0606D2021084311
:1016D0006065D3E701207074A06AA84211D1206828
:1016E0008168C943C9060CD4616D0222114361654A
:1016F0000168A943016020680168294301603774CB
:10170000C4E637740020BAE70220B8E7094910B5EB
:10171000401E884201D9012010BD074C60610321A1
:10172000081F01F07FFC0020A0610720206100203D
:1017300010BD0000FFFFFF0000E000E070B50246B2
:101740002032137D012B1BD0012313750224547505
:10175000046865687026B5436560046865680E684E
:10176000354365600468A5688026B543A5600068B8
:10177000846849680C43846053750020107570BDFF
:10178000022070BD704770B50446006801690025ED
:10179000C9438907002915DBC168C943890711D4EA
:1017A000E91E0161012020752068806980072046BC
:1017B00002D0FFF7E7FF04E000F078F8204600F0E1
:1017C00053F9257520680169C943490717D4C168D1
:1017D000C943490713D40421C9430161022020757C
:1017E000206880698005800F204602D0FFF7CAFF7D
:1017F00004E000F05BF8204600F036F9257520681B
:101800000169C943090716D4C168C943090712D43D
:101810000821C9430161042020752068C069800740
:10182000204602D0FFF7AEFF04E000F03FF820466C
:1018300000F01AF9257520680169C943C90617D453
:10184000C168C943C90613D41021C94301610820E6
:1018500020752068C0698005800F204602D0FFF700
:1018600091FF04E000F022F8204600F0FDF8257515
:1018700020680169C943C90708D1C168C943C907BC
:1018800004D1891E0161204600F06CF920680169CD
:10189000C943490609D4C168C943490605D4402152
:1018A000C9430161204600F05EF970BD7047F8B58C
:1018B000064604462036307D0D4601280DD0012015
:1018C0003075022070750427002A08D0042A16D02B
:1018D000082A2AD00C2A4DD137E00220F8BD206812
:1018E00001F02BFB20688169082211438161206887
:1018F0008169B943816120688169EA6812E02068E2
:1019000001F033FB206882690121C9020A43826128
:101910002068816901229202914381612068816976
:10192000EA6812021143816124E0206801F036FB6D
:101930002068C26908210A43C2612068C169B943AD
:10194000C1612068C169EA6812E0206801F041FBCA
:101950002068C1690122D2021143C1612068C269B5
:10196000012189028A43C2612068C169EA681202C2
:101970001143C1610120707500203075F8BD70B54C
:10198000040005D025462035687D002802D006E0F9
:10199000012070BD00202875204600F00BF80220C1
:1019A0006875211D206801F095FA012068750020F6
:1019B00070BD000070B5046826480021264A022345
:1019C00086B0844214D1506B202420435063802081
:1019D0000291039104910090019369461F48FFF71B
:1019E0008DF8002204211620FFF794F9162017E045
:1019F0000126B60701251A48B44215D1946B2C4331
:101A00009463082202910391019304930092694622
:101A1000FFF774F8002204210F20FFF77BF90F2055
:101A2000FFF76CF906B070BD0E4B9C42FAD1536BB8
:101A300004242343536322020291039101950092EF
:101A40006946FFF75BF8002203211420FFF762F9D3
:101A50001420E5E700140140001002400008005087
:101A6000000400500008014070B5044600681D499C
:101A700088420AD1207D022807D10020FEF71AFEF5
:101A8000082802D00020FEF7E9FF0121206889071D
:101A900088420AD1207D022807D10120FEF70AFEE4
:101AA000082802D00120FEF7D9FF0F49206888429C
:101AB00016D1207D012813D184020C4D21462846E1
:101AC000FFF7DDF80220FEF7F5FD082808D02146D3
:101AD0002846FFF7CFF8012802D10220FEF7BEFF0B
:101AE00070BD0000001401400008014000040050D7
:101AF00010B502680446002906D0042907D0082939
:101B000014D00C2907D114E0D068022301E0D0687A
:101B100004231843D0600122206801F003FA2068F2
:101B20000168012211430160002010BDD068082324
:101B3000EFE7D0681023ECE710B5044600680022F8
:101B400001F0F0F92068016A054A114203D10168E9
:101B5000490849000160012020346075002010BD53
:101B60001111000070477047FEE700207047002009
:101B70007047000010B50F4A022901D2022102E08D
:101B8000914200D9114628220B4B4243D2181184AE
:101B9000002807D0012809D0022802D1084600F009
:101BA000B5F810BD084600F085F810BD084600F0F5
:101BB00097F810BD10270000A00100200149C8605F
:101BC0007047000000000020014988607047000055
:101BD0000000002010B5FEF771FF10BD72B670470F
:101BE00062B67047F0B5304F0025012487B0002859
:101BF0000DD0012856D0022807D11020694631C1E6
:101C0000694638460394FEF779FF07B0F0BD2748D0
:101C1000C26A04210A43C262C26A0A400592C16ACA
:101C20002143C162C16AC907C90F0591C26A022175
:101C30000A43C262C06A0526084005904802009027
:101C40001B48360701900294694603943046FEF71C
:101C500055FF002205210720FFF75CF80720FFF75A
:101C60004DF84020694631C1694638460394FEF775
:101C700045FF012240213846FFF705F801204002C8
:101C8000694631C1694630460394FEF737FF0020AC
:101C900000F0A8F8FF200130694631C1694630469E
:101CA0000394B0E72020A9E7000400500010024090
:101CB0000000211010B50446FFF7E4F8A102FEF77A
:101CC0005FFA0649401E0A68D062C8600968400889
:101CD000886304210148FFF70BFF10BD700200204C
:101CE00010B50446FFF7CEF8A102FEF749FA0649FF
:101CF000401E0A68D062C8600968400888630421F1
:101D00000148FFF7F5FE10BDA802002010B50446FB
:101D1000FFF7B8F8E102FEF733FA0649401E0A68F9
:101D2000D062C86009684008486300210148FFF795
:101D3000DFFE10BDE002002070B586B0012804D09F
:101D4000022809D0144C154803E0134C0120383404
:101D500080070426206004E00F4C114870340026F0
:101D600020600025A560E5600E4825616060204682
:101D7000FFF705FE60200090019502953246694606
:101D800003952046FFF793FD049504A92046059589
:101D9000FFF7D4FC06B070BD7002002000140140B3
:101DA00000080140FF03000010B5002808D00128FA
:101DB0000AD0022803D100210548FFF7BDFE10BD5F
:101DC000034804217038F8E7014804213838F4E763
:101DD000E002002010B50122052051020007FEF7A5
:101DE00052FF10BD10B50121052000224902000755
:101DF000FEF749FF10BD000010B500280BD00A4BBC
:101E0000012804D002280DD10A46102101E00A461B
:101E10002021184604E00A46FF2105200131000771
:101E2000FEF731FF10BD00000004005010B50E4851
:101E30000C4901602021C1610122426100218160C1
:101E40000222026181620722C160C2620122016234
:101E5000520282614162FF2105314160FFF777FA4A
:101E600010BD00000030014018020020F7B51646F2
:101E700082B0002240211048FEF705FF0024012710
:101E80003F030FE0012300970C48039A0299FFF7E4
:101E9000E1FA050008D10298401C02900398401C0A
:101EA000641C0390B442EDD3012240210248FEF7A6
:101EB000EAFE284605B0F0BD0004005018020020DC
:101EC00010B5A82100F062FB10BD10B5B82100F0DC
:101ED0005DFB10BDF3B5304D83B0A9782022081A00
:101EE000401EC7B2049900201143C9B22B4E019184
:101EF00000242C70002801D0FFF772FE2046274CEA
:101F000000210C3C09E060546218D070907150724E
:101F10007218D07090715072491CAA789142F2D315
:101F2000049803280ED004DC01280BD0022804D129
:101F30000CE018280AD0192808D0E11901988871F6
:101F4000012007E00198E055032003E0E119019822
:101F5000C87002200090FFF741FE29780120002977
:101F6000C6D1009803210D1A06E0680028188119CF
:101F7000001900F073FE6D1C042DF6D3F019C17822
:101F80000C048179407A09020C430443FFF728FED0
:101F9000204605B0F0BD00000000002094010020A4
:101FA000F8B51D4DA9781D4E081A401EC7B2002075
:101FB00004462C70002801D0FFF712FE17490020BC
:101FC0000C3907E00C540A18D47094713218D4708C
:101FD0009471401CAA789042F4D31049D0200C3957
:101FE000C855FFF7FBFD297801200029E1D10B4DF1
:101FF00000240C3D600020188119401900F02EFECD
:10200000641C032CF6D3F019C17880790C020443C8
:10201000FFF7E6FD2046F8BD0000002094010020F7
:1020200010B5002100F0B2FA10BD0000F7B52E493E
:1020300017468A7886B0101A401EC6B200203A04AD
:10204000120E0092079AD2B20392274C00252570F7
:10205000002801D0FFF7C4FD294625460020234C67
:1020600005E021542218D17091715172401CAA7858
:102070009042F6D3079801280AD0022811D00328ED
:1020800006D018280DD0A1190398887101200EE000
:102090000398A055390CA019C170009981710320D3
:1020A00005E0A0190399C170009981710220019087
:1020B000A0194772FFF792FD297801200029C4D1A9
:1020C00001980321094E0D1A0C3606E06800281805
:1020D0008119001900F0C2FD6D1C042DF6D3FFF725
:1020E0007FFD09B0F0BD0000000000208801002045
:1020F000F8B50E462821484314494418E08BA18BBB
:10210000A28B091A101848430546218BFEF738F8B0
:10211000618B47082846FEF733F840083918B1426A
:102120000FD9608B218B09187043FEF729F801281D
:1021300003D9411E02D1012100E00021A1602061EC
:10214000F8BDA760301A401EF9E70000A00100208A
:10215000810204D5C043401C8002800A404270477F
:102160000249C968002900D00847FEE700000020A6
:1021700010B5054CA068002804D00121617080478B
:102180000020607010BD000000000020282148439E
:1021900001494018008B7047A001002010B50C4683
:1021A000FFF798FE0F2C1BD006DC012C0BD0032C64
:1021B00009D0092C04D10BE0102C11D0132C0BD01A
:1021C000FEF7D2F810BDFFF7C3FFFEF7C5F810BD4C
:1021D000C0B200F031FD10BDC0B200F047F910BD33
:1021E000C0B200F0FBFC10BD282148430149401853
:1021F000008C7047A0010020282148430149401865
:10220000408B7047A0010020282148430249401814
:102210002030007970470000A001002028214843A9
:10222000024940182030C07870470000A00100200B
:1022300085204002704710B50321FFF74BFEFFF7E2
:1022400087FF10BD2821484301494018808B704703
:10225000A00100202821484301494018C08B704745
:10226000A00100200048704710000020014880783D
:10227000704700000000002010B50121FFF72AFE82
:10228000FFF766FF10BD10B51621FFF723FE4007CC
:10229000400F030000F0B8FE050406080A0C0E000B
:1022A000002010BD012010BD022010BD032010BD74
:1022B000042010BDFE2010BD2821484302494018CB
:1022C0002030407970470000A001002010B50021A7
:1022D00000F00EF810BD10B504460321FFF7FAFD1B
:1022E000FFF736FF0146204600F002F810BD00005F
:1022F000F8B50F4606462820144970434418254671
:1023000020352879082802D0304600F021F8012134
:102310003046FFF7DFFDFFF71BFF606060683A1A89
:1023200004D462610121002A03D1F8BD50426061EA
:1023300000210120A870304600F040FA6169304663
:10234000FFF7D6FE304600F071FBF8BDA00100207B
:1023500070B528210A4A41438D182C4620346179F2
:10236000002902D000F010F870BDFFF71DFD082015
:1023700020710320A070034868610020288470BD8C
:10238000A0010020FFFFFF7F10B50446FFF70CFD02
:102390002046FFF795FD28204443064808222018D0
:1023A000014620310A7103228A70034941610021EC
:1023B000018410BDA0010020FFFFFF7F70B5154C08
:1023C00005462079FFF70EFCFFF730FD002803D00B
:1023D0000120C003FFF7C4FE2079FFF7ADFC207990
:1023E000FFF7F8FC0120FFF7F5FB2079002D0DD059
:1023F000C0B2294600F09EF92079FFF761FD2079EF
:10240000FFF7CEFDA088401CA08070BDC0B200F0D8
:10241000B3F9F1E700000020F7B50646282012497D
:102420007043441821462031087915460F46082884
:1024300002D03046FFF78CFF002D14D065610120DB
:10244000B87001463046FFF745FDFFF781FE60603A
:102450003046019900F0B2F929463046FFF748FEB0
:10246000304600F0E3FAFEBDA001002010B5401C8C
:10247000FDF77AFF014900F0D7FF10BD0080BB4394
:1024800010B5074901F054F8064900F0CDFF3F218F
:10249000090600F083FFFDF723FFC0B210BD000066
:1024A0000080BB430FB82E3B014880887047000076
:1024B0000000002010B51921FFF70CFD80B210BDFF
:1024C00010B5FFF787FC10BD10B5FFF78BFC10BDF2
:1024D00070B500240B4D10E02046FFF755FF204655
:1024E000FFF780FC0120FFF775FB2046FFF772FC29
:1024F0000120FFF76FFB641CE4B2A8788442EBD3A1
:1025000070BD00000000002070B50E460446282073
:1025100009496043451820352879082802D020460B
:10252000FFF716FF3146204600F048F90020A8705A
:10253000204600F07BFA70BDA001002070B5054672
:1025400000291BD001291BD002291BD003291BD035
:102550000C24FFF719FF16212846FFF7BBFCF821D2
:1025600008402043024616212846FFF75FFD00225F
:1025700001212846FFF75AFD012070BD0824E8E735
:102580000924E6E70A24E4E70B24E2E7F3B5134C59
:1025900081B0A278101A401E0025C2B22570104EDC
:1025A000B71802E00D70FFF71BFB002002E03118A6
:1025B0004D72401CA1788842F9D302987872FFF7D7
:1025C0000DFB207821460028ECD10549153108463D
:1025D0000C3800F043FBFFF703FBFEBD00000020BA
:1025E00088010020024610B5002000290DD02823C4
:1025F0005A43064BD218134620331C79082C02D0BC
:102600009B78002B01D11183012010BDA001002077
:10261000F8B50746374801250E461446824203D3D3
:10262000012E01D0032E62D1092E44D006DC012EEA
:1026300027D0022E09D0032E59D122E00F2E48D0E8
:10264000102E46D0132E52D13CE06000000E12D066
:10265000294884424BDC16210020FFF73BFC400751
:10266000400F0721091A01208840FDF775FE214619
:1026700000F032FF3BD32046FDF732FEC205D20DFB
:102680002FE0652149068C4231D81C498C422EDC52
:102690008442104604D2FDF723FE8202920A20E013
:1026A0000121C9074840FDF71BFE80020121800A75
:1026B00089050A1A15E01248844218DC104600F019
:1026C000A7FA0DE00F48844211DC1046FFF7D8FE50
:1026D00006E08520C005844209DC104600F087FA38
:1026E000024631463846FFF7A1FC2846F8BD0025D2
:1026F000FBE70000000080800080FF43F8FFFF49F7
:1027000000007A450080BB45024610B50020002934
:102710000DD028235A43064BD218134620331C7978
:10272000082C02D09B78002B01D15183012010BDD1
:10273000A001002070B5282204460E4D54430B889A
:10274000621913834B8853838B889383CB88D383FD
:1027500000232B5153609360D36013615361138442
:102760000323203293700123D3700823137100F0E8
:10277000A5F870BDA001002010B5282103460E4C1D
:10278000A0224B4319190A834A83192292018A8392
:102790005210CA830022E2504A608A60CA600A610D
:1027A0004A610A84032220318A700122CA700822F9
:1027B0000A7100F0CBF810BDA00100202822064BC2
:1027C000424310B5D21820321379082B02D1D170B0
:1027D000FFF712FB10BD0000A001002070B50C46F1
:1027E00005460121FFF776FBFFF7B2FC011B02D47F
:1027F0008A02920A05E0484280020121800A890586
:102800000A1A01212846FFF711FC70BD10B50029F6
:1028100002DB8A02920A05E0494289020122890A02
:102820009205521A0321FFF701FC10BD10B50246B4
:102830000B4C00208B1EA34210D828235A43094B6F
:10284000D318DA8B8A4209D81A4620321479082C18
:1028500002D09278002A01D19983012010BD000096
:102860000E270000A001002010B502460B4C0020EE
:102870008B1EA34210D828235A43094BD3189A8B96
:102880008A4209D31A4620321479082C02D0927851
:10289000002A01D1D983012010BD00000E270000BD
:1028A000A0010020032805D8034900228A808870EF
:1028B00001207047002070470000002070B50C46D2
:1028C000054600220121FFF7B1FB00220221284624
:1028D000FFF7ACFB002203212846FFF7A7FB0921E5
:1028E0002846A268FFF794FE627D207D0E210243F8
:1028F0002846FFF79BFB0F212846A269FFF788FEB9
:1029000010212846E269FFF783FE13212846E2687A
:10291000FFF77EFEA27CE07C162102432846FFF7EB
:1029200085FB17212846A26AFFF780FB2420025D61
:10293000607C618C0243207C08430243208C182178
:1029400002432846FFF772FB70BD0000F8B504464D
:1029500000220121FFF76AFB002202212046FFF737
:1029600065FB002203212046FFF760FB59271F4823
:102970001F4D204EFF01002C03D0012C01D0022C52
:1029800033D100F045F9024609212046FFF74EFBFE
:1029900035220E212046FFF749FB284600F027F993
:1029A00002460F212046FFF741FB304600F01FF999
:1029B000024610212046FFF739FB01221321204651
:1029C000FFF734FB8C2216212046FFF72FFBCF2286
:1029D00017212046FFF72AFB3A4618212046FFF729
:1029E00025FB0021204600F007F8F8BD00007A43DF
:1029F000000040400000A84128225043024A8018AD
:102A00002030417170470000A001002001462822BB
:102A10005143054A0020891820310A79082A02D03A
:102A20000220887001207047A001002070B5044684
:102A3000FFF74BFA22462820094D424351198E6870
:102A40000B4620330020002E01D0187101E0022631
:102A50001E71A850C860C98B2046FFF78BF870BD67
:102A6000A0010020F1B55B4801214170009D2820A4
:102A7000594945436C18E068401CE060224620320A
:102A80001079002804D002285BD0032813D139E044
:102A9000E168A368268C208B97780004022F05D06C
:102AA0009778002F08D027698F4205D102214A4824
:102AB00011710021415188E0A78BB7425BD997780B
:102AC000002F01D0994256D00027002E00D10126B8
:102AD0003146FDF755FB40494A59801848510120BD
:102AE000000405E04A59121A4A51761CB6B2012771
:102AF0004A598242F6D2002F67D0A08BB0425FD2F3
:102B0000A68B5DE0A08BE3689678022E0BD09678BA
:102B1000002E02D026699E4205D99378002B06D15B
:102B2000238C834203D902201071002007E09378A0
:102B3000002B4AD1238C834247D200201071485188
:102B400043E0E368268C608B97780004022F02D163
:102B5000E78BB74205D29778002F06D067699F426E
:102B600003D80098FFF7F4FB2FE09378002B05D1F2
:102B7000A38BB34202D30320107126E0E18BB14254
:102B800023D20027002E00D101263146FDF7F8FAA6
:102B900011494A59801848510120000407E04A5958
:102BA000121A4A51012E01D9761EB6B201274A598E
:102BB0008242F4D2002F08D0E08BB04200D9E68BDD
:102BC0002684218C0098FEF7D5FF0249002048702A
:102BD000F8BD000000000020A001002010B5401C3E
:102BE000FDF7C2FB0021C943FDF7C2FB10BD10B5C4
:102BF0003F242406214600F09BFC0121FDF7B8FB91
:102C0000214600F0CBFBFDF76BFBC0B210BD00000E
:102C100010B5074900F08CFC064900F005FC3F2187
:102C2000090600F0BBFBFDF75BFBC0B210BD000066
:102C30000000FA416F12033D10B5401CFDF794FBF4
:102C4000014900F0F1FB10BD0000FA4100B5024659
:102C50001046FFF7D9FA0828FAD100BD10B5074C85
:102C6000A278FFF703F9002802D00548FFF778FAA9
:102C70006078002801D00120207010BD00000020E5
:102C80000180000010B50020FDF796FC0120FDF743
:102C900093FC0220FDF790FC10BD704770470020A8
:102CA0007047000070B517490023CA681206120F5A
:102CB00018D18A6B154CD500134A02D512682240F0
:102CC00009E08E6B01252D072E438E6312688E6BF3
:102CD0002240AE438E63A24204D10321890388427D
:102CE00000D101230A4801684908490019430160DD
:102CF0000068C007C00F984201D0012070BD0020BD
:102D000070BD00000010024000700040001800007C
:102D100000200240F8B51D4616460F460446FDF752
:102D2000B9FF314626464036009000291ED043E0C8
:102D3000681C1BD0002D05D0FDF7ACFF0099401A90
:102D4000A84213D920684168E0229143416020687D
:102D5000026840218A43026023E021680A688243B6
:102D60000A6021680A6802430A601FE020688168DF
:102D700038468843DCD124E0681C1DD0002D06D0E5
:102D8000FDF788FF01460098081AA84214D9206868
:102D90004268E0218A4342602068016840229143F2
:102DA00001600120A16A40038142D6D001207074E5
:102DB000002030740320F8BD2068816838468843BD
:102DC000DAD00020F8BD704700207047002070471F
:102DD00010B5FDF765FF10BD10B51B4894B0816BB1
:102DE000020411438163194801680322D20291430E
:102DF000C21489180160022000900A904004012149
:102E00000C90039100010D90002410200194049077
:102E10000B946846FEF772F8002802D00020FDF7F8
:102E200047FE0F200E9003200F9010941194012163
:102E300012940EA8FDF772FF002802D00120FDF7C2
:102E400037FE14B010BD00000010024000700040BA
:102E500010480168821511430160C1680E4A114093
:102E6000C16001680D4A114001608168490849004C
:102E7000816001680122920491430160C168FD22D2
:102E800012049143C160002101610549C0038860BB
:102E900070470000001002400C40FF88F6FFF6FE6D
:102EA00000ED00E010B50248FEF76DFC10BD00001B
:102EB000E002002010B50248FEF765FC10BD0000DE
:102EC0007002002010B50248FEF75DFC10BD000046
:102ED000A802002070B5026801239B070F4C104D1B
:102EE000984203D0A04201D0A84203D17026B24339
:102EF0004E683243984203D0A04201D0A84204D188
:102F000003231B029A43CB681A4302608A68C26299
:102F1000096881620121416170BD00000008014023
:102F20000014014010B50123046A8B409C430462E5
:102F3000036A8A401343036210BD30B5026A520827
:102F400052000262026A456883697024A3439C08A8
:102F50000B68A40023430224A2438C6845601443F9
:102F6000836149684163046230BD30B5026A102351
:102F70009A430262036A4568826973242402A24369
:102F80000C6824021443202293438A68456012018E
:102F90001A43846149688163026230BD30B5026AB8
:102FA000FF2301339A430262026A4568C3697024B1
:102FB000A3439C080B68A400234301246402A2439A
:102FC0008C68456024021443C3614968C16304628C
:102FD00030BD30B5026A01231B039A430262036AC3
:102FE0004568C26973242402A2430C682402144376
:102FF0000122520393438A68456012031A43C46155
:1030000049680164026230BD30B47446641E25789C
:10301000641CAB4200D21D46635D5B00E31830BC0C
:10302000184700008307FF22DB0E9A408907090E2C
:103030009940002808DB830809489B001B18186882
:1030400090430843186070470007000F0838830852
:1030500004489B001B18D86990430843D861704707
:1030600000E400E000ED00E0002070470020704721
:10307000FDF71EFEFFF7B0FEC24C03212046FDF710
:1030800081FC00212046FDF7BDFB00212046FDF715
:10309000B9FB00212046FDF7B5FBBB48FDF77AFAE6
:1030A000BA48FDF765FA0020FDF74CFB0146002009
:1030B000FDF714FC0120FDF745FB01460120FDF75B
:1030C0000DFC0220FDF73EFB01460220FDF706FC49
:1030D0001925ED0129460020FDF770FB0020FDF7C2
:1030E000CFFC0020FDF72EFB0446A8420AD1014682
:1030F0000020FDF705FC21460120FDF75FFB0120C4
:10310000FDF7BEFC0120FDF71DFB0146A84205D1DD
:103110000220FDF753FB0220FDF7B2FC0220FDF771
:1031200011FB7D240646E4002046FDF7C7FC19206C
:10313000C001864211D10020FDF71CFB0120FDF7E4
:1031400019FB0220FDF716FB0020FDF799FC01207A
:10315000FDF796FC0220FDF793FC25462046FDF77F
:10316000ADFC8B4C00202146FDF728FB0020FDF72D
:1031700087FC0020FDF7E6FA0146A04205D10120B8
:10318000FDF71CFB0120FDF77BFC0120FDF7DAFABF
:103190000146A04205D10220FDF710FB0220FDF7F9
:1031A0006FFC0220FDF7CEFA06462846FDF786FCA6
:1031B0001920C001C64215D131460220FDF7A0FBFF
:1031C0000020FDF7D7FA0120FDF7D4FA0220FDF721
:1031D000D1FA0020FDF754FC0120FDF751FC02203C
:1031E000FDF74EFC2846FDF769FC0020FDF7D4FAF8
:1031F0000220FDF7D1FA0020FDF742FC0220FDF786
:103200003FFC2846FDF75AFC01210020FDF70CFB8E
:103210000020FDF767FA04460020FDF71BFAA042E4
:10322000FAD1FF3C413CA1B20120FDF77BFB01211B
:103230000846FDF7F9FA0120FDF70CFAA042FAD191
:10324000FF3C413CA1B20220FDF76CFB01210220B2
:10325000FDF7EAFA0220FDF7FDF9A042FAD14D4848
:10326000FDF72CFC0120FDF7E1FB0120FDF708FC38
:103270000020FDF7B5FA0220FDF7B2FA0020FDF7B5
:10328000FFFB0220FDF7FCFB0020FDF773FA012095
:10329000FDF770FA0220FDF76DFA0020FDF7F0FB54
:1032A0000120FDF7EDFB0220FDF7EAFB0020FDF712
:1032B000B9F905460020FDF7E5F904460020FDF7C1
:1032C00011FA06460020FDF725FA074603210120E2
:1032D000FDF7BCFAF003010C0120FDF723FBF80316
:1032E000010C0120FDF736FB69080120FDF7C6FA45
:1032F00061080120FDF7DAFA00210220FDF7A6FAA5
:103300003003010C0220FDF70DFB3803010C0220F5
:10331000FDF720FB29090220FDF7B0FA2109022060
:10332000FDF7C4FA1924E401654266102F112946FD
:103330000020FDF743FA31460120FDF73FFA3946F8
:103340000220FDF73BFA0020FDF79AFB0120FDF774
:1033500097FB0220FDF794FB21460020FDF72EFA93
:103360000D490120FDF72AFAC8210220FDF726FAAF
:103370000020FDF785FB0120FDF782FB0220FDF711
:103380007FFBD4E74A190000852C0008B10A000829
:1033900080F3FFFFB80B0000C0F9FFFF70B50125F7
:1033A0000400ED074C4020D4441A01D2001B091937
:1033B000C60D4B00F2B2FF2A29D01B0E2CD0000202
:1033C0000C02D31A2C43DC402843051910D2280ADA
:1033D00002D3401C6D0611D0761EF6058019FF2A17
:1033E00000DA70BDC00DC00570BD694000F0A6F8E0
:1033F00001200543C541521C761CE8E764089C4047
:10340000C90161408900E7D10124A043E4E71B0E14
:10341000440200D0034870BD002AFCD1C00FC00791
:1034200070BD00BF0000C07F70B5420064414B001A
:103430005C41120E39D01B0E38D0FF2A3CD0FF2B36
:103440003AD040024902400A490A060045184E4354
:10345000000A090AD2184843ED017F3A0104731AA1
:103460004019190C4318990F04D001215B08490732
:103470005B1A521CD80904D3401CF50301D19D06E8
:1034800007D0FF2A08D2D50506D0E407204340190B
:1034900070BD0125A843F4E7002A01DCE00770BDF8
:1034A0002402FF202043C00570BD1B0EFF2A03D05D
:1034B000FF2B01D0E00770BDFF2645003606B54260
:1034C00006D84D00B54203D8D218FF2A00D0E7E74E
:1034D000004870BD0000C07F01230A00DB050243E5
:1034E0000DD4DA4203D49A4207D481427047D942BC
:1034F00014D4D84212D48142704789427047DA42CC
:1035000003D59A42F9D5884270475B004A00DA42F7
:1035100004D24200DA4201D288427047484041401A
:1035200010B5024A4840FCF745FF10BD09001604DB
:1035300070B501250400ED074C4022D4441A02D294
:103540006C40001B0919C60D4B00F2B2FF2A4BD08C
:103550001B0E50D000020C02D31A2C43DC40A843AF
:10356000051B05D5AD0019D36D08761E521E37D048
:10357000F605280A01D2801970BD70416D0603D08E
:1035800070BD6940FFF710FF9C400902614049008F
:1035900001D0401E70BD0124A04370BD6D081DD038
:1035A00001202B0C01D12D0410302B0E01D12D0246
:1035B00008302B0F01D12D01001DAB0F01D1AD0043
:1035C000801CEB0F01D16D00401C6D00361A121AE1
:1035D000680AF5054019012A02DB70BD002070BDA4
:1035E000C036300AC00770BD1B0E440201D1FF2B4C
:1035F00000D1024870BD002AF0D070BD0000C07F2D
:103600000000000000000000010203040607080992
:10361000030406080C101820300000003C36000897
:1036200000000020880100001A050008F836000894
:1036300088010020F007000004010008011013BDFC
:10364000231408A9241408BD1B1B08C904411371C5
:10365000211B088D041AE9041AF9041309221B0816
:1036600031041A37041A45041A55041A79041ACD7C
:10367000041AD7041AF1041A51481A19481AD10425
:103680001309251B08E5041309271B08DD04130D86
:10369000281B082D041A6904130D2A1B086504133E
:1036A0004D2C1408C11E1B08CB041AD50413A11FEE
:1036B0001C0821202819041AB5441AC1041AC90487
:1036C0001A3D481ABD4401101A897001201A6D98DC
:1036D00001101A61D0011C13F9299B08B9381A8707
:1036E0000C0A111D48C11AA5D81311260B1D089DDF
:0836F0005C9480841E000000C0
:04000005080000C12E
:00000001FF
