:020000040800F2
:10000000A00900203D010008E72B0008AD1A0008F8
:1000100000000000000000000000000000000000E0
:100020000000000000000000000000005D2D00083E
:100030000000000000000000E92B0008672D000808
:100040004F010008000000004F0100084F010008A8
:100050004F0100084F0100084F010008990A0008ED
:10006000000000004F0100084F0100084F01000888
:100070004F0100084F0100084F0100080000000078
:10008000352E00080000000000000000152E0008BA
:10009000252E00084F0100084F0100084F010008FD
:1000A0004F0100084F0100084F0100084F010008F0
:1000B0004F01000800F002F800F030F80CA030C842
:1000C000083824182D18A246671EAB4654465D46D4
:1000D000AC4201D100F022F87E460F3E0FCCB6466E
:1000E0000126334200D0FB1AA246AB4633431847E1
:1000F000F4350000143600000023002400250026FB
:10010000103A01D378C1FBD8520700D330C100D5D3
:100110000B6070471FB51FBD10B510BD00F096F9FC
:100120001146FFF7F7FF03F00DF800F0AEF903B446
:10013000FFF7F2FF03BC00F0E3F900000748804737
:1001400007480047FEE7FEE7FEE7FEE7FEE7FEE7BB
:1001500004480549054A064B70470000B92D0008C0
:10016000B5000008A0030020A0090020A005002081
:10017000A0050020002203098B422CD3030A8B42E6
:1001800011D300239C464EE003460B433CD400228F
:1001900043088B4231D303098B421CD3030A8B42A1
:1001A00001D394463FE0C3098B4201D3CB01C01A6F
:1001B000524183098B4201D38B01C01A524143093A
:1001C0008B4201D34B01C01A524103098B4201D328
:1001D0000B01C01A5241C3088B4201D3CB00C01A95
:1001E000524183088B4201D38B00C01A524143080D
:1001F0008B4201D34B00C01A5241411A00D2014632
:100200005241104670475DE0CA0F00D049420310CA
:1002100000D34042534000229C4603098B422DD319
:10022000030A8B4212D3FC22890112BA030A8B42C1
:100230000CD3890192118B4208D3890192118B4210
:1002400004D389013AD0921100E08909C3098B4295
:1002500001D3CB01C01A524183098B4201D38B01D8
:10026000C01A524143098B4201D34B01C01A52417B
:1002700003098B4201D30B01C01A5241C3088B42C0
:1002800001D3CB00C01A524183088B4201D38B00AB
:10029000C01A5241D9D243088B4201D34B00C01A35
:1002A0005241411A00D20146634652415B1010464A
:1002B00001D34042002B00D54942704763465B1092
:1002C00000D3404201B50020C046C04602BD704781
:1002D000704770470102C21504D00123DB071943A0
:1002E000002A0ADB9E239A1A02D40846D04070479F
:1002F000FF2241001206914201D900207047C01729
:10030000C04370471F22030C02D10F2200041CD0EF
:10031000030E01D10002083A030F01D10001121FA0
:10032000830F01D18000921E002801DB4000521E85
:10033000D2055118021251181922904004D3491CB9
:10034000002801D14908490008467047C10FC90774
:1003500000D04042012292071143D3E701218907CF
:10036000D0E7000010B5FF22C30D134009D05A405A
:1003700007D0914205DA5C42A14202DDC9050818A6
:1003800010BDC40FE407002B06D0002A06D00029B8
:1003900002DBFF20C0050443204610BD4102FCD013
:1003A000004810BD0000C07F10B5FF231B064400AD
:1003B0009C421DD84C009C421AD80346124A0B435B
:1003C00007D4401A02D3EFF3008010BDEFF3008092
:1003D00010BD081A06D2EFF3008001219043C9072F
:1003E000084302E0EFF30080904380F3008810BDE3
:1003F0000D231B041A4204D01146002000F006F819
:1004000010BD00F01BF810BD00000090C80212D50E
:100410004803400F002804D0C803C043012188408E
:100420007047EFF30080000100090321090708432A
:1004300080F30088704700207047000010B5024824
:1004400000F02BF810BD00000000C07F754600F0E2
:1004500053F8AE46050069465346C008C0008546BD
:1004600018B020B5FFF774FE60BC00274908B646F7
:100470000026C0C5C0C5C0C5C0C5C0C5C0C5C0C5B3
:10048000C0C5403D49008D46704710B50446C04682
:10049000C0462046FFF74BFE10BD10B50C461107B5
:1004A000090F092904D00A290AD008290CD104E02F
:1004B00011460820FFF7AAFF06E0510606D501E025
:1004C000510601D50120C007214610BDD10607D530
:1004D00001010909CC084907000E0006044309E0A0
:1004E000410F20024907000A0143200E00061D2289
:1004F000D14101430846E7E7004870473C0300202C
:1005000001491820ABBEFEE726000200704770B517
:100510008C180578401C6B075B0F01D10378401CD9
:100520002A1106D10278401C03E00678401C0E70A8
:10053000491C5B1EF9D12B0705D40023521E0DD494
:100540000B70491CFAE70378401CCB1A921C03E09D
:100550001D780D70491C5B1C521EF9D5A142D8D3E1
:10056000002070BD10B506494968002904D089688B
:10057000002901D0884710BD024800F02FF810BDB7
:10058000740100200208000010B5064949680029DE
:1005900004D0C968002901D0884710BD024800F086
:1005A0001DF810BD7401002003080000024610B5BC
:1005B000084800244068002807D08030816800295E
:1005C00003D010468847044602E0034800F006F8CE
:1005D000204610BD7401002022080000044949682B
:1005E000002904D08031096F002900D00847FEE7B8
:1005F0007401002010B506484068002804D0406906
:10060000002801D0804710BD0248FFF7E7FF10BD6A
:100610007401002005080000024610B508480024B7
:100620004068002806D08169002903D01046884719
:10063000044602E00348FFF7D1FF204610BD00004A
:100640007401002006080000024610B50848002486
:100650004068002806D0C169002903D010468847A9
:10066000044602E00348FFF7B9FF204610BD000032
:100670007401002007080000024610B50848002455
:100680004068002806D0016A002903D01046884738
:10069000044602E00348FFF7A1FF204610BD00001A
:1006A0007401002008080000024610B5084808241C
:1006B0004068002806D0416A002903D010468847C8
:1006C000044602E00348FFF789FF204610BD000002
:1006D0007401002009080000024610B508480024F3
:1006E0004068002806D0016B002903D010468847D7
:1006F000044602E00348FFF771FF204610BD0000EA
:10070000740100200C080000024610B508480024BF
:100710004068002806D0416B002903D01046884766
:10072000044602E00348FFF759FF204610BD0000D1
:10073000740100200D080000024610B5084800248E
:100740004068002806D0816B002903D010468847F6
:10075000044602E00348FFF741FF204610BD0000B9
:10076000740100200E08000010B5064949680029F0
:1007700004D0C96B002901D0884710BD0248FFF79B
:100780002DFF10BD740100200F08000010B50749AF
:100790004968002904D0096C002901D0884710BDA0
:1007A00081200001FFF71AFF10BD00007401002036
:1007B00010B5064A5268002A04D0526C002A01D0B3
:1007C000904710BD0248FFF709FF10BD74010020DB
:1007D0001108000010B506494968002904D0896C49
:1007E000002901D0884710BD0248FFF7F7FE10BD71
:1007F0007401002012080000084610B50649496837
:10080000002904D00A68002A01D0904710BD0120B9
:10081000C002FFF7E3FE10BD7401002010B5064AC8
:100820005268002A04D0526D002A01D0904710BDB2
:100830000248FFF7D3FE10BD740100201508000028
:10084000034610B5084800244068002807D08030CF
:10085000026A002A03D018469047044602E0034883
:10086000FFF7BCFE204610BD7401002028080000E0
:10087000034610B5084800244068002806D0826D61
:10088000002A03D018469047044602E00348FFF7C9
:10089000A5FE204610BD00007401002016080000CF
:1008A000034610B5084800244068002806D0C26DF1
:1008B000002A03D018469047044602E00348FFF799
:1008C0008DFE204610BD00007401002017080000B6
:1008D00010B5064A5268002A04D0126E002A01D0D0
:1008E000904710BD0248FFF779FE10BD740100204B
:1008F0001808000010B5064A5268002A04D0526E4B
:10090000002A01D0904710BD0248FFF767FE10BDD6
:100910007401002019080000034610B5084800249F
:100920004068002806D0826E002A03D018469047FF
:10093000044602E00348FFF751FE204610BD0000C8
:10094000740100201A080000034610B5084800246E
:100950004068002806D0C26E002A03D0184690478F
:10096000044602E00348FFF739FE204610BD0000B0
:10097000740100201B08000070B50E46254C264966
:1009800000252080884202D101F012FC33E00128CA
:1009900005D02249884205D101F089F82BE002F008
:1009A00024F928E061218901884202D101F081F80F
:1009B00021E0DC2809D01849091F884202D0891C8F
:1009C000884205D102F0BAFB15E002F0C8F912E046
:1009D0001149891D884202D0891C884202D102F047
:1009E000AFFB08E0F02804D0FA2802D000206060B5
:1009F0000EE002F0B6F96060002809D0FF30013047
:100A0000416C002904D0002E02D0304688470546AC
:100A1000284670BD740100204A1900003E180000ED
:100A2000024610B5084800244068002806D0016F2F
:100A3000002903D010468847044602E00348FFF728
:100A4000CDFD204610BD0000740100201C080000F0
:100A500010B506494968002904D0496F002901D022
:100A6000884710BD0248FFF7B9FD10BD7401002092
:100A70001D08000010B506494968002904D0896F97
:100A8000002901D0884710BD0248FFF7A7FD10BD1F
:100A9000740100201E08000010B50120800200F043
:100AA0001DF810BD01490880FEE700008401002008
:100AB00031B500F0D3F8009C0546601C00D0641CE2
:100AC00000F0CCF8401BA042FAD338BD012110B58C
:100AD0008902884201D1FFF78DFD10BD10B5044990
:100AE0004A69024202D04861FFF7F0FF10BD0000E2
:100AF00000040140F8B500238DE001249C40A44689
:100B000022407DD04C68022C01D0122C0CD1DC0884
:100B1000A40027183C6A5D07ED0E0F26AE40B443D3
:100B20000E69AE4026433E6205685E000324B44071
:100B30000F79A543BF07BF0FB7402F4307604D682C
:100B4000012D05D0022D03D0112D01D0122D0ED173
:100B50008568CF68A543B7402F43876047686546DF
:100B6000AF430D79ED06ED0F9D403D434560C568EF
:100B7000A5438C68B4402C43C4604C68E40049D55C
:100B8000284CA56901263543A561A4699D08344018
:100B90000094254CAD002F19BC689D072E0F0F2522
:100BA000B540AC430925ED06A84201D100250FE070
:100BB0001E4DA84201D101250AE01D4DA84201D1D8
:100BC000022505E01B4DA84201D1032500E00525C3
:100BD000B5402543BD60184C25684E689543F60323
:100BE00000D51543256065684E689543B60300D56A
:100BF00015436560A5684E689543F60202D500E08E
:100C000008E01543A560E5684E689543B60200D537
:100C10001543E5605B1C0A681446DC4000D06CE7B5
:100C2000F8BD000000100240000001400004004830
:100C300000080048000C004800040140006908401A
:100C400000D00120704742694A4042617047002A43
:100C500001D08161704781627047000001480068DF
:100C6000704700008001002002480168491C0160B3
:100C7000704700008001002010B50648016810226E
:100C800011430160032000F007F800F016F800207F
:100C900010BD00000020024010B5044600F0B4F87A
:100CA0007D21C900FFF766FA00F060FC00222146B2
:100CB000501E00F00FF8002010BD7047002805DB23
:100CC000C106C90E01208840014908607047000034
:100CD00000E100E010B502F00FFA10BDF8B50546CE
:100CE00044480E460068C007C00FB0420AD24148CF
:100CF000016849084900314301600068C007C00F1E
:100D0000B0425CD128783C4C800705D56068F02162
:100D10008843A968084360602878C0073FD06868A6
:100D2000012813D02168022813D08907002946DA48
:100D300061688908890001436160FFF78FFF696876
:100D4000074601290DD0022917D024E02168890324
:100D5000ECE78901EAE7FFF781FFC11B27488142E1
:100D600017D860680007800F0128F4D117E0FFF75B
:100D700075FFC11B214881420BD860680007800FB6
:100D80000228F4D10BE0FFF769FFC11B1B48814229
:100D900001D90320F8BD60680007800FF3D1154822
:100DA0000168C907C90FB1420BD901684908490058
:100DB000314301600068C007C00FB04201D001207C
:100DC000F8BD2878400706D56068072109028843E6
:100DD000E9680843606000F01DF86168084A090688
:100DE000090F515CC840074908600320FFF754FF12
:100DF0000020F8BD002002400010024088130000CF
:100E0000D43600087C0100200148006870470000CB
:100E10007C01002010B512A30FCB88B06C460FC424
:100E200013A30FCB0FC416494A680C201346034086
:100E30001448042B0FD0082B0DD193021B0F6C46C6
:100E4000E45CC96A04AB0907090F595CD20304D5F5
:100E5000FFF790F9604308B010BD0B486043FAE714
:100E600002030405060708090A0B0C0D0E0F1010EB
:100E70000102030405060708090A0B0C0D0E0F10EA
:100E80000010024000127A0000093D00FEB5044641
:100E90000078D04DC00747D068680007800F012850
:100EA00007D068680007800F022809D16868C0036E
:100EB00006D52868800337D5606800287ED033E0E7
:100EC000012062680004012A11D08100002A01D0AB
:100ED000052A10D02A6882432A602868884328603F
:100EE0006068002814D0FFF7B9FE06460CE02968B8
:100EF00001432960F4E72A680A432A60F7E7FFF70D
:100F0000ADFE801B64286FD828688003F7D50BE0FE
:100F1000FFF7A4FE064604E0FFF7A0FE801B64284E
:100F2000F1D828688003F7D42078012680070028AC
:100F30003BDA68680007800F07D068680007800FF9
:100F4000022809D16868C00306D42868800715D52F
:100F5000E068012832D111E0E0680028286815D047
:100F600030432860FFF77AFE074604E0FFF776FE7D
:100F7000C01B0228C7D828688007F7D52868F82141
:100F800088432169C900084328600EE040084000FA
:100F90002860FFF763FE074604E0FFF75FFEC01B13
:100FA0000228B0D828688007F7D42078000724D515
:100FB000E0690028686A10D0304300E008E1686208
:100FC000FFF74CFE074604E0FFF748FEC01B02286F
:100FD00099D8686A8007F7D50FE04008400068623A
:100FE000FFF73CFE074605E09DE0FFF737FEC01B1C
:100FF000022888D8686A8007F7D420780427400739
:10100000002860DA00200190E869C00008D4E9698E
:10101000B8060143E961E9690140012000910190AE
:101020006D480168C90511D401688215114301603A
:10103000FFF714FE009005E0FFF710FE0099401A3C
:10104000642870D864480068C005F5D5A0680128F8
:101050000AD0002801D0052810D0286A4008400096
:101060002862286AB84301E0286A30432862A068F1
:10107000002812D0FFF7F2FD00900AE0286A3843FA
:101080002862F1E7FFF7EAFD0099411A53488142CF
:1010900049D8286A8007F5D50DE0FFF7DFFD0090FD
:1010A00006E0FFF7DBFD0099411A4C4881423AD82F
:1010B000286A8007F5D40198002804D0E969012046
:1010C00000078143E9612078C00635D560690128B1
:1010D0000CD0401D686B23D038436863686B4008B0
:1010E00040006863FFF7BAFD064622E0686B3843AC
:1010F0006863686B30436863FFF7B0FD064604E041
:10110000FFF7ACFD801B02285BD8686B8007F7D522
:10111000686BF8218843A169C900084368630BE044
:10112000B8436863F4E74CE0FFF798FD801B0228A2
:1011300047D8686B8007F7D4206A002846D06968D2
:101140000907890F022943D001263606022828689C
:1011500005D0B0432860FFF781FD044633E0B0437B
:101160002860FFF77BFD074604E0FFF777FDC01B13
:10117000022826D828688001F7D4E86AE16A0009C5
:1011800000010843E862616AA06A084369683D2279
:101190001204914308436860286830432860FFF7D1
:1011A0005DFD044604E0FFF759FD001B022808D846
:1011B00028688001F7D509E0FFF750FD001B0228E1
:1011C00001D90320FEBD28688001F5D40020FEBDB2
:1011D0000120FEBD00100240007000408813000096
:1011E000F8B5040007D0002625464035A662687F82
:1011F000002802D005E00120F8BD2E77204600F03F
:101200004BF802236B77206801684022914301600C
:101210000721E0680902884201D9002201E0012289
:1012200012030F273F02B84202D0884200D0A662C4
:10123000276B002F05D1884201D9236301E00120EB
:101240002063A16860686369084321691943084302
:101250000123A1695B0219400843E1690843216A3F
:101260000843A16A084321680860616B606AA3694A
:1012700008431B0C0427E1683B40194308432168DD
:10128000104348602068C1697A029143C1612666B3
:10129000012068770020F8BD30B500681F4987B08D
:1012A000884238D11E484269012149040A434261FB
:1012B00042690A40059242690A43426142690A4012
:1012C000059242690A43426142690A400592826975
:1012D00081140A438261806900240840059020201F
:1012E00000900220019001200925ED060390029450
:1012F000694604942846FFF7FDFB402000906946AC
:1013000004942846FFF7F6FB802000906946049479
:101310002846FFF7EFFB07B030BD0000003001406A
:1013200000100240FFB5044683B001202546403539
:101330000090287F00270E4601280FD00120287733
:10134000FFF78CFC0190687F616801280DD0CA1FEF
:10135000FD3A08D1A168002905D102E0022007B0BA
:10136000F0BD042801D00227FAE0002E7CD00598B9
:101370000028FBD006980028F8D0687F042801D008
:101380000520687700202066059921640699E98088
:101390000699A980A6630699E1870699A187E0646A
:1013A00020650723E1681B02994202D8E8880128DA
:1013B00006D920684268012109038A43426005E09A
:1013C00020684168012212031143416020680168CE
:1013D000490603D40168402211430160E168606856
:1013E000994242D9002802D0E08F012835D12168E6
:1013F0003088C860E08F401EE087B61C2DE0009862
:1014000000280ED0E08F00280BD020688168890763
:1014100007D53188C160E08F401EE0870020B61CF0
:101420000090E88800280ED020688168C9070AD09B
:10143000C068059908800598801C0590E888401EC2
:10144000E880012000900C98401C06D0FFF706FCB5
:101450000199411A0C9881426DD2E08F0028CED1BB
:10146000E8880028CBD16EE079E0002802D0E08F38
:10147000012862D1E08F012807D921683088C8602F
:10148000E08F801EE087B61C57E021683078087333
:10149000E08F401EE087761C4FE00098002818D0AF
:1014A000E08F002815D020688168890711D5E18F69
:1014B000012906D93188C160E08F801EE087B61C03
:1014C00005E031780173E08F401EE087761C002034
:1014D0000090E888002824D020688168C90720D0BF
:1014E000E988012912D9C068059908800598801CEF
:1014F0000590E888801EE880E88801280FD82068D9
:101500004168012212031143416008E0017B059804
:1015100001700598401C0590E888401EE880012075
:1015200000900C98401C08D0FFF798FB0199401AD6
:101530000C99884201D3032712E0E08F0028ACD138
:10154000E8880028A9D12046019A0C9901F04FFBA8
:10155000002801D020202066206E002800D001271E
:1015600001206877002028773846F8E6094910B549
:10157000401E884201D9012010BD074C6061032143
:10158000081F01F0B9FD0020A061072020610020A4
:1015900010BD0000FFFFFF0000E000E07047704753
:1015A00070B502462032137F012B1BD00123137725
:1015B00002245477046865687026B5436560046842
:1015C00065680E68354365600468A5688026B54384
:1015D000A5600068846849680C43846053770020E4
:1015E000107770BD022070BD704770B5044600686A
:1015F00001690025C9438907002915DBC168C94372
:10160000890711D4E91E01610120207720688069D3
:101610008007204602D0FFF7E7FF04E000F096F8CD
:10162000204600F07BF9257720680169C943490706
:1016300017D4C168C943490713D40421C9430161C0
:1016400002202077206880698005800F204602D024
:10165000FFF7CAFF04E000F079F8204600F05EF9D9
:10166000257720680169C943090716D4C168C943B1
:10167000090712D40821C94301610420207720689A
:10168000C0698007204602D0FFF7AEFF04E000F0FB
:101690005DF8204600F042F9257720680169C943CA
:1016A000C90617D4C168C943C90613D41021C94358
:1016B0000161082020772068C0698005800F2046DE
:1016C00002D0FFF791FF04E000F040F8204600F060
:1016D00025F9257720680169C943C90708D1C16880
:1016E000C943C90704D1891E0161204600F0DCF915
:1016F00020680169C943090609D4C168C9430906BC
:1017000005D48021C94301612046FFF747FF2068C7
:101710000169C943490609D4C168C943490605D4CA
:101720004021C9430161204600F0BFF920680169EA
:10173000C943890609D4C168C943890605D4202153
:10174000C94301612046FFF72AFF70BD7047F8B515
:10175000064604462036307F0D4601280DD0012074
:101760003077022070770427002A08D0042A16D088
:10177000082A2AD00C2A4DD137E00220F8BD206873
:1017800001F0B0FB20688169082211438161206863
:101790008169B9438161206881692A6912E0206802
:1017A00001F0E4FB206882690121C9020A438261D9
:1017B00020688169012292029143816120688169D8
:1017C0002A6912021143816124E0206801F00EFCB5
:1017D0002068C26908210A43C2612068C169B9430F
:1017E000C1612068C1692A6912E0206801F040FCEB
:1017F0002068C1690122D2021143C1612068C26917
:10180000012189028A43C2612068C1692A691202E2
:101810001143C1610120707700203077F8BD70B5A9
:10182000040005D025462035687F002802D006E058
:10183000012070BD00202877204600F00BF8022020
:101840006877211D206801F0FDFA012068770020EB
:1018500070BD000030B504682A4800212A4A0123DF
:1018600087B0844217D1D46902200443D461D2697D
:10187000029102400592802203910190049300920C
:1018800069462248FFF736F9002204211020FFF7AD
:1018900021FA102018E01E4D1E48AC4218D1D5691F
:1018A000A4152543D561D2690291224005920822F0
:1018B0000391019300926946FFF71CF9002203216E
:1018C0001320FFF707FA1320FFF7F8F907B030BD30
:1018D000114DAC42FAD19569012424042543956148
:1018E0009269029122400592A21103910193009204
:1018F0006946FFF7FFF8002203211420FFF7EAF9F9
:101900001420E1E7000400400010024000080048F5
:1019100000200040000400480040014070B504462B
:101920000068214988420AD1207F022807D100207F
:10193000FEF7BAFE082802D00020FFF789F81B49FD
:1019400020681B4D884213D1207F012810D1082127
:101950002846FFF778F90120FEF7A6FE082807D0F1
:1019600008212846FFF76AF9012801D1FFF770F82E
:1019700010492068884215D1207F012812D18402A5
:1019800021462846FFF75FF90220FEF78DFE082862
:1019900008D021462846FFF751F9012802D102203C
:1019A000FFF756F870BD0000000400400020004022
:1019B000000400480040014010B5026804460029B8
:1019C00006D0042907D0082926D00C2907D126E003
:1019D000D068022301E0D06804231843D0600122BC
:1019E000206801F073FA0F482168814208D00E4840
:1019F000814205D00D48814202D00D48814204D178
:101A0000486C0122D2031043486420680168012217
:101A100011430160002010BDD0680823DDE7D068C5
:101A20001023DAE7002C014000400140004401404F
:101A30000048014030B504460068002201F046FA33
:101A4000154A144821689310814208D013488142F6
:101A500005D01348814202D0124881420AD1086A57
:101A6000104207D1086A184204D1486C0125ED03E1
:101A7000A84348642068016A114206D1016A1942EC
:101A800003D10168490849000160012020346077D2
:101A9000002030BD002C0140111100000040014029
:101AA000004401400048014070477047FEE70020B5
:101AB000704700207047000010B50F4A022901D27C
:101AC000022102E0914200D9114628220B4B4243E9
:101AD000D2181184002807D0012809D0022802D189
:101AE000084600F0B7F810BD084600F087F810BDB2
:101AF000084600F099F810BD10270000A001002052
:101B00000149C8607047000000000020014988605A
:101B1000704700000000002010B5FEF7C9FF10BD9F
:101B200072B6704762B67047F0B5314F0025012498
:101B300087B000280DD0012857D0022807D11020E7
:101B4000694631C1694638460394FEF7D3FF07B0B2
:101B5000F0BD284842690121C9040A434261426933
:101B60000A400592426989100A43426142690A406B
:101B70000592426949000A434261406909260840CA
:101B80000590081200901C48F606019002946946E0
:101B900003943046FEF7AEFF002205210720FFF731
:101BA00099F80720FFF78AF84020694631C1694655
:101BB00038460394FEF79EFF012240213846FFF786
:101BC00046F801204002694631C169463046039417
:101BD000FEF790FF002000F0ABF8FF2001306946CF
:101BE00031C1694630460394AFE72020A8E70000E2
:101BF00000040048001002400000211010B5044607
:101C0000FFF708F9A102FEF7B5FA0649401E0A6877
:101C1000D062C86009684008886304210148FFF762
:101C2000CBFE10BD7C02002010B50446FFF7F2F891
:101C3000E102FEF79FFA0649401E0A68D062C860BA
:101C400009684008486300210148FFF7B5FE10BD50
:101C5000BC02002010B50446FFF7DCF8E102FEF7F5
:101C600089FA0649401E0A68D062C86009684008BF
:101C7000486300210148FFF79FFE10BDFC020020D1
:101C800070B58AB0012806D0022808D0144C154837
:101C90000426206008E0124C1348403402E0104C47
:101CA00012488034002620600025A560E5601048B9
:101CB000256160602046FFF7B2FD6020009001952D
:101CC00002953246694604952046FFF740FD079588
:101CD00007A920460895FFF763FC0AB070BD000015
:101CE0007C02002000040040002000400040014031
:101CF000FF03000010B5002808D001280AD00228F0
:101D000003D100210548FFF795FE10BD03480421CB
:101D10008038F8E7014800214038F4E7FC02002051
:101D200010B5012209205102C006FEF790FF10BD38
:101D300010B50121092000224902C006FEF787FFE5
:101D400010BD000010B500280BD00A4B012804D0AC
:101D500002280DD10A46102101E00A46202118462A
:101D600004E00A46FF2109200131C006FEF76FFF9B
:101D700010BD00000004004810B50E480C49016079
:101D80002021C161012242610021816002220261A1
:101D900081620722C2621202C26001220162520203
:101DA00082614162FF2105314160FFF719FA10BDE0
:101DB0000030014018020020F7B5164682B000221C
:101DC00040211048FEF743FF002401273F030FE0A6
:101DD000012300970C48039A0299FFF7A3FA050024
:101DE00008D10298401C02900398401C641C039088
:101DF000B442EDD3012240210248FEF728FF2846D5
:101E000005B0F0BD000400481802002010B5A8215C
:101E100000F062FB10BD10B5B82100F05DFB10BDF5
:101E2000F3B5304D83B0A9782022081A401EC7B2FE
:101E3000049900201143C9B22B4E019100242C704B
:101E4000002801D0FFF76EFE2046274C00210C3CF5
:101E500009E060546218D070907150727218D0709E
:101E600090715072491CAA789142F2D304980328C9
:101E70000ED004DC01280BD0022804D10CE0182875
:101E80000AD0192808D0E11901988871012007E0CB
:101E90000198E055032003E0E1190198C870022081
:101EA0000090FFF73DFE297801200029C6D1009857
:101EB00003210D1A06E0680028188119001900F0A6
:101EC00073FE6D1C042DF6D3F019C1780C048179D2
:101ED000407A09020C430443FFF724FE204605B074
:101EE000F0BD00000000002094010020F8B51D4D59
:101EF000A9781D4E081A401EC7B2002004462C7057
:101F0000002801D0FFF70EFE174900200C3907E02A
:101F10000C540A18D47094713218D4709471401C07
:101F2000AA789042F4D31049D0200C39C855FFF755
:101F3000F7FD297801200029E1D10B4D00240C3D4B
:101F4000600020188119401900F02EFE641C032C3B
:101F5000F6D3F019C17880790C020443FFF7E2FD53
:101F60002046F8BD000000209401002010B500219B
:101F700000F0B2FA10BD0000F7B52E4917468A7876
:101F800086B0101A401EC6B200203A04120E00920B
:101F9000079AD2B20392274C00252570002801D061
:101FA000FFF7C0FD294625460020234C05E02154BB
:101FB0002218D17091715172401CAA789042F6D3C8
:101FC000079801280AD0022811D0032806D0182823
:101FD0000DD0A1190398887101200EE00398A05537
:101FE000390CA019C17000998171032005E0A01976
:101FF0000399C1700099817102200190A019477264
:10200000FFF78EFD297801200029C4D10198032112
:10201000094E0D1A0C3606E06800281881190019BF
:1020200000F0C2FD6D1C042DF6D3FFF77BFD09B057
:10203000F0BD00000000002088010020F8B50E4629
:102040002821484314494418E08BA18BA28B091A1C
:10205000101848430546218BFEF78CF8618B470822
:102060002846FEF787F840083918B1420FD9608B2F
:10207000218B09187043FEF77DF8012803D9411E12
:1020800002D1012100E00021A1602061F8BDA7601C
:10209000301A401EF9E70000A0010020810204D59B
:1020A000C043401C8002800A404270470249C96810
:1020B000002900D00847FEE70000002010B5054CBD
:1020C000A068002804D00121617080470020607062
:1020D00010BD00000000002028214843014940189D
:1020E000008B7047A001002010B50C46FFF798FE4A
:1020F0000F2C1BD006DC012C0BD0032C09D0092C93
:1021000004D10BE0102C11D0132C0BD0FEF726F9C4
:1021100010BDFFF7C3FFFEF719F910BDC0B200F004
:1021200031FD10BDC0B200F047F910BDC0B200F0E3
:10213000FBFC10BD2821484301494018008C704722
:10214000A00100202821484301494018408B7047D6
:10215000A00100202821484302494018203000797E
:1021600070470000A0010020282148430249401880
:102170002030C07870470000A00100208520400278
:10218000704710B50321FFF74BFEFFF787FF10BD27
:102190002821484301494018808B7047A001002046
:1021A0002821484301494018C08B7047A0010020F6
:1021B00000487047100000200148807870470000F8
:1021C0000000002010B50121FFF72AFEFFF766FF8F
:1021D00010BD10B51621FFF723FE4007400F030086
:1021E00000F07CFF050406080A0C0E00002010BD5C
:1021F000012010BD022010BD032010BD042010BD21
:10220000FE2010BD28214843024940182030407963
:1022100070470000A001002010B5002100F00EF86A
:1022200010BD10B504460321FFF7FAFDFFF736FF96
:102230000146204600F002F810BD0000F8B50F4638
:10224000064628201449704344182546203528792D
:10225000082802D0304600F021F801213046FFF76F
:10226000DFFDFFF71BFF606060683A1A04D462610B
:102270000121002A03D1F8BD5042606100210120F4
:10228000A870304600F040FA61693046FFF7D6FE8C
:10229000304600F071FBF8BDA001002070B5282188
:1022A0000A4A41438D182C4620346179002902D016
:1022B00000F010F870BDFFF71DFD0820207103200D
:1022C000A070034868610020288470BDA001002030
:1022D000FFFFFF7F10B50446FFF70CFD2046FFF718
:1022E00095FD282044430648082220180146203145
:1022F0000A7103228A70034941610021018410BDE3
:10230000A0010020FFFFFF7F70B5154C0546207926
:10231000FFF70AFCFFF730FD002803D00120C003BF
:10232000FFF7C4FE2079FFF7ABFC2079FFF7F8FC3C
:102330000120FFF7F1FB2079002D0DD0C0B2294616
:1023400000F09EF92079FFF761FD2079FFF7CEFDBF
:10235000A088401CA08070BDC0B200F0B3F9F1E7C6
:1023600000000020F7B506462820124970434418A3
:1023700021462031087915460F46082802D03046FC
:10238000FFF78CFF002D14D065610120B870014665
:102390003046FFF745FDFFF781FE6060304601994A
:1023A00000F0B2F929463046FFF748FE304600F00B
:1023B000E3FAFEBDA001002010B5401CFDF7CEFFE2
:1023C000014901F09BF810BD0080BB4310B50749DF
:1023D00001F018F9064901F091F83F21090601F0D2
:1023E00047F8FDF777FFC0B210BD00000080BB4387
:1023F0000FB82E3B01488088704700000000002085
:1024000010B51921FFF70CFD80B210BD10B5FFF714
:1024100087FC10BD10B5FFF78BFC10BD70B5002414
:102420000B4D10E02046FFF755FF2046FFF780FCDC
:102430000120FFF771FB2046FFF772FC0120FFF738
:102440006BFB641CE4B2A8788442EBD370BD00003F
:102450000000002070B50E4604462820094960435C
:10246000451820352879082802D02046FFF716FFA6
:102470003146204600F048F90020A870204600F0C0
:102480007BFA70BDA001002070B5054600291BD065
:1024900001291BD002291BD003291BD00C24FFF7D4
:1024A00019FF16212846FFF7BBFCF82108402043FE
:1024B000024616212846FFF75FFD0022012128462B
:1024C000FFF75AFD012070BD0824E8E70924E6E77C
:1024D0000A24E4E70B24E2E7F3B5134C81B0A278B9
:1024E000101A401E0025C2B22570104EB71802E027
:1024F0000D70FFF717FB002002E031184D72401CF1
:10250000A1788842F9D302987872FFF709FB207806
:1025100021460028ECD10549153108460C3800F059
:1025200043FBFFF7FFFAFEBD0000002088010020FA
:10253000024610B5002000290DD028235A43064B2F
:10254000D218134620331C79082C02D09B78002B1C
:1025500001D11183012010BDA0010020F8B507466C
:10256000374801250E461446824203D3012E01D07E
:10257000032E62D1092E44D006DC012E27D0022E74
:1025800009D0032E59D122E00F2E48D0102E46D06C
:10259000132E52D13CE06000000E12D02948844234
:1025A0004BDC16210020FFF73BFC4007400F0721C2
:1025B000091A01208840FDF7C9FE214600F0F6FF08
:1025C0003BD32046FDF786FEC205D20D2FE06521E4
:1025D00049068C4231D81C498C422EDC844210467C
:1025E00004D2FDF777FE8202920A20E00121C9079A
:1025F0004840FDF76FFE80020121800A89050A1A12
:1026000015E01248844218DC104600F0A7FA0DE0ED
:102610000F48844211DC1046FFF7D8FE06E0852003
:10262000C005844209DC104600F087FA02463146B4
:102630003846FFF7A1FC2846F8BD0025FBE700005F
:10264000000080800080FF43F8FFFF4900007A45CA
:102650000080BB45024610B5002000290DD028237C
:102660005A43064BD218134620331C79082C02D04B
:102670009B78002B01D15183012010BDA0010020C7
:1026800070B5282204460E4D54430B8862191383FB
:102690004B8853838B889383CB88D38300232B5120
:1026A00053609360D360136153611384032320321A
:1026B00093700123D3700823137100F0A5F870BD47
:1026C000A001002010B5282103460E4CA0224B4348
:1026D00019190A834A83192292018A835210CA83E4
:1026E0000022E2504A608A60CA600A614A610A8434
:1026F000032220318A700122CA7008220A7100F078
:10270000CBF810BDA00100202822064B424310B593
:10271000D21820321379082B02D1D170FFF712FBA7
:1027200010BD0000A001002070B50C460546012137
:10273000FFF776FBFFF7B2FC011B02D48A02920A74
:1027400005E0484280020121800A89050A1A012118
:102750002846FFF711FC70BD10B5002902DB8A0284
:10276000920A05E0494289020122890A9205521A19
:102770000321FFF701FC10BD10B502460B4C0020F1
:102780008B1EA34210D828235A43094BD318DA8B47
:102790008A4209D81A4620321479082C02D092783D
:1027A000002A01D19983012010BD00000E270000EE
:1027B000A001002010B502460B4C00208B1EA34246
:1027C00010D828235A43094BD3189A8B8A4209D32D
:1027D0001A4620321479082C02D09278002A01D1AE
:1027E000D983012010BD00000E270000A0010020A9
:1027F000032805D8034900228A8088700120704789
:10280000002070470000002070B50C4605460022ED
:102810000121FFF7B1FB002202212846FFF7ACFBA4
:10282000002203212846FFF7A7FB09212846A268BA
:10283000FFF794FE627D207D0E2102432846FFF7BC
:102840009BFB0F212846A269FFF788FE102128462E
:10285000E269FFF783FE13212846E268FFF77EFE58
:10286000A27CE07C162102432846FFF785FB172156
:102870002846A26AFFF780FB2420025D607C618C01
:102880000243207C08430243208C1821024328463F
:10289000FFF772FB70BD0000F8B50446002201216D
:1028A000FFF76AFB002202212046FFF765FB0022AA
:1028B00003212046FFF760FB59271F481F4D204E7C
:1028C000FF01002C03D0012C01D0022C33D100F0E9
:1028D00045F9024609212046FFF74EFB35220E211D
:1028E0002046FFF749FB284600F027F902460F2152
:1028F0002046FFF741FB304600F01FF90246102149
:102900002046FFF739FB012213212046FFF734FB55
:102910008C2216212046FFF72FFBCF2217212046BD
:10292000FFF72AFB3A4618212046FFF725FB002136
:10293000204600F007F8F8BD00007A430000404050
:102940000000A84128225043024A801820304171DB
:1029500070470000A0010020014628225143054A8B
:102960000020891820310A79082A02D002208870B4
:1029700001207047A001002070B50446FFF74BFA14
:1029800022462820094D424351198E680B462033B8
:102990000020002E01D0187101E002261E71A850FF
:1029A000C860C98B2046FFF787F870BDA0010020E2
:1029B000F1B55B4801214170009D282059494543EC
:1029C0006C18E068401CE060224620321079002834
:1029D00004D002285BD0032813D139E0E168A36852
:1029E000268C208B97780004022F05D09778002F33
:1029F00008D027698F4205D102214A481171002170
:102A0000415188E0A78BB7425BD99778002F01D05E
:102A1000994256D00027002E00D101263146FDF7FD
:102A2000A9FB40494A59801848510120000405E09B
:102A30004A59121A4A51761CB6B201274A598242A3
:102A4000F6D2002F67D0A08BB0425FD2A68B5DE09C
:102A5000A08BE3689678022E0BD09678002E02D0D9
:102A600026699E4205D99378002B06D1238C834298
:102A700003D902201071002007E09378002B4AD17F
:102A8000238C834247D200201071485143E0E36811
:102A9000268C608B97780004022F02D1E78BB74217
:102AA00005D29778002F06D067699F4203D8009817
:102AB000FFF7F4FB2FE09378002B05D1A38BB342F3
:102AC00002D30320107126E0E18BB14223D200270C
:102AD000002E00D101263146FDF74CFB11494A5921
:102AE000801848510120000407E04A59121A4A513F
:102AF000012E01D9761EB6B201274A598242F4D27C
:102B0000002F08D0E08BB04200D9E68B2684218CC0
:102B10000098FEF7D1FF024900204870F8BD000080
:102B200000000020A001002010B5401CFDF716FC9D
:102B30000021C943FDF716FC10BD10B53F24240643
:102B4000214600F05FFD0121FDF70CFC214600F05D
:102B50008FFCFDF7BFFBC0B210BD000010B50749E8
:102B600000F050FD064900F0C9FC3F21090600F0C5
:102B70007FFCFDF7AFFBC0B210BD00000000FA41C2
:102B80006F12033D10B5401CFDF7E8FB014900F052
:102B9000B5FC10BD0000FA4100B502461046FFF733
:102BA000D9FA0828FAD100BD10B5074CA278FFF772
:102BB00003F9002802D00548FFF778FA607800286A
:102BC00001D00120207010BD000000200180000015
:102BD00010B50020FDF7EAFC0120FDF7E7FC02201C
:102BE000FDF7E4FC10BD7047704700207047F8B552
:102BF0000F460B4615460092032104460022C902E7
:102C000000F01BF82026002812D13B46002280212C
:102C10002046009500F05CF8002809D103213B46CE
:102C2000002249022046009500F007F8002803D052
:102C3000206E304320660320F8BDF8B51D461746C8
:102C40000E4604463DE0032149028E4205D1002F85
:102C500003D1017B684601700078681C31D0002DDB
:102C600005D0FDF7FBFF0699401AA84229D320683A
:102C70004168E022914341606068C11FFD390CD179
:102C80000121A068C903884202D04911884204D1B9
:102C9000206801684022914301600120A16A40033D
:102CA000814207D121680A6882430A6021680A6864
:102CB00002430A600120403460770020207703201F
:102CC000F8BD206881683140B942BCD10020F8BD10
:102CD000F8B51D4617460E46044633E0681C31D051
:102CE000002D05D0FDF7BAFF0699401AA84229D356
:102CF00020684168E022914341606068C11FFD394E
:102D00000CD10121A068C903884202D04911884230
:102D100004D1206801684022914301600120A16A2A
:102D20004003814207D121680A6882430A60216812
:102D30000A6802430A60012040346077002020774F
:102D40000320F8BD206881683046884304D0002005
:102D5000B842C3D10020F8BD0120F9E77047002038
:102D600070470020704710B5FDF77EFF10BD30B5ED
:102D700091B0012000240B9005200094C00402258E
:102D80000A90089509946846FEF780F8002802D05A
:102D90000020FDF787FE07200C900E9401210D9571
:102DA0000F940CA8FDF79AFF002802D00120FDF730
:102DB00079FE11B030BD00001348016801221143B3
:102DC00001604168114A114041600168104A114098
:102DD00001600168012292049143016041683F2231
:102DE000120491434160C16A09090901C162016B82
:102DF000FF22143291430163416B4908490041634A
:102E00000021816070470000001002400CB8FF08EC
:102E1000FFFFF6FE10B50248FEF7E7FB10BD00000D
:102E2000BC02002010B50248FEF7DFFB10BD000019
:102E3000FC02002010B50248FEF7D7FB10BD0000D1
:102E40007C020020F0B502681A4B1B4C984201D05E
:102E5000A04203D17025AA434D682A43174D184E4E
:102E6000184F98420AD0A04208D0174CA04205D073
:102E7000A84203D0B04201D0B84205D11446032283
:102E800012029443CA6822438024A2434C6922431D
:102E900002608A68C2620A688262984205D0A842CB
:102EA00003D0B04201D0B84201D1096901630121C8
:102EB0004161F0BD002C0140000400400040014091
:102EC00000440140004801400020004010B50123AB
:102ED000046A8B409C430462036A8A401343036282
:102EE00010BD0000F0B5026A520852000262056A85
:102EF000436882697024A24392080C6892001443CC
:102F0000022295438A68164E2A43144DA84207D0E0
:102F1000B04205D0134FB84202D0134FB84206D189
:102F20000827BA43CF681743042297433A46A8427A
:102F300007D0B04205D00B4DA84202D00A4DA8429E
:102F400006D103252D02AB434D691D438B692B43ED
:102F500043608461496841630262F0BD002C014016
:102F600000400140004401400048014070B5026A41
:102F700010239A430262056A42688369732424021B
:102F8000A3430C6824021C4320239D438B681B0130
:102F90002B43124DA84208D11D46CB688026B5436D
:102FA0001B012B434025AB4308E00D4DA84205D043
:102FB0000C4DA84202D00C4DA84208D10325AD0209
:102FC000AA434D69AD0015438A6992002A434260C5
:102FD000846149688163036270BD0000002C014078
:102FE00000400140004401400048014070B5026AC1
:102FF000FF2301339A430262056A4368C269702461
:10300000A24392080C689200144301225202954395
:103010008A6812022A43124DA84208D11546CA688E
:10302000C614B54312022A430515AA4308E00D4D04
:10303000A84205D00C4DA84202D00C4DA84208D1A0
:1030400003252D03AB434D692D011D438B691B01E6
:103050002B434360C4614968C163026270BD0000D4
:10306000002C014000400140004401400048014064
:1030700030B5026A01231B039A430262046A426864
:10308000C36973252D02AB430D682D021D43012337
:103090005B039C438B681B0323430C4CA04208D06A
:1030A0000B4CA04205D00B4CA04202D00A4CA042CF
:1030B00005D10124A403A2434C69A4012243426028
:1030C000C56149680164036230BD0000002C014005
:1030D00000400140004401400048014030B47446C3
:1030E000641E2578641CAB4200D21D46635D5B0004
:1030F000E31830BC184700008307FF22DB0E9A401C
:103100008907090E9940002808DB830809489B00BD
:103110001B18186890430843186070470007000F99
:103120000838830804489B001B18D869904308435B
:10313000D861704700E400E000ED00E00020704737
:1031400000207047FDF798FDFFF711FEC24C0321E8
:103150002046FDF711FC00212046FDF74DFB002124
:103160002046FDF749FB00212046FDF745FBBB4803
:10317000FDF70AFABA48FDF7F5F90020FDF7DCFA89
:1031800001460020FDF7A4FB0120FDF7D5FA01461A
:103190000120FDF79DFB0220FDF7CEFA014602203B
:1031A000FDF796FB1925ED0129460020FDF700FBF0
:1031B0000020FDF75FFC0020FDF7BEFA0446A842A0
:1031C0000AD101460020FDF795FB21460120FDF7BD
:1031D000EFFA0120FDF74EFC0120FDF7ADFA0146A4
:1031E000A84205D10220FDF7E3FA0220FDF742FCD8
:1031F0000220FDF7A1FA7D240646E4002046FDF7F3
:1032000057FC1920C001864211D10020FDF7ACFA0D
:103210000120FDF7A9FA0220FDF7A6FA0020FDF72C
:1032200029FC0120FDF726FC0220FDF723FC2546A2
:103230002046FDF73DFC8B4C00202146FDF7B8FAF7
:103240000020FDF717FC0020FDF776FA0146A042AA
:1032500005D10120FDF7ACFA0120FDF70BFC0120A0
:10326000FDF76AFA0146A04205D10220FDF7A0FA57
:103270000220FDF7FFFB0220FDF75EFA0646284616
:10328000FDF716FC1920C001C64215D131460220B7
:10329000FDF730FB0020FDF767FA0120FDF764FA27
:1032A0000220FDF761FA0020FDF7E4FB0120FDF7A5
:1032B000E1FB0220FDF7DEFB2846FDF7F9FB0020CD
:1032C000FDF764FA0220FDF761FA0020FDF7D2FB5A
:1032D0000220FDF7CFFB2846FDF7EAFB0121002085
:1032E000FDF79CFA0020FDF7F7F904460020FDF7F2
:1032F000ABF9A042FAD1FF3C413CA1B20120FDF75D
:103300000BFB01210846FDF789FA0120FDF79CF926
:10331000A042FAD1FF3C413CA1B20220FDF7FCFAE9
:1033200001210220FDF77AFA0220FDF78DF9A04273
:10333000FAD14D48FDF7BCFB0120FDF771FB0120E0
:10334000FDF798FB0020FDF745FA0220FDF742FA51
:103350000020FDF78FFB0220FDF78CFB0020FDF71E
:1033600003FA0120FDF700FA0220FDF7FDF9002025
:10337000FDF780FB0120FDF77DFB0220FDF77AFBC6
:103380000020FDF749F905460020FDF775F90446D0
:103390000020FDF7A1F906460020FDF7B5F9074624
:1033A00003210120FDF74CFAF003010C0120FDF789
:1033B000B3FAF803010C0120FDF7C6FA69080120F1
:1033C000FDF756FA61080120FDF76AFA0021022094
:1033D000FDF736FA3003010C0220FDF79DFA3803A1
:1033E000010C0220FDF7B0FA29090220FDF740FA8E
:1033F00021090220FDF754FA1924E4016542661000
:103400002F1129460020FDF7D3F931460120FDF7A1
:10341000CFF939460220FDF7CBF90020FDF72AFB52
:103420000120FDF727FB0220FDF724FB21460020A9
:10343000FDF7BEF90D490120FDF7BAF9C8210220B8
:10344000FDF7B6F90020FDF715FB0120FDF712FB93
:103450000220FDF70FFBD4E74A190000D12B00082A
:10346000A50A000880F3FFFFB80B0000C0F9FFFFBA
:1034700070B501250400ED074C4020D4441A01D258
:10348000001B0919C60D4B00F2B2FF2A29D01B0EF2
:103490002CD000020C02D31A2C43DC40284305191F
:1034A00010D2280A02D3401C6D0611D0761EF605F4
:1034B0008019FF2A00DA70BDC00DC00570BD6940DB
:1034C00000F0A6F801200543C541521C761CE8E730
:1034D00064089C40C90161408900E7D10124A043F0
:1034E000E4E71B0E440200D0034870BD002AFCD163
:1034F000C00FC00770BD00BF0000C07F70B54200A4
:1035000064414B005C41120E39D01B0E38D0FF2AAB
:103510003CD0FF2B3AD040024902400A490A06003B
:1035200045184E43000A090AD2184843ED017F3A74
:103530000104731A4019190C4318990F04D0012182
:103540005B0849075B1A521CD80904D3401CF503D9
:1035500001D19D0607D0FF2A08D2D50506D0E40781
:103560002043401970BD0125A843F4E7002A01DC7F
:10357000E00770BD2402FF202043C00570BD1B0E74
:10358000FF2A03D0FF2B01D0E00770BDFF264500C6
:103590003606B54206D84D00B54203D8D218FF2AE8
:1035A00000D0E7E7004870BD0000C07F01230A009B
:1035B000DB0502430DD4DA4203D49A4207D4814298
:1035C0007047D94214D4D84212D4814270478942FC
:1035D0007047DA4203D59A42F9D5884270475B00BA
:1035E0004A00DA4204D24200DA4201D288427047ED
:1035F0004840414010B5024A4840FCF7D5FE10BD96
:103600000900160470B501250400ED074C4022D4D2
:10361000441A02D26C40001B0919C60D4B00F2B2CD
:10362000FF2A4BD01B0E50D000020C02D31A2C43A1
:10363000DC40A843051B05D5AD0019D36D08761EE7
:10364000521E37D0F605280A01D2801970BD70418C
:103650006D0603D070BD6940FFF710FF9C40090262
:103660006140490001D0401E70BD0124A04370BDDF
:103670006D081DD001202B0C01D12D0410302B0E14
:1036800001D12D0208302B0F01D12D01001DAB0FF0
:1036900001D1AD00801CEB0F01D16D00401C6D000D
:1036A000361A121A680AF5054019012A02DB70BDA4
:1036B000002070BDC036300AC00770BD1B0E44022A
:1036C00001D1FF2B00D1024870BD002AF0D070BD9F
:1036D0000000C07F000000000000000001020304A1
:1036E00006070809043700080000002088010000D0
:1036F0000E050008B83700088801002018080000EF
:10370000F800000801101309231B08F50413011B1E
:103710001B080D044113BD201B08D9041335211BC0
:103720000845041A55041A7D041A83041A91041AD0
:10373000A1041AC5041319221B0823041A3D041AF4
:103740009D041A65481B1D243019041B31250812DD
:1037500026140829271B0859041A79042AB50C12C3
:10376000291B08B1041B992B70121E1B0817041A81
:1037700021041AED041B6D1F2819041A01401A0DAB
:10378000041A15041A89041A093801101AD570018F
:10379000201AB9A401101AADD8011C1A459C9A052B
:1037A0005C1AD3440A116948C11AF1A01A5DF00AE3
:0837B0001DE95C1193127A007F
:04000005080000B53A
:00000001FF
